:20000000FC2C0020150F0000430F00002F0D0000070E0000070E0000070E000000000000A7
:20002000000000000000000000000000070E0000070E000000000000070E0000070E00006C
:20004000070E0000070E0000070E0000070E0000070E0000070E0000070E0000070E0000F8
:20006000070E0000070E0000070E0000070E0000070E0000070E0000070E0000070E0000D8
:20008000070E0000070E0000070E0000070E0000070E0000070E0000070E0000070E0000B8
:2000A000070E0000070E0000070E0000070E0000070E0000070E0000070E0000070E000098
:0800C000070E0000070E00000E
:2000C80010B5ADF1180D039102902E48006840690146062088472B480068406B01460620B4
:2000E80088470128F7D127480068C06901464FF4A060884700F004F900F0C6F80028FBD051
:2001080020480068C06901464FF48070884700F0F7F800F0B9F80028FBD04FF080400F21F3
:2001280000F0CEF84FF08040032100F0E0F816480068029A00680092082101911349002380
:2001480004464FF080400022A047114800680399406C13224FF0FF33044600914FF08040BC
:200168001221A0474FF0804000F0B6F806480068006904A902464FF0804090470028F5D1E8
:2001880006B010BDB8010010C4010010006CDC02B401001008B514480068006A01464FF4B2
:2001A8008070884700F0ACF800F06EF80028FBD00D480068006A01464FF4A060884700F02B
:2001C8009FF800F061F80028FBD007480068806901460620884704480068406B014606209C
:2001E80088470228F7D108BDB80100100EB501910090019800B31148006880680021024665
:200208004FF08040904710B94FF0FF3015E00B480068C06802A902464FF0804090479DF893
:200228000800009908700198401E01900098401C009001980028DED100200EBDC401001061
:200248000EB5019100900198C8B10E48009900680978406802464FF0804090470948006848
:20026800C06802A902464FF0804090470198401E01900098401C009001980028E5D10020E2
:200288000EBDC046C4010010054801680020890801D3012100E0002101B101207047C046C2
:2002A8002820084008B5054800680069694602464FF0804090470028F5D108BDC401001076
:2002C800ADF1080D019100900098019A143001689143016002B07047ADF1080D00900098E8
:2002E800001D016841F00201016002B07047ADF1080D0191009001980099086202B0704798
:20030800014901200860704728200860D74A2DE9F04F0126ADF1140D02F141010490D1485D
:20032800C1F8CF6F0768002FFCD0D148C02344380360CD4B029003F108000068800804D20D
:200348005868000C40F0F00000E07220D94FDA4C0193002587F84C02A4F1DC081846C1F8D3
:20036800FF5FD0F80CA058F8040CC0F3046000F03BFC00EB2A70401C162805DA10F10A0FED
:20038800B8BF6FF0090000E0152000F01F0040F4F850A7F864021068800828BF4AF0406A06
:2003A800C6494FEADA604FEA9A6580F0010000F00100086085F0010000F0010088605046CC
:2003C80000F04AFA00220446154600F014FC00B935462A46BA4D2B68002BFCD0DFF8E49298
:2003E80009F10809C9F810402E600AB100F009FC00F0C8FB80B20090B24840F2FF320023A6
:200408002C2100F0CDFA00F0E7FB044600F0F3FB4FF0000B00B9B3462B68002BFCD0C9F88F
:200428001440BBF1000F2E6001D000F0EAFB00F035FB044600F0DFFB4FF0000B00B9B34641
:200448002B68002BFCD0C9F80C40BBF1000F2E6001D000F0D6FB00F071FB044600F0CBFBC6
:200468004FF0000B00B9B3462B68002BFCD0C9F80840BBF1000F2E6001D000F0C2FB049882
:2004880000F0B4F9044600F0B6FB4FF0000B00B9B3462B68002BFCD0C9F80440BBF1000F86
:2004A8002E6001D000F0ADFB0499084600F02EFB844C4000403440F0200084F80901084691
:2004C80000F030FB40F0100084F80901084600F0D5FA039000F08FFB4FF0000B00B9B3461D
:2004E8002B68002BFCD00398C9F82000BBF1000F2E6001D000F085FB0499084600F02AFB64
:20050800400040F0600084F80C01084600F02EFBC00040F0800084F80101084600F03EFBAE
:20052800800040F47C40A4F89C01084600F094FA039000F060FB4FF0000B00B9B3462B68D1
:20054800002BFCD00398C9F80000BBF1000F2E6001D000F056FB4FF480002060D8F858007A
:2005680040F20F216FF31F40814215D9D8F80000D8F80030C0F30365C3F3034005B16D1E7A
:20058800072805D006280EBF0720801C00F00F0045EA001007F8080CCAF38140401E02D092
:2005A800401E28D024E0D8F8D000810C20D24FF480412160D7F80210420AC0F3033502F02B
:2005C800800221F08F010A4345EA0201C7F80210D7F80120031263F30302C7F801203968BF
:2005E80000F0E70521F0E70145EA0100386002E04FF0004020604FF40070206400F0E4FA70
:2006080040F03000334F84F8C800CAF3815088B3401E03D0401E20D002211FE0304600F0DC
:2006280067FA05460420294600F070F9042000F05FFA8542FAD10198056825F07F4000F051
:20064800F3F9384614300068036807214FF06022280E98474FF4806020600321042000F038
:2006680055F90EE094022243A83F00500000094044600C400420314600F048F9124800F0B5
:20068800D3F9D8F8B0001149114B47F6180500F03F0084F8CB0F3A460D8018681068C16843
:2006A80002208847402102980B4C016005B02660BDE8F08F0A60084098130050000020431F
:2006C80000800C4000A00C40BD37860070B00C402C200940A0010010940460421B4838B5A4
:2006E8000468B4F1FF3F08BF002400F063FA0025174818490560012008601749086000F0E0
:20070800DDF81648006820B1154800682046FFF7FDFD144814490560144C0A686FF35B425B
:2007280044EA0200086012490868C0F30130012806D10A680F48104040F400320A60086019
:200748000D4908680028FCD138BDC0461C130050840460425C600C400822044380012843CD
:20076800000120438C210840482003400000390104000940FFFFFCFC0C0068421A4898B58B
:20078800D0F8781203680F0F03F0FF03802B28BF002300F0E1F84FF0FF3478B1401E07D033
:2007A800401E012802D9801E19D01AE0BFB118E0381C12D0801E14D1143311E03846401E19
:2007C8000BD0801E07D0001F03D0401E09D1163306E0152405E0142403E00A2401E00A33E3
:2007E8005CB2204698BDC046A010005038B505461748184C2830241F01686068C1F3034262
:20080800C1F30353400812D22068040513EB247303D4102BA8BF0F2300E00023000412EBC5
:20082800207203D4102AA8BF0F2200E0002242EA031201F47F4001F0FF03222D40EA0242CE
:2008480043EA020024BF01F08041084338BDC04650130050B03F00500146174880B5006851
:200868008A0CC0F38367C0F38F2022D241F3072100290BD54A420021400805D17F0806BF6B
:200888000127381C4FF6FF70521EF5D1002910DD4FF6FF72400040F00100824207D2780098
:2008A80040F001070F2F92BF01200F27101C491EF0D140EA074080BD501300500F49086895
:2008C8000028FCD1104A131D0D49186820F0030001430C480068C0080CD2106810F0030F78
:2008E8000AD041F003001860106800F003000328FAD101E041F00101196070470C0068420F
:2009080004000020B03F0050004003407CB5114D04460E46600807D3B0B200210090012244
:200928000B46284600F03CF8A00807D3B0B20090002102220123284600F032F8E00807D3A5
:20094800B0B2009000210C220223284600F028F87CBDC04600A00C40104A1068C0F30F31BB
:200968004BF69A10884207D111680B20B0EB117F14BF0020042070472430884208BF01203F
:200988000BD04BF64130884208BF032005D0213888420CBF02204FF0FF3070471813005089
:2009A800B0B500EB4100102B04AF00F5007403D3103B00F50174120C3D889D4045EA024586
:2009C80000F019F9002700B90127064A394610680028FCD025600120106009B100F011F900
:2009E800B0BDC04600800C40F8B51E4614460D18102E02D3103EAD1C240C00F0FCF80027BB
:200A080000B9012707483B460768002FFCD02D88012101600BB100F0F4F82C403441A0B2B0
:200A2800F8BDC04600800C400949020480B5120C41F8082CC0F3074041F8040C0120086043
:200A480004480768002FFCD00020086080BDC04644600C4084088C43202838BF054808D35B
:200A680005480068000381158905C0F3093000030843704700803F4098130050202838BF68
:200A8800002008D3044848300068C10C01F44071C0F38450084370475013005005482430D7
:200AA80001680348084001F07C4108437047C046FCFCFC005013005008B5044B1B689B6942
:200AC8009847034A0021116008BDC046A801001084046042044908B5096849698847034A59
:200AE8000021116008BDC046A801001084046042042807BF4FF0C0421D234FF080521C23EB
:200B080001483421FFF770BF00A00C40222805D303483C300068C0F300707047012070472B
:200B280050130050222805D303483C300068C0F34070704701207047501300500448203078
:200B4800006800F47C010004000C08437047C04650130050202805D3034848300068C0F3EB
:200B6800015070470020704750130050222805D303483C300068C0F3C06070470020704739
:200B880050130050044908680968C0F3870001F0030140EA0120704750130050222805D366
:200BA80003483C300068C0F345507047002070475013005008B5FFF7CFFE18B9FFF7DEFD63
:200BC800162800DAFEE708BD02480C380068C0F3C14070479813005002482C300068C0F32E
:200BE8000D0070475013005001461628A8BFA0F1200108467047EFF3108072B67047002062
:0E0C08007047EFF3108062B67047002070470F
:200C1800002A4AD05FEA000C8B071CD1830722D1102A08D370B4103A78C978C0103AFBD214
:200C380070BC103238D0042A2CD3082A05D30C2A24BF08C908C008C908C008C908C0920772
:200C58002AD0920F22E00B780370491C401C521E22D08B07F7D1C30714D18307D8D0121F5A
:200C780012D308C903801B0C4380001D121FF8D20AE008C903701B0A43701B0A83701B0ADE
:200C9800C370001D121FF4D2121D05D00B780370491C401C521EF9D1604670470022134628
:200CB8000A46194671B510F0030F0BD0002A82BF00F8011BB2F1010210F0030FF6D1002A32
:200CD80008BF71BD11F0FF0141EA0121042A18D341EA0141082A0FD30E46102A08D30C4664
:200CF8000D46B2F10F0312F00F0272C0103BFCD812F0080F18BF42C012F0040F18BF40F85A
:200D1800041B12F0020F18BF20F8021B12F0010F18BF017071BDFEE71448B0B5B0F1FF3F70
:200D380001D000F08FF8124D1248A84210D01248124CA0420CD0001BC71054F8040B10F805
:200D5800011B55F8212054F8041B90477F1EF4D100F0EDF80A4D0B4CA54205D002E054F8C0
:200D7800040B8047A542FAD1B0BDC046FFFFFFFF8C0F0000980F0000B00F0000A00F0000B4
:200D98000000000000000000F8B540F6FF7C10F8014B00231DE0122F00F1010008D110F855
:200DB800015B2E0A24BF10F8016B66F3DF15EF198A1A521E12F8015B7F1E01F8015BF9D1A5
:200DD80003E010F8012B01F8012B5B1C6408082BDDDA6208F5D210F8012B057805F00F0705
:200DF8001201FF1C42EA25129445D4D1F8BDFEE700BF704708B5FFF7FBFFFEE738B50D4CE4
:200E18000546A06820B10C48B0F1FF3F00D080470A4800688047606810B10146284688473E
:200E3800206800B18047064800688047FFF7E2FF38BDC04614100020FFFFFFFF20100020BB
:200E580024100020F8B506460F4D104F7388002417E0A00000EBC400321851689068D268D8
:200E780052B9AF420BD00A7855F822200346491C08461946904701E0FFF7C2FE7388641C2E
:200E9800A4B2A342E5DCF8BD8C0F0000980F00000C4885460C4885446F4607208743BD4662
:200EB8000A486F46076000F041F800F03CF8002801D0FFF731FF00F00BF80120FFF79EFF99
:200ED800FEE7C046FC2B0020000100002C1000200449B1F1FF3F07BF0020011C0868091DA5
:200EF8001EF0B2BAFFFFFFFF0349086070470249091F0860704770472410002008B5FFF7A9
:200F1800E5FBFFF7C5BFFFF706FF08BDD0F80320C31D08461946FFF773BED0F803200846C7
:100F38000021FFF7BFBE01207047FEE770477047EA
:200F480000002000C215000000001000C214000000000800EF12000000000400EF1100009F
:0E0F6800000000000000000090FFFF000506E2
:200F780000350000040100800F0F0033013500FFF0000000A10D0000250F0000330F000005
:180F98000200000014100000780F000014100020980F00000000002089
:020000040001F9
:18F000004FF0200383F3118872B6024B9D4600F0B5B9C046F82C002087
:20F0180000B5ADF1140DADF802108DF800000020ADF804009DF80000010343484FF4805226
:20F03800E1F7EEFD9DF800008DF807003F480088411200EB915080128DF808003B49BDF84E
:20F0580002009DF808300988421000EB927001EBA001A1EB83218800ADF80A009DF8081058
:20F078009DF8070040188DF808009DF807008DF8060041E09DF807009DF80610884203D1CA
:20F09800BDF80200001D00E00020ADF80C000EE0BDF80C10244ABDF80400515C00F01DF93A
:20F0B800ADF80400BDF80C00401CADF80C00BDF80C00B0F5805F0BDA9DF808009DF806104F
:20F0D8008842E5DCBDF80A00BDF80C108842DFDC9DF808009DF80610884208D09DF80600F3
:20F0F800401C010310484FF48052E1F789FD9DF80600401C8DF806009DF808009DF8061003
:20F118008842B7DABDF80400002100F0E6F8ADF80400BDF80400002100F0DFF8ADF80400E1
:20F13800BDF8040005B000BD00000020061000200EB500F0BDF9B0F1FF3F58D04FF4F02073
:20F1580000900098B0F5F22F4FD800982849102200F05CF9264800884FF6FF7181423CD088
:20F1780023480088002838D02248214900880988884232D120480078FF282ED11F480078B5
:20F19800012802D10020019007E01C480078022823D14FF400300190FFE71A481849008894
:20F1B800098882000198890000F02EF815480088C0F393208DF808000D4A9DF808000021FF
:20F1D80000F0F0F80028D9D00B498020087000980749102200F024F9FFE7009800F5805098
:20F1F80000900098B0F5F22FAFD900F06AF90EBD00100020021000200F1000200E10002084
:20F21800061000200C10002000B5ADF11C0D0292019100900298000B03900299019840186E
:20F23800401E000B04900198C01C0190019880080190029810F0030F02D04FF0FF304AE0EB
:20F2580004980399884202D304981E2802D94FF0FF3040E00498039988423BD34FF4806041
:20F27800ADF8180003990498884203D1BDF80400ADF81800BDF80C0000F0ACF8E0B14FF048
:20F29800FF3028E0009805A9042200F0BFF810B14FF0FF301FE00298059900F0A9F810B154
:20F2B8004FF0FF3017E00098001D00900298001D02900198401E0190BDF81800411E002867
:20F2D800ADF81810DEDC0398401C0390049803998842C3D2002007B000BDADF1100D8DF89A
:20F2F8000210ADF8000041F22100ADF8040000208DF806009DF8060008282FDABDF800000E
:20F31800000C01D3012000E000208DF80800BDF800004000ADF800009DF80200000A05D334
:20F33800BDF8000040F00100ADF800009DF8080030B1BDF80010BDF804004840ADF8000001
:20F358009DF806009DF80210401C8DF8060048008DF802009DF806000828CFDBBDF8000073
:20F3780004B070470EB502920191009000F0A0F8B0F1FF3F13D000980199029AFFF744FF40
:20F3980000F09FF806490420086000F06DF800F065F8002000F04EF8E1F72BFCFEE70EBD4C
:20F3B800102108400EB50192ADF802108DF800009DF80000BDF80210FFF722FE019909888D
:20F3D800884205D10198019900884880012000E000200EBD08B5ADF80000BDF800000003EC
:20F3F800E1F770FB08B9002001E04FF0FF3008BD0EB5019100900099042201A8E1F754FB49
:20F4180008B9002001E04FF0FF300EBD0EB502920191009000980299019A00F02BF80EBDB4
:20F438000EB502920191009000980299019A00F030F80EBDADF1080D0090024900980860FC
:20F4580002B070470000084008B5FFF771FE41F210004168D0F800D0084708BD01490120BE
:20F4780008607047000100430149012008607047040100430EB50292019100900098019994
:20F49800029A00F080F808B1002001E04FF0FF300EBD0EB502920191009000980199029A16
:20F4B80000F014F808B1002001E04FF0FF300EBD08B500F027F908B1002001E04FF0FF3050
:20F4D80008BD08B500F0C8F908BD000000B5ADF11C0D0292019100900198002850D000F019
:20F4F800EBF80490049808B100204AE000F06CF90490049808B1002043E0009800F0FF00D6
:20F51800C0F58070059001990598884201D90198059002208DF80C000098C0F307408DF8C6
:20F538000D000098C0F307208DF80E00009800F0FF008DF80F0000990598401800900198CF
:20F558000599401A019000F094F903A80421E0F76FFE18B100F088F9002012E002980599F5
:20F57800E0F766FE18B100F07FF9002009E0029905984018029000F077F901980028AED13C
:20F59800012007B000BD00B5ADF1140D02920191009000F091F80490049808B100202AE008
:20F5B80003208DF80C000098C0F307408DF80D000098C0F307208DF80E00009800F0FF00CF
:20F5D8008DF80F0000F055F903A80421E0F730FE18B100F049F900200DE002980199E0F759
:20F5F800FDFD049000F040F9049A0020002102B9012101B1012005B000BD000008B500F08E
:20F61800A5F808B9002023E013481249086011E010481249006809780079884206D10D4837
:20F638000F49006809784079884208D009490868083008600748006800680028E8D1054867
:20F65800006802680021002002B1012101B1012008BDC04628100020480F0000101000201D
:20F67800111000200EB5AB208DF8000000F001F901216846E0F7DCFD0022002100B9012196
:20F6980001B101228DF8012000F0EEF89DF8010078B1C820ADF80400BDF80400411E002871
:20F6B800ADF80410F8D100F007F810B100208DF801009DF801000EBD0EB5114800788DF8E0
:20F6D800000000F0D6F8E0F7E5FD00F0CDF800F0D0F868460121E0F7ABFD02A80121E0F73C
:20F6F8007DFD019000F0C0F8019810B16FF0010004E09DF808004008E9D200200EBDC04610
:20F71800740F000008B50F481121E0F7D1FC0E480068C06B01460E20884700F0A5F8FFF7B4
:20F73800A1FF8DF800009DF8000018B1FFF766FF8DF800009DF8000008B900F08DF89DF8EE
:20F75800000008BD00093D00B40100100EB50F480068019000F08DF8042101A8E0F768FD2F
:20F778000090009818B100F07FF800200DE008480221E0F733FD009000F076F8009A0020EA
:20F79800002102B9012101B101200EBD700F00001010002008B500208DF800009DF80000FF
:20F7B8000A280DDAFFF72AFF08B900200AE09DF80000401C8DF800009DF800000A28F1DB25
:20F7D8004FF0FF3008BD00000EB50A4800788DF8000000F04EF801216846E0F729FD019038
:20F7F80000F042F8019810B16FF0020000E000200EBDC046750F000008B5B9208DF800009C
:20F8180000F037F801216846E0F712FD0022002100B9012101B101228DF8012000F024F856
:20F838009DF8010008BD0000ADF1080D00900349009A01209040086002B07047A020024068
:20F85800ADF1080D00900349009A01209040086002B070479020024008B5FFF7CDFFFFF73E
:1CF8780099FFE0F78FFC08BD08B50E20FFF7E8FF08BD08B50E20FFF7D7FF08BDAC
:20FFA80000008001100082FFFDFF58003AFFBFF3FFFFFFFFFFFFFFFFFFFFFFFFFFFFFFFFF8
:20FFC800FFFFFFFFFFFFFFFFFFFFFFFFFFFFFFFFFFFFFF00FFFFFFFF00FFFFFFC500C5FFAA
:18FFE800000000FF00000000FFFFFFFFFFFFFFFFFFFFFFFFFFFFFFFF12
:00000001FF
