:10100000FFFFFFFFFFFFFFFFFFFFFFFFFFFFFFFFF0
:20101000684100208189000059A7000059A7000059A7000059A7000059A7000059A70000ED
:1C10300059A7000059A7000059A7000059A7000059A7000059A700006FAC000089
:20104C002DE9F04F0820ADF1940DADF82C000126ADF82E600BA808F0DFFC7A4C9DF830008C
:20106C0020700D98A06004F138000AF042F941F2883204237449E06004F17C0007F0F4FA66
:20108C0000251F200621656008F014FA0820ADF80A00ADF80C008DF80460ADF8065031460B
:2010AC008DF8086001AAADF80E504FF47A70ADF8100040F2053001F0C1F940F2063002210A
:2010CC000DF1060201F0BAF94FF44270152104F1500201F0B3F940F20730092104F12C0295
:2010EC0001F0ACF94FF44470314602AA01F0A6F940F2113002210DF10A0201F09FF940F249
:20110C001230022103AA01F099F940F2133002210DF10E0201F092F94FF44570022104AA43
:20112C0001F08CF9D449032007F08AFF0620A02108F0C0F90720A02108F0BCF90820A02157
:20114C0008F0B8F90920A02108F0B4F9A846CDF81480B1468DF818904FF481608DF819908E
:20116C0004218DF81A8005AA8DF81B9008F088F94FF48060314606AA08F082F940F2024096
:20118C0031460DF1190208F07BF940F2034031460DF11A0208F074F940F2064031460DF1EF
:2011AC001B0208F06DF9032008F0A2FA042008F09FFAC248C24A132107F08EFE4FF0040A22
:2011CC000820C04EADF838003078ADF83AA080000F900EA808F020FC00280CBF1098281C01
:2011EC00B9498B46886038B109F010FAB74A0BF11400112107F070FE08F0C0FED04DE86079
:20120C0038B308F0BBFE05F10C0739682861E8B108F0B4FE686120B9386809F05FFD286988
:20122C0015E0E86809F0F2F9286909F0EFF9686909F0ECF9C34A05F12000102107F04CFEC3
:20124C0007E0C0462005002005B00000084609F045FD206AA86104F144000AF04AF80227E1
:20126C000323206152468DF81D70B7498DF81E3048468DF81F200DF122078DF81C0040469E
:20128C000A6809793A6007AA3971494603F034FF484649460DF11D0203F02EFF0220494699
:2012AC000DF11E0203F028FF032049460DF11F0203F022FF504605210DF1220203F01CFF19
:2012CC0005F1200704F11C002397B378CBF8040033BB04F1180096F801A096F8039070620B
:2012EC00182009F0A3F9071C1AD00421424609F0A1FE504609F07EF8387287F80990404676
:20130C00B87206F14803FB6006F158023A6106F12001796109F09AF98C4A394607F0CCFE7A
:20132C000C2009F083F9071C0BD0012104220AF018F804F12400B86009F088F9394608F08E
:20134C005FFE0120102108F0EDF90220102108F0E9F97F4942F22F0008F0C0FE05F10807E1
:20136C007C4E2297B01C2090083021900820ADF848000A27ADF84A704FF0FF33139312A803
:20138C0008F04AFB002840F0AE80002000900827ADF850700923ADF8523014A808F03CFBFC
:2013AC00DDF858800028CDF8008040F09780BDF854004FF00109102853D120789DF856107F
:2013CC0088424ED1474638884FF6FF71814218D03878B02845D1787816280CD17888082199
:2013EC0008F0A0FD38B9484608F062FE00984FF00009606135E0397907F1080009F0A0FA7A
:20140C002FE0788800092CD3676957B360787B88401C607097F804B02493102009F006F9A6
:20142C0007F1080A071C1CD00221152209F099FF2498388187F80AB0C7F80CA009F006F98B
:20144C00B54A394607F038FE0746162F09D0042F07D060694088002108F064FD384608F0DF
:20146C0027FE0098002839D0B9F1000F36D0404609F058FC32E0C04619B60000E068074664
:20148C0009F076FF38B938460AF018F8876809F031FC384600E000208046F8B107887F1E2B
:2014AC0016D07F1E17D187781FB1BF1E13D1022000E0002008A907F03BFA0CE0EC1200201C
:2014CC00C0BE0000600C00201C140020CCBE0000807803F0E1F9404609F0F4FBE06809F0A8
:2014EC0047FF0028CAD06088C10810D320F00400608009F095FF02200DF1210107F018FA78
:20150C0028B9032001210DF1210203F0F5FD206909F02EFF00287FF429AF206909F0CEFF22
:20152C00804698F808106878012915D0022940F0EF80B8F80A00D8F80C1001F093FDE7E08A
:20154C004015002040B800004EBF00001FB60000D1B50000901B0020B8F80AA0D8F80C7039
:20156C0008280CBF4FF000094FF00409209A7978387800EB01201080B878F97800EB01202C
:20158C005080387B797B00EB0120F081B88807F10803F080F888219A308119681160B87B87
:2015AC00307403F025FF60B3307C022804D0032818BF4FF4F02001D14FF4F22010211AAA36
:2015CC0007F06EFB06F008FBBDF86E00ADF85E00BDF86C00FF2808BF00201CA9ADF85C008B
:2015EC00096818A80160FF228DF86720BDF874008DF865009DF876308DF8663001128DF81F
:20160C0064104F44F978B87800EB01208010A88000236B801A462A70387A797AFB7800EB47
:20162C0001208200B978B87A01EB03218B10B3F5005F36DC002B34D0032804D0110B30D08A
:20164C00B2F5F83F2DD8B2F5805F01D0012828D0BDF85C304FF6FF71994208D03BB13F88C7
:20166C001FB1BB424FF0000200DA0122CAB1012814BF4FF400300020E861000BE8803078E5
:20168C00012802D003F0B4FE3070012804D05046022105F0B5FE3BE05046002105F0CAFF10
:2016AC0036E0E968504609F025FD40082ED350460821002209F036F907461F9737B323980C
:2016CC00229A102109F0F2FC08224089ADF87A20ADF878009DF85C303B70BDF85C101F9837
:2016EC00091241709DF85E108170BDF85E1018AA0912C1701168071D504639601EA909F061
:20170C006FFA18B11EA81B2109F01AF909F060FC404609F0D7FAFAE637B30000C6492DE9E9
:20172C00F04F0122ADF1140D0490A1F130000260BE480768002FFCD0C348DFF8F892C02206
:20174C004438039009F1080A0260DAF80000800806D2484601904068000C40F0F00002E0F9
:20176C007220CDF80490B24AB64D002782F84C024846A5F1D0060F60C76856F8040C0296F6
:20178C00C0F3046009F0AEFD00EB2770401C162805DA10F10A0FB8BF6FF0090000E0152079
:2017AC00A64E00F01F00114640F4F850A1F864023068800828BF47F04067A149F80EA5F1DD
:2017CC003C04BE0E80F0010000F00100086086F0010000F0010088602068C0F38363C0F303
:2017EC008F26B80C22D247F3072000280BD541420020760805D15B0806BF01231E1C4FF645
:20180C00FF76491EF5D1002810DD4FF6FF71760046F00106B14207D25B0043F001030F2B05
:20182C0092BF01260F230E1C401EF0D146EA034B0022164609F0D6FD08B901221646324629
:20184C00CD4E3368002BFCD0CC48012300F10808C8F810B033600AB109F0CAFD20682368F5
:20186C00D34CC0F3870140F2FF3203F0030041EA0021002388B200902C21A4F1400006F058
:20188C0087FEA5F110000068C0F30D0409F0AAFD4FF0000B08B94FF0010B3368002BFCD05D
:2018AC00C8F814400120BBF1000F306001D009F09FFDA5F11800D14C0068044000F07C4013
:2018CC00044309F08FFD4FF0000B08B94FF0010B3368002BFCD0C8F80C400120BBF1000F60
:2018EC00306001D009F084FDA5F11C00016801F47C0009040C0C044309F074FD4FF0000B55
:20190C0008B94FF0010B3368002BFCD0C8F808400120BBF1000F306001D009F069FDA5F1E3
:20192C0014000068DAF80020C0F30351C0F30343520814D24A46121D1268140511EB24710A
:20194C0003D41029A8BF0F2100E00021120413EB227303D4102BA8BF0F2300E00023049CDC
:20196C0043EA011300F47F4100F0FF02222C41EA034142EA010224BF00F080400243144657
:20198C0009F030FD4FF0000908B94FF001093368002BFCD0C8F804400120B9F1000F3060C3
:2019AC0001D009F025FD0498222832BF01202868C0F30070049B7E4C222B4FEA400040F025
:2019CC00200084F8090126BF2868C0F340700120DFF87092202B40F0100084F8090138BF7B
:2019EC00002107D348460168C80C00F44070C1F3845101438A4609F0F5FC4FF0000B08B9DF
:201A0C004FF0010B3368002BFCD0C8F820A00120BBF1000F306001D009F0EAFC049820285D
:201A2C0014D348460068C0F3015010E0940222430A600840A83F0050401009400000094003
:201A4C00000020438C13005044600C400020049B400040F06000222B84F80C0126BF28685E
:201A6C00C0F3C0600020222B4FEAC00040F0800084F8010126BF2868C0F345500020202BCB
:201A8C004FEA800040F47C40A4F89C0138BF6E490BD34846006801038A15920501F47C111A
:201AAC0000F00F00114341EA0031894609F09AFC4FF0000A08B94FF0010A3368002BFCD027
:201ACC00C8F800900120BAF1000F306001D009F08FFC4FF48000029E2060B06D40F20F2188
:201AEC006FF31F40814215D9304601680068C1F30366C0F3034006B1761E072805D0062891
:201B0C000EBF0720801C00F00F00554946EA001001F8080CC7F38140401E02D0401E32D034
:201B2C002EE00298D0F8D000810C29D24FF480414B4E2160D6F80210420AC0F3033302F0AC
:201B4C00800221F08F010A4343EA02013346C6F80210D3F80120061266F303021E46C3F80F
:201B6C000120316800F0E703324621F0E70143EA0100106007E0C04600800C4000A00C4011
:201B8C004FF0004020604FF4007020642868324DC0F3C14040F0300084F8C800C7F3815011
:201BAC0070B3401E06D0401E23D0022122E0C04640A00C40012008F0D1FE0646042031464B
:201BCC0006F0E0FB042008F0C9FE8642FAD10198066826F07F4007F0C7FF284614300068FF
:201BEC00036807214FF06022300E98474FF4806020600321042006F0C5FB08E0FCFCFC00EB
:201C0C000420012106F0BEFB104807F0ADFF02980F49104ED0F8B00047F6180700F03F0075
:201C2C0084F8CB0F2B460F8030681868C16802208847012740210398084C016005B02760FB
:201C4C00BDE8F08F9813005000803F40BD37860070B00C402C200940A001001094046042F4
:201C6C000A6008402DE9F04F0120ADF17C0DADF816000827ADF8147005A807F0CDFE002661
:201C8C003546D44C8DF808509DF818006070A6700798E0614FF6FF70A082384608F0C6FC3F
:201CAC005FEA00080CD00121122209F05AFB08F0CDFC02A90123C84A0091414607F01AFA82
:201CCC009DF80800DFF81483207032460123414604F1A800169006F0C7FC04F1CC00324605
:201CEC0002234146149006F0BFFC04F1F000324604234146139006F0B7FC042031461022B3
:201D0C00E07004F1480004F0B5FD04F158003146102204F0AFFD256226720720667204F1DB
:201D2C004805E67204F14802A07210211895022007F0AAFC04F1580004F15802102119908E
:201D4C00032007F0A1FC04F12000042104F120021C90084607F098FC04F18705179504F1C8
:201D6C003800159004F12C031A9304F168021B9204F132011D9104F13E051E9519E0A078CB
:201D8C00B4F84050B4F84230B4F84420B4F8461006280ED1ADF84250ADF84430ADF8462063
:201DAC001498ADF8481009F07AFC012010A904F01FFD0A20ADF82200ADF820704FF0FF357C
:201DCC00099508A807F028FE002840F0818130460190ADF828700925ADF82A500AA807F0F8
:201DEC001BFEDDF830800028CDF8048040F07081BDF82C00102840F05F8160789DF82E10D3
:201E0C00884240F05981454628884FF6FF71814200F04A812B78A23B00F02F812E3B40F0BB
:201E2C004B81A878B146002800F0FC80801E00F0D780401E012840F2A780801E5CD0401E32
:201E4C0023D0401E03D0083800F008810BE1139809F025FC01984578002D40F00481C18867
:201E6C00E1820189218340896083149809F06AF9002840F0F880A56A002D00F0F4802B680E
:201E8C00E08A218B628B984716E1B5F804A00A2008F0CCFB5FEA00090AD00121152209F0A5
:201EAC0060FAA9F808A008F0D1FB494608F0A8F815983146062204F0DDFCE6822683668375
:201ECC00A8796073149809F0EAFB139809F0E7FB4FF001094FF6FF706379A0824BB9A879D2
:201EEC00082814BF04200520A070484608F092FFB9E00320A070B6E06B78002B3ED1291D9E
:201F0C0015980A680260898881800623A3706889A082E889E082288A2083688A94F83E20CF
:201F2C006083E878012A207308D11F2006F0B6FF4FF47A714143149807F08AF995F803B0B9
:201F4C00B5F80AA0142008F071FB5FEA000900F08D800121142209F004FA89F808B02D1D65
:201F6C00C9F80C50A9F810A0042089F8120008F06DFB7E4A494607F09FF877E0687831285B
:201F8C006AD1267104201FE06B78002B64D1A878638AA178032812D02079657923B901284E
:201FAC0014BF6671267106E0054304D01698194607F04EF9A1780729E4D1062004E0062950
:201FCC0006D0257915B90320A0704FE00220FBE70720F9E7600C002061B3000021AE0000D7
:201FEC006B78002B38D1EB78A078E17993B9022815D0072813D0062802D1617901290ED198
:20200C0003280CD0169809F09DF840B9012008F001FF04E0179A484606F000F868706D7891
:20202C00D5B920E06B78BBB9189A0220102107F045FB199A0320102107F040FBED1C1A987F
:20204C002968AB8801600125838028461B9AA179A57005F0E3FF48B1A77007E0A888444A48
:20206C00102107F0FBFBB9F1010F25D1656A1DB32D680DB3A078A8471EE0687913281BD185
:20208C002889012808D1A07B022805D1139809F006FB06F059FA0FE0052006F0FFFE01462A
:2020AC00139807F0D5F807E06888C00B04D31C9A0420014607F002FB019D4DB1ADF838702E
:2020CC000320ADF83A00CDF83C800EA807F0A4FC208A6579217942082DD320F0010055EA68
:2020EC000103208227D06DB9207A657A8DF809001D998DF80A500A680DF10B031A6089886C
:20210C00998002E003208DF80900A07AE57A194A8DF8110006218DF812500DF1090006F08A
:20212C004BFC656A30B1A77025B12B6813B1296838468847208A810807D320F002001E99A4
:20214C002082304604F054FB208AC108FFF431AE20F00400A57B2082681E3FF410AE401E28
:20216C007FF427AE06F0F0F923E6C04629B300003DB6000031B600002DE9FE43A84C0F46C7
:20218C000546F80B80F02681B80880F0AD80B80F6ED2E07A00284FD138094FD30025012619
:2021AC0065706079667210B1284608F08FFA9D4809F0F4F89C492A4604F14C0009F050FA3A
:2021CC00A07901281FD1E079E8B9DFF86082266AD4F81490D8F8000070B108F0EFFEA0EBAD
:2021EC0009004346000B8619E0611868B6EBC01F28BF256208D2266204F1CC004FF0005135
:20220C0008F074FE31E0A67140F60900208794F8450000F0F00040F0010084F845006587AB
:20222C0094F8440000F0F00084F844008049E56304F138060E6018E0380914D2B80BC0F0DE
:20224C00E68004F1280009F028FA061C08D0706830B17568F068B6F9101000222023A847C9
:20226C0027F40057D3E00020E07227F00807CEE0704904F14C00002209F0F2F9E86840F661
:20228C00C411814215D1042008F068FB88B166697EB1A06968B908F091FEA061864226BF9F
:2022AC00801B401E801B000BE860E86800F58D70E860E07958B10220ADF80000684607F0D3
:2022CC00FBFF0026E671BDF80800A4F89C000120607020790026401C20711920267208F020
:2022EC0071FF27F0005792E004F13008404609F0D4F9061C65D0B06840F6030320251A46B9
:20230C00521C02E040686D1EEDB260B15DB101888B4218BF8A42F5D1F1682CC818312CC12E
:20232C0029C881E82900326A4FF00009C6F820907068C0B196F8240042F002020023401E0A
:20234C0009D0401E04D0801E08D14FF0805304E04FF0804301E04FF000534A467568F068BF
:20236C00B6F91010A847B4F93600401C6FF31F30E086404608F012FDF068B0F98C10B4F966
:20238C00362091421DD1217801291AD090F88E5095B9056885B1E1680968B1F1FF3F10D09C
:2023AC00254909686830B5FBF1F109F098F9F068683008F0F7FD04E080F88E90484605F0A5
:2023CC00F1F9404609F069F927F0020708B147F002071CE009F048F8014604F12C0009F077
:2023EC005CF90646356A084609F037F9A8080CD25EB1306AA8433062706830B12A46F068E5
:20240C00B6F9101075680023A84727F4804727B104F1CC00394608F069FDBDE8FE83C0466E
:20242C00D00F0020D15D00006DA400002C2E002000100440A541000094BF0000F8B5A0F20C
:20244C00013517460E46022D40F214818A4A8B498B4B2D1F0F2D04D9143D4AD0AD1E1CD08E
:20246C0011E0DFE815F0C300BC00F400E400B300AB000701A2009A00100010009200880060
:20248C0079006F006300282880F2F480022E40F0F180398807F00EF8F8BD012E40F0EA80A2
:2024AC0015462879012800F0E58051793878507181B9002800F0DE809078012800F0A98061
:2024CC00042800F0A680062800F0A380052800F0A080F8BD3878002840F0CC8090780328F4
:2024EC0000F0A280072800F09F80052800F09C80F8BD012E40F0BE803878012840F0BA80B2
:20250C00154605F1F00008F01DFE002840F0B2802C46002004F13E0104F06AF9002840F05C
:20252C00A98004F1CC0009F0BAF8F8BD022E40F0A18038880A28C0F29D80B0F5486F00F3B4
:20254C00998015E0022E40F095803888B0F5FA7F80F290800880F8BD022E40F08B80388824
:20256C000628C0F28780B0F5486F00F383801946891C0D4638E0022E7CD13888062879DBE8
:20258C00B0F5486F76DC1946F3E7012E72D1387802286FDA891F0D460EE0012E6AD13878B0
:2025AC00042867DA15460B3506E0012E62D1387808285FDA15460A352870F8BD012E59D166
:2025CC003878042856DA1546093506E0012E51D1387804284EDC154608352946DBE7022E14
:2025EC0048D13888154612352946B3E7012E41D11546687901283DD011793878107161B9C3
:20260C00002837D09078012803D0042818BF052830D1012008F0FEFBF8BD387850BB9078C0
:20262C00022818BF052825D108F05CFDF8BD154605F1870400211F22204604F01BF9394639
:20264C003246204603F0D8FA0020EE710EE0154605F1680400211F22204604F00BF9394662
:20266C003246204603F0C8FA0120AE713146224605F0D4FCF8BDC046600C0020A40C0020C0
:20268C00A00C00202DE9F04F0128ADF1140D40F0F280DFF81492D9F8DC00012840F0E98097
:2026AC000220C9F8DC0008F0CDFD0290012006F023F820B101210646C9F8DC10D5E008F030
:2026CC00A9FD03906E484FF00008C0F80080012008F044F9012818BFCDF8008004D140468A
:2026EC0005F0F8FA0120009066486E4CC0F800801934D4F8FF0F112008F086FE00280CBFCF
:20270C0046460126102008F07FFE08B146F002060F2008F079FE08B146F004060B2008F0A4
:20272C0073FE30B1584800685849006B0246088890470A2008F068FE0028404618BF01204A
:20274C004FF0805B0BF5DC7528B128685049006B0246088890474F48012707602868806947
:20276C00014646F0200088474B48076008F046FE00F001010191400815D2484808F0A4FDCF
:20278C008246BAF1040FF8D0BAF1010F06D1DBF8D801406802464148032190474049086834
:2027AC0020F003000860404600F080F82868D4F8FF1F806B8047019801280ED0BAF1010F1D
:2027CC0006D1DBF8D801406802463448394690473349086840F0030008602A4807602868B8
:2027EC0040690146304688470B2008F00DFE28B128682649C06A0246088890470A2008F097
:20280C0003FE28B128682249C06A024608889047204807600322C9F8DC201F4BC3F80080A8
:20282C002868406B0146304688470128F8D1042005F062FF124807601A48D4F8FF1F0168E3
:20284C008909FCD30098012802D1384605F042FA08F0CEFD082005F04FFF06460398C9F8F2
:20286C00DC7006F0C7FF04F06FFF029807F088FD02E0042600E00126304605B0BDE8F08F6A
:20288C000C40094000022243B8010010BAB80000B6B800002820086080010443004003408C
:2028AC002422084014100940601600202DE9F84FDFF8E8B10746ABF13500DFF8D4910068EC
:2028CC00800880F0D68007F0E3FC064677480830D0F8008000254FEA28725FEA985002F121
:2028EC0001020AD2C6F13E0016F10A0F4FEAE000D8BF08208242B8BF021C624BD3F87C01B2
:20290C00C0F3046008F0EEFC04461868C0F3044008F0E8FC12198246162A05DA12F10A0FE7
:20292C00B8BF6FF0090200E01522574B574802F01F0141F4F8511980006810F0030F18BFD8
:20294C000125C00828BF45F002050FB145F00405494691F90700301A052804DA8879A842FC
:20296C0008BF888865D0DFF82CE10F2EA6F10F0C25DB0CEB0610A0F1F00C4FEA2C27072F10
:20298C0088BF07273C46062C88BF06245EF82400042303EB84037446E3581B1A03F0FF045B
:2029AC00E80824BFC3F307200444A80824BFC3F307400444680828BF04EB136401E0002479
:2029CC0027465EF827E0E8080EF0FF0324BFCEF307200344A80824BFCEF3074003446808CD
:2029EC0028BF03EB1E63A4B2ACEB0727BAEB020004FB07F404F1800403EB1423D8BF012063
:202A0C00342208F0FF0742437A43B2FBF3F04FF6FF72824238BF101C802E80B2888005DA20
:202A2C0016F1800FB8BF6FF07F0600E07F26CE718D71194A12681F280A604FF0000208D32D
:202A4C0040F2FF11814206D24008521C8142FBD301E01F208880124F0F38000942EAC0027F
:202A6C0047EA0200CBF8FB0F0026CBF8FF6FBDE8F88F0D4F0B4E494608203760891D0870A6
:202A8C00BDE8F88F3C1100506E62084024220840382E00209C130050082009403500094047
:202AAC0000E7A48030100940FDFDA400AC3F00502DE9F0411C4615468C4208BF854282BFFC
:202ACC0000230022E5E0002C08BF002D0AD100290EBF00286FF000006FF0000100F0E1F83F
:202AEC00BDE8F0815FF000085FF0000E002C08BF8D429CBF2C1C0025070C47EA01470E0CD0
:202B0C00B44208BFBD429EBF5FEA044444EA15445FEA0545070A47EA01670E0AB44208BF66
:202B2C00BD429EBF5FEA042444EA15645FEA0525470847EAC1774E08B44208BFBD4200F2E6
:202B4C009380870847EA81778E08B44208BFBD427CD8C70847EA4177CE08B44208BFBD42AE
:202B6C0066D8070947EA01770E09B44208BFBD4250D8470947EAC1674E09B44208BFBD429B
:202B8C003AD8870947EA81678E09B44208BFBD4224D8C70947EA4167CE09B44208BFBD42E3
:202BAC000DD8E60146EA5566EF01B14208BFB84201D3C01BB14158EB08085EEB0E0EA601AE
:202BCC0046EA95664FEA8517B14208BFB84201D3C01BB14158EB08084EEB0E0E660146EA55
:202BEC00D5666F01B14208BFB84201D3C01BB14158EB08084EEB0E0E260146EA15762F010F
:202C0C00B14208BFB84201D3C01BB14158EB08085EEB0E0EE60046EA5576EF00B14208BF11
:202C2C00B84201D3C01BB14158EB08084EEB0E0EA60046EA9576AF00B14208BFB84201D32D
:202C4C00C01BB14158EB08084EEB0E0E660046EAD5766F00B14208BFB84201D3C01BB1414E
:202C6C0058EB08085EEB0E0EA14208BFA84201D3401BA14158EB08085EEB0E0EA34208BF87
:202C8C00AA423EBF2D0A45EA0465240A89D3734642461E4617460B46024631463846BDE8B1
:202CAC00F08170472DE9FE4F754C04F12408404608F0F3FC16460D46009008F0D5FB06F031
:202CCC000107B5F1FF3F01900CD1A06A20B9B4F93600401C05B202E0A06AB0F910500020A0
:202CEC0084F8A500A36AA81005EB507020F007002D1AE80000EB4510251805F59C75AB4277
:202D0C0000F086800098854249D000284FF003073FD04FF0000904F1A80BCA46006885428A
:202D2C001ED1584607F062FD00980768C0F800A00198009708F091FCB0080ED297F8240045
:202D4C0040F0040087F82400684608F027F8014608F10C0006F07EFC01E04FF0010983273B
:202D6C00B9F1010F03D00098006800900EE0009991F8240040F0040081F82400684608F07F
:202D8C000DF8014608F10C0006F064FC00980028C4D1832F25D0019808F05FFC21E004F1A2
:202DAC00A80007F023FDB0083ABF606A006800206062019808F051FC08F10C05009991F879
:202DCC00240040F0040081F82400684607F0E6FF0146284606F03EFC009808B1B008EDD2BB
:202DEC008327207A70B9274808F0D8FA022104F1CC0008F07BF8607801283DD0224808F062
:202E0C00CDFA39E004F1CC00022108F06FF833E0B00803D3606A00900023636295F82410DF
:202E2C000120B840084385F8240008F0F3F90446002F14BF1548164807F03EFA019808F0D6
:202E4C000CFCB00814D3009890B108F10C05014691F8240040F0040081F82400684607F072
:202E6C009DFF0146284606F0F5FB00980028EED1204606F0BFFC83273846BDE8FE8FC04619
:202E8C00D00F0020852100007957000001000204010001042DE9F843814608F0A3FA0021D6
:202EAC0000B901216B4E30680028FCD06C4D01242D1DEF6A346009B108F09AFADFF898819B
:202ECC00C7F3072008F1BC01086008F08BFA002100B9214630680028FCD02F68346009B1B8
:202EEC0008F086FAC7F38440C8F8C00008F07AFA0146002001B92046014630680028FCD08A
:202F0C00ED69346009B108F073FAC5F38120C8F8D000B9F5C061C8F8B81000F0968098F8C6
:202F2C00D80068B9C8F8D410D8F8C000C8F8C800D8F8BC70C8F8C470D8F8D060C8F8CC60F4
:202F4C00D8F8D410D8F8BC60002954BF02206FF00100454605F1C8031A6801EB41014018B3
:202F6C00411000EB917002EBA0021A60D5F8C810C5F8C46000291CDD1E293DDDD5F8CC005D
:202F8C0030B93429B4BF15391E21C5F8C81025E02A29BABFD5F8C8000B381E20C5F8C800DE
:202FAC00D5F8C4003F28B4BF401C3F20C5F8C4001FE0D5F8CC00032812D011F10B0FC6BF18
:202FCC00D5F8C8000B30201CC5F8C800D5F8C4000028CCBF401E0020C5F8C400032009E005
:202FEC0011F1150FC6BFD5F8C8001530201CC5F8C8000020C5F8CC00B5F8C400174E3021AF
:20300C004FF47F4208230090304605F0C1FA009404214FF400321123304605F0B9FAB5F892
:20302C00C80004214FF4F80212230090304605F0AFFAB5F8CC0020214FF440620A23009025
:20304C00304605F0A5FABDE8F883002088F8D800BDE8F88300800C406016002000A00C4054
:20306C0000A00C402DE9F04F0C46ADF11C0D6C4E61780490207800EB0120ADF80000718881
:20308C00BDF80000884240F0BF80F06940F6FF7700EB0110074204D1000BC0B2000304F0A3
:2030AC003FFABDF80000B179A21C000100EB0130102103F061FE7088401C81B20A467180C6
:2030CC00B188914240F09B805748801C028802904FF6FF770392974200F08780F088171C6B
:2030EC0000F083805FFA91F209010024C5B2871801F470435FFA87FA0594AA45A1EB030117
:20310C001FFA81FB28DBAAEB050101F10108A8420CBF04240024AA45D8BFA34516DD04EB24
:20312C00053004210DF1020205F0BAFD04270DF1020919F8011B059806F076FD7F1E0590E2
:20314C00F7D1241DA4B2B4F5805FE4DBF0886D1CB8F10108EDB2DAD10598002106F064FDAB
:20316C00002106F061FD039981423ED1029948800498002104F044F92B4C217C012908D0F9
:20318C00022908BF042005D00020032908BF012000E002203278012940EA020030700CBF97
:2031AC004FF4F0254FF4F225284604F0B9F9FF201021029A6074284603F0DEFDB07A31786E
:2031CC00401EB072C0B2A0B9480805D3B3690499032000229847317811F0060F09D01149A1
:2031EC00086840F00040086003E00498012104F007F90024347007F0EBFE74800DE00498C1
:20320C00114604F017FA08E000207080307007F0DFFE0498032104F0F3F807B0BDE8F08F60
:20322C004015002004000940901B00202DE9F04FADF1840D00F024FF05F062F900260128BF
:20324C0004D107F01BFD022808BF01265D490868C0F38150012806D151F80C0C0127010E34
:20326C0007FA01F006435848584F594D00783868C0F346072F6005F043F92C46012805D1D1
:20328C0007F0FCFC022804BF7F1C27603FB1FF2204F140013846401E01F8012BFBD14D487B
:2032AC0000684FF0000900F0FF01FE2919D0DFF824C100F0FF03494601229F427FD902FABD
:2032CC0003F31E427BD100F0FF00201880F840105CF8040F43EA0909491C00F0FF03FE2B2B
:2032EC00EBD1092001F0A2FC3A48002124220823606001A808F0EEF84FF0010804F1240092
:20330C0001AA8DF81C80414606F036FD236843B3002794354FF0040BBA4608FA07F0064225
:20332C0019D119EA000F04BF07F0FF0141F4C04105D0E019274990F8400051F820102648A8
:20334C0002F064F9F8B24FF0FF3107F015FB2368C5F800A001E0C5F800B07F1C2D1D9F42F6
:20336C00DBD30AA800213022082308F077F80025FF2010210AAB1290184A009504F108001C
:20338C0005F0D6FE16A828220823294608F0A8F804F1600016AA1C9511491D952B4605F0E6
:2033AC00C7FF104951F80D0C20F4F85040F4005041F80D0C4746C1F8FF7F0B4E376021B0C9
:2033CC00BDE8F08FB43F00506E230020801208409C2B0020D8B70000007FC767A1A9000082
:2033EC00F98800000D300940080009402DE9FE4F0D4681462868D9F80440D9F808700028D6
:20340C0000F0B68008F030F8D4F8881021B108F024F903202874ABE04FF0010B85F810B03D
:20342C00C4F8885008F019F994F8A40038B194F88D205149D4F89C00114306F035FB6E683E
:20344C0008F012F8804694F8D80050B916F0704F02D1042006F058FB022006F055FB84F842
:20346C00D8B0404608F0F9F8D7F80080D8F8040040F00200C8F80400D9F80830D9F804C092
:20348C0028681E689CF88C10009080B2B6F1804F00FA01F01FFA80FA14BF384E384EAF682E
:2034AC0038484FB99CF88C104FEA810E00EB0E018A690CF1A60109E09CF88C104FEA810E0E
:2034CC0000EB0E010A690AEB0701491EB2607160196843F6F07208310291009F31603901DA
:2034EC00B7680190103902EA010040EA0701B1601A68B2F1804F14BF234924496F682FB938
:20350C00019D7544AD6903F10E0605E0019D7544AD680AEB0706761E8D600E60029D4D609C
:20352C008D6828438860DCF8A070186959690143786800688162506A40F003005062D8F832
:20354C00140040F00100C8F81400207830B9616804F16C05284601F09FFC10B15846BDE898
:20356C00FE8F484601F010FA2846002101F094FC0020BDE8FE8FC046000006800005002016
:20358C0030040020A0B9000010050020400400202DE9F84F994692468B46064607F064FF4E
:2035AC005D4CB4F93620B4F934100AAF891A40F6F8720A40082A02DB08F04FF840E0B4F901
:2035CC003410491C6FF31F31A186B4F9348008F044F84046811000EB517121F00701401A91
:2035EC00C10001EB4011651806F1680007F0FEF805F59C75C5F808B085F812A0C5F80490F8
:20360C00EE604648A5F8108097E80C00202100271940104005F1180383E8030004F1240061
:20362C0085F824700368002B5AD1294606F012F848B9B4F9340000F6FF706FF31F30A0861F
:20364C006FF0010865E0A6F88C8007F00DFF86F88E70A17A41B1617831B10121E172A77232
:20366C00E7712179491C217107F0F7FFA06A00284FD1607800282FD1207A012849D007F043
:20368C00F3FE0646607A00BBA86804F0A1FE254A2349E3681268086040B9304607F0DDFF5F
:2036AC0004F1CC00042107F021FC32E00968DB6804F1A800C91AB1FBF2F108F010F804F13A
:2036CC00A80007F06FFC304621E0304607F0C5FF1549012008701CE0192007F073FD18E0A1
:2036EC0007F0C2FE0746294604F1240005F0B2FF002818BFA6F88C8008D1B4F934006FF0CA
:20370C00010800F6FF706FF31F30A086384607F0A4FF4046BDE8F88FD00F0020F1EFFF9F11
:20372C002C2E002094BF0000282E00202DE9F04304466668A7680D46ADF1340D07F094FE0F
:20374C003178012903D107F088FF0020A3E04FF0010886F8008007F080FF28787070687879
:20376C00B07068687060A868B060E868F06028693061287D3075687D7075A87DB075A8692C
:20378C00B061287F3077687F7077A87FB0774FF00009C6F82090C6F830904D46756275632C
:2037AC00B562B56386F82C50102386F83C3086F82D5086F83D50786801F038FA204601F057
:2037CC005DFD204602F0B2FA70B934480068C16838688847786801F0BFF907F045FE357072
:2037EC0007F03BFF2C4655E001A829463022082307F034FE0694387BCDF80090284A09907A
:20380C00B96801AB06F1680005F092FC01A829462822082307F064FE05942249386901AAB7
:20382C002B46079006F1840005F082FD01A829462422082307F04EFE8DF81C80B07838B97F
:20384C0006F1B800294601AA06F096FA16483061707838B906F1D400294601AA06F08CFAE4
:20386C001248F06001A829462422082307F01AFE0695ADF814500E49079406F1F0000A2251
:20388C0001AB05F083FF0B4A06F154000421234606F026FD20460DB0BDE8F083D001001096
:2038AC007D4A00002D860000F9B50000D9B50000B960000061B200002DE9FC415D4C564D7B
:2038CC00564EDFF85C81594F94F8E410481E0B2800F29F80DFE800F0772C43062343062380
:2038EC0043067260042907D001220A2945F8212C14BF0220032004E02021012045F8211CE5
:20390C00024684F8E200002045F8390C0827C5F8FF7FC5F8F37F45F8392CBDE8FC810529C8
:20392C0014BF09200620002584F8E40035606CE094F8E1700120383D002FC5F81B0004BFB6
:20394C000620002102D00021F160032084F8E400032045F8010C31603068800855D294F87C
:20396C00E400012503280DD00021404660220523009104F00DFE94F8E400062814BF0A20AD
:20398C000720D1E702200090002160220523404604F0FEFD0420C7E72249002622480E600F
:2039AC00012505600E2001F0D7F8022006F094F884F8E45084F8E360BDE8FC810020386095
:2039CC000C2578601FE01A48006800680146202088472C3D41F61D560F2000214FF4C07273
:2039EC00072345F8010C4046C5F803600225009504F0CEFD404600214FF4C072072305F0EB
:203A0C008FF90120386084F8E45004F1780007F0C9FABDE8FC81C04639400C4038600C40B1
:203A2C0000A00C402C500C4004800C4034600C40A001001060160020B0B5456884684F483A
:203A4C00297BADF1180D012916D0217E627E4C4B2F7E0143009143EA02010191494937F0D0
:203A6C00010718BF081CA27E1043029095F88D000322FF2811D00DE0677E217E3843A37EDE
:203A8C00019041F00041009143F000403E49029095F88D00014304220391FE204DF822005D
:203AAC00694605F1900002F0F5F8C5F89C00002808BF00205FD0287B344951F8200001289D
:203ACC002BD02068B0F1804F14BF22220A22217ED5F89C0006F0AAFA2068B0F1804F14BF37
:203AEC0021220922617ED5F89C0006F09FFA2068B0F1804F14BF24220C22A17ED5F89C00AE
:203B0C0006F094FA95F88D10FF2933D02068B0F1804F14BF23220B2228E02068B0F1804F83
:203B2C0014BF21220922217ED5F89C0006F07EFA2068B0F1804F14BF22220A22617ED5F8DB
:203B4C009C0006F073FA2068B0F1804F14BF24220C22A17ED5F89C0006F068FA2068B0F112
:203B6C00804F14BF23220B2295F88D10D5F89C0006F05CFA012006B0B0BDC046000480A0D8
:203B8C00004000800004C0A000200080A0B900002DE9F04304466568A7680E46ADF1340D5A
:203BAC0007F062FC95F8D910012903D107F055FD002084E04FF0010985F8D99007F04DFDF3
:203BCC004FF00008C5F888803069286170696861307E2876307B287330782870706885F8E2
:203BEC00A480686070694146092828BF494685F88C10387B01F01AF8204603F011FFF87E18
:203C0C0085F88D002046FFF717FF50B9387B00F0A3FF07F029FC85F8D98007F01EFD444640
:203C2C004CE001A841463022082307F017FC06947879CDF80080234A0990397901AB05F16B
:203C4C001C0005F075FA01A841462822082307F047FC05941C49B86801AA4346079005F11A
:203C6C00380005F065FB287878B901A841462422082307F02FFC8DF81C9005F16C004146FD
:203C8C0001AA06F079F8114800E0B068A86003F083F9C5F8A000287B012808D1D5F89C00D3
:203CAC0028B10B490160D5F89C0000B18460094A05F1C4000421234606F012FB20460DB0AB
:203CCC00BDE8F083C55A000069810000B1B50000F568000051B40000F8B5414C201D03680D
:203CEC00B3F1FF3F08BF002304F00AFC002876D13C4E20683468070F04F0FF04802C28BF35
:203D0C00002404F0FDFB4FF0FF3578B1401E07D0401E012802D9801E13D014E08FB112E0AD
:203D2C00381C5CD0801E0ED114340BE03846401E55D0801E53D0001F51D0401E03D11634C9
:203D4C0000E00A3465B2162D49DB27482749002501270560264E0F60264C3760206800288E
:203D6C00FCD1274A161D2449244F306820F0030001433868C0080CD2106810F0030F0AD04D
:203D8C0041F003003060106800F003000328FAD101E041F001011B483160006820B11A484F
:203DAC0000681846FDF7BAFC184819490560194F0A686FF35B4247EA02000860164908681D
:203DCC00C0F30130012806D10A681448104040F400320A60086020680028FCD1F8BDFEE786
:203DEC0018130050A0100050840460425C600C40082204430C00684204000020B03F005080
:203E0C000040034080012843000120438C210840482003400000390104000940FFFFFCFCA6
:203E2C002DE9F0430746880FADF1140DC0F08680494D454B434800261C352E605C1D45F868
:203E4C001C0C207810B1012006F040FC434807F0A5FA40F60A08B146194601F138024E87C2
:203E6C00BC68A2F8008091F84530C1F83C90107B668000F0F000107303F0F00040F001008D
:203E8C0081F8450000E01C46636813B118888045F9D16260607B00F0F000607301F12400F2
:203EAC0007F0FBFB806803884046C01F98421DD0401C98421AD03B8BCBB197F8240097F8C6
:203ECC002530C7F81C9000F0F00087F8240003F0F00040F0010087F8250007F11803CB639A
:203EEC00507B7E8300F0F000507300E04E611748016883680193C368406B00911022694629
:203F0C0020F0784040F0805003901148029301F073FE28680028FCD02E60012006F01EFDA6
:203F2C00012808D0607B00F0F00040F001006073084807F033FAB86845F81C0C05B0BDE862
:203F4C00F083C04601010E04D00F00204C13005018000021357D0000001004408521000035
:203F6C002DE9F04F0C464549CA7AADF12C0D84460592487B09900D7900958A7A488B4B8A61
:203F8C000E7B91F805A091F802800492B1F846E008904A7A088B0392CD7807900A7AC88AB8
:203FAC0002920F6A0690CA79888A01928A79E146A9F54079B9F11D0F10D8DFE809F05B55BB
:203FCC0053514F4D4B494643413F3C3A380F34312E2B2923201E1C0F19181716BCF1280F86
:203FEC0049DA604604F05AFF21E0099EB246D046CDF814801DE00898079007980690DDF852
:20400C0018E005E03831086820608888A08032E070460AE0B1F8440009E0B1F8420004E0D7
:20402C00B1F8400001E091F83E00034612E0208021E0059804900498039001E03231E2E79A
:20404C00039802900298009006E0019A87310DE068310BE01846EAE7009D0BE02C31D2E786
:20406C00276008E0583100E048311022204601F0C3FD00E025700BB0BDE8F08F600C0020BA
:20408C002DE9F041434C94F8E700ADF1280D00286CD1384F387B01250021242284F8E75019
:2040AC00082384F8E60001A807F0FCF9002604F10C00069601ABADF814602F4907963246BD
:2040CC0005F064FB2D4904F1300001AB324605F05DFB2B4904F1540001AB324605F056FB4D
:2040EC00B868014628468847DFF89C8025487B7B0078D8F80410C1F381571BB1032F03D100
:20410C0084F8E150032F16D0022F14D0012F26D103201E4C009031464FF040521C23204688
:20412C0004F036FA009531464FF400720923204604F02EFA13E0022005F0E6FC032F0CBFF7
:20414C004FF47A7142F21071114800685434B1FBF0F1204607F0C3FA204606F023FFD8F832
:20416C000000C00802D2304605F0CEFC0AB0BDE8F081C04684BE0000F76300002960000067
:20418C00816700006E230020B03F005000A00C4094BF000060160020F8B506F0E7FD404E51
:2041AC003E4F0446A00823D3B96A09B33D4600208B690A6AA86204EA0300104340F0020014
:2041CC0006F1080208628B6910689843106001F1180090E80C0030681A1C9043306005F1FC
:2041EC00300005F037FA022105F1CC0006F07EFEB86AA10815D200F118020CCA00212240F0
:20420C000B40002B08BF002A0BD08169056A0C40F8622C434FF48041046207F1CC0006F0BE
:20422C0065FEB86A002837D107F12404204607F034FA051C30D0F868E968884226D1A8686F
:20424C0004F0C6F817490860E0B906F10801A8690A6810430860326805F1180393E80300D8
:20426C00081C1043306000233361A86846F80C0C06F1100000680028FAD0204606F08EFDC6
:20428C00BD62F8BD086803F08DFAF8BD07F1CC004FF4805106F02AFEF8BDC046D00F0020EF
:2042AC000C1004402C2E00202DE9F0430746ADF11C0D07F02DF905F0DFFB4FF0000906463B
:2042CC00CDF8009007F0C4F830F0010002D00098B04202D16FF0040066E078684C4658B156
:2042EC00B0F1FF3F05D001A905F0AEFB30B1804659E04FF0FF3000E02046019006F066FA3B
:20430C00019D4FF001082D1802E00A463BE001937068019900F0C0FD00282DD003A803F0A3
:20432C0085FCD8B99DF8100002A905F0DDF888B9BB68BDF808009DF81210059A984748B1F6
:20434C00BDF808009DF81250B881059BBD73C8463B6111E00599684605F026FE0198641C7B
:20436C00B0F1FF3FD4D00028D2D006F02FFA2B1A02D001989842CAD2009F06F03EFC06F1D9
:20438C00080547B13A4652F80C1C0029BDD1296842F80C1C2F6006F0D9FD24B1706802F076
:2043AC009DFF641EFAD1404607B0BDE8F08370472DE9F84F0F460146D1F808A04E6838465E
:2043CC00203862D0401E5CD0401E57D1307B92F80080012814BF324D324DB8F1FF0F45EAA2
:2043EC0008050AD196F88D10FF2903D0D6F89C0003F064FEFF2080463DE0D6F89C704FF0C9
:20440C00FF34002F49D028480168EAB2914244D9834621460BF12400814600F03DFDE8B2D5
:20442C000BEB800BDBF8940070B97B68E9B2012088401E49CBF894702A46184378603846A9
:20444C0005F00AFE002700E00127484602F046FF1FBBDAF80000B0F1804F14BF23220B22FE
:20446C00D6F89C00414605F0E1FDD6F89C0096F88D1003F023FE86F88D800DE06FF00104E7
:20448C000BE0002486F8A44007E0317B0020012908BF012086F8A40000242046BDE8F88F02
:2044AC000004C0A0002000809C2B0020007FC7672DE9F04707467D68D7F8089090460E4648
:2044CC0006F0D2FF8246A86A002864D105F1F00006F08CF90024EC772E6250466C6207F0FF
:2044EC00BCF806F0C1FF2F4E3378824623B9022005F00AFB01203070504607F0AEF82A49F7
:20450C00086840F4807008603846414604F048FFA862C0B93846414603F048FEA878D0B9E9
:20452C00A96805F1B80000F0B7FCE8B9AC621020E8774946284601F01BFA06F095FF82467A
:20454C00307840B323E0D9F80010886B40F020008863A87810B12046BDE8F087A96805F138
:20456C00B80000F099FC10B1686ABDE8F0873846414603F01BFE1020AC624946E877284698
:20458C0001F0F6F906F070FF8246307818B1022005F0A2FA3470504607F05FF84FF0FF30E8
:2045AC00BDE8F0876D230020301000403D4A10B501469068046806F04BFF2070086A2061E9
:2045CC00486A6061886AA061C86AE06108682062486860628868A062C868E062086920633A
:2045EC00486960638869A063C869E063086B206401F140006064486BA064886BE064C86BC5
:20460C0020652078B8B1401E12D0401E06D0401E1CBF0023181C16D1002011E006F078FF9F
:20462C00606006F075FF036A06F072FFC0690AE006F062FF04E0206D00F0FF0006F0BAFDF9
:20464C00606090695369E060D168A360096851B1401EB0F1FF3F06D0401C13F8012B401EE6
:20466C0001F8012BF9D10E49D1F8040D91F8283DA365606591F8292DE265B1F82A3D236694
:20468C00D1F82C2D6266D1F8303DA366D1F8342DE266D1F8383D2367D1F83C2D626710BDE3
:2046AC0000E000E0E4190020F0B5ADF1340DFFF7E7FC334908682822082340F002000860B9
:2046CC0001A8002106F00CFF2E4E2F490524002301AA079406F1CC0004F02AFE002130222B
:2046EC00082301A806F0BAFE0025FF271921274AADF81C5001AB099706F14C00009504F00D
:20470C0017FD2822082301A8294606F0E9FE2049079406F5807001AA2B4604F009FE01A860
:20472C0029463022082306F099FE0124ADF81C40099706F168001A2101AB164A009504F0FF
:20474C00F7FC15492A4606F1A800134605F01EF8124806F023FE03F0D3FE2B46012808BFF3
:20476C00231C86F8A550B57135727572B572F572F47173714FF6FF70A6F89C000DB0F0BD98
:20478C0000200940D00F002069AE00006DA4000045530000897D000011AA00007957000054
:2047AC002DE9F84F00298346009106DD024600980021401E42F8041BFBD10098DFF8C880EF
:2047CC00DFF8CC900028C8F800B012DD2F48009C0768002537F8020B38B1D9F80000AE00C8
:2047EC003158002088474BF80600641E05F10105F0D1284F41460120D7F80080C880B8F14E
:20480C00000F22DD4FF0000A00980127002817DDABF104060446002556F8040FB0F1FF3F04
:20482C0004D0D9F800106958884730600021B0F1FF3F08BF01212D1D641E01EA0707EBD12D
:20484C0037B90AF1010AC245DEDB04A006F0BAF90D4900200860BDE8F88FC0467864632ECC
:20486C0072756E74696D652E537461727475703A20276D617850617373657327206578634A
:20488C00656564656400C046A41C0020FCBF000000C00000F8BF000010B5401EADF1300DFF
:2048AC003FD0C01E36D0401E37D0401E61D106F0B7FD00208DF80400082005F0B7FE041CBF
:2048CC000CD00121182206F04CFD05F0BFFE01A90123294A0091214604F00CFC102005F049
:2048EC00A5FE041C10D00121192206F03AFD9DF80400401E208102AAE26005F0A7FE1F4AF6
:20490C00214604F0D9FBA0B307A940F21530FFF727FB2EE01A4806F0C2FE142005F0C8FBB8
:20492C0027E04FF4417009A9FFF71AFB9DF825408DF809409DF826308DF80A3000228DF89A
:20494C000C209DF829108DF80B209DF824008DF80F109DF828408DF808009DF827308DF849
:20496C000E4008498DF80D3002AC22680A60606848600CB010BDC04653B3000045B300002B
:20498C009C050020571200202DE9F84307467C68BE6806F069FDD4F8881000295FD006F00B
:2049AC005CFE3168486820F0020048603168486A20F003004862D4F8A0507069316908430C
:2049CC0069680968C1F804053168486920F001004861306801250562384605F095FCD4F8CE
:2049EC008800D0F8048006F03FFD814694F8D80058B118F0704F02D1042005F06DF8022037
:204A0C0005F06AF8002084F8D800484606F025FED4F88810087C042803D003200874D4F8C6
:204A2C00881032697069D4F8A0301043854058680068C5623068B0F1804F14BF0A480B48DB
:204A4C000E68806800258204A6EB9250401E08603846A268C4F888509047BDE8F88306F0FF
:204A6C00FCFDBDE8F883C04600050020300400202DE9F8430746D7F80880D8F800007D68E8
:204A8C00066C16F4F06F466425D1F00911D2700951D395F83C00AC6B401E844288BF041CAB
:204AAC003846214604F0EAFAA86B001BA8630DD041E0A96B384604F0E1FA95F82D10A863C0
:204ACC0011B9002837D101E00020A86305F1840004F01CF82FE0F00A0ED3D8F80000002167
:204AEC0044684160A96B04F00F04202988BF2021384604F0C3FA1AE04FF000094C4602E08C
:204B0C00A86B401EA863A86B88B13846012104F0B5FAD8F80000446814F00F04C0F804909F
:204B2C00EED0286B401E2863686B401E6863EC77384602F0FBF9B0090BD3A96A49B10E4674
:204B4C00384604F02DFCA86218B93846311D03F02DFBBDE8F88370472DE9F843044606F084
:204B6C0083FC81462D48021992F8ED10491ECFB2002F82F8ED704BD12B4D05EB84052E782B
:204B8C00698836F07F0788461AD1F10911D24FF08054D4F8B801806901464046884704F5C0
:204BAC00DC742068406B0146404688470228F8D121E000EB8800D0F80011002088471AE0A1
:204BCC004FF08054D4F8B801006A014640468847D4F8B801806A014640468847D4F8B8019B
:204BEC00006B01464046884701210D4A0D48116001688908FCD306F03F003F2801D0FFF737
:204C0C00ABFF687800F03F003F2801D0FFF7A4FF484606F022FDBDE8F883C046601600209F
:204C2C0028200860282008408CB800002DE9F041064606F019FC2D4D8046A91991F8ED00CE
:204C4C00421C002881F8ED204AD1294C04EB8604277807F03F003F2801D0FFF7E7FF607872
:204C6C0000F03F003F2801D0FFF7E0FF668837F07F001AD1F80911D24FF08054D4F8B801F1
:204C8C00406901463046884704F5DC742068406B0146304688470128F8D121E005EB86055D
:204CAC00D5F80011012088471AE04FF08054D4F8B801C069014630468847D4F8B801406AA4
:204CCC00014630468847D4F8B801C06A0146304688470121074A0848116001688908FCD304
:204CEC00404606F0BAFCBDE8F081C046601600208CB8000028200860282008401EF0040F1F
:204D0C0014BFEFF3098169468869EFF3118102B400B5DFF8A4E0F047DFF8A8E0DEF80010F2
:204D2C0001EA0000CEF800005DF804EB1EF0080F03D101BC80F31188704704BC1EF0040F18
:204D4C0014BFEFF309816946A1F1200114BF81F309888D461B4B1868086040F201101860F2
:204D6C004A604FF08070C86117488861704702B401B4EFF3148100291CBF002282F314880D
:204D8C0002B402B4DFF834E0F04701BC01BC00281CBF022181F3148801BCDFF824E0F047FA
:204DAC0004484FF08051016001BC80F3118800BF00BFC04604ED00E02D7F0000E1B50000CA
:204DCC0061B60000041A00207B4D00002DE9F0412C482B490860FEF729FA04F01DFA2D4C77
:204DEC000025032004F1180141F80C5F401E8D60FAD1241F062004F14C010A46401E22F824
:204E0C000C5BFBD10820204F204E0880204A8F60311D21F00303D71A6762E3612362E66936
:204E2C0004F120089446184601E026F8025BB242FBD8BA104FF6FC7700F1E80600EB82021E
:204E4C00394022F8045CACEB01016661E8221A8007EA0103EC3BA0F8E830284601F0C6FA64
:204E6C00A061D8F80000606101F0BEFF03F038FF02F002FA06F096F92846BDE8F081C046BF
:204E8C00C81C0020B588000099A60000402E002068410020701700202DE9F0410D460646A2
:204EAC00B5F1FF3FADF1380D09D045B12B496B4605A82A4605F050FA05A9022001E00021FD
:204ECC0003200391264F8DF8100038682024EFF31188371884F31188708980BB002D04BF23
:204EEC0088F31188002036D006F0ACF9064606F00FFB0290C0F818D004F096FC38466946A0
:204F0C0006F0E2FA9DF810000025022802D1039802F016F988F31188304605F031FAEFF3C4
:204F2C00118384F31188039810B106F0D6FB03950298856183F311889DF810000BE07089EE
:204F4C00401E7081039818B106F0C7FB0020039088F3118801200EB0BDE8F081F1A100008C
:204F6C00B8BF00002DE9F04115460446A869A060686A98460E4608B92A4800686062286ABE
:204F8C00002806BF28480768071C06F079FAEB69A3B9002808BF391C03D03F1841427F1E6F
:204FAC0039400246E161606AE169434602F02AF82062206AB8B90120BDE8F081002804BF92
:204FCC002362391C0BD01B1841425B1E01EA030020623F1AE869C019E061E0690140E161E1
:204FEC004FF0FF306062A6622869E06268692063A86A6063A88DA087A08F012803D10B4995
:20500C00C868401CC8602046414601F0F5FA0346404605F09FFD002814BFD81C0020BDE8EF
:20502C00F081C046CCBF0000D0BF0000A019002070B5304C0646A078002859D0B4F93600C1
:20504C00B4F93410884207D0B6F98C10304602224FF0E04300F0E2FB06F006FAE178002926
:20506C0037D0491EC9B2E17099BB06F0F6FA0025A570607840B1284602F094FB06F1300097
:20508C004FF0FF31FFF708FF06F1300006F02FFB06F1680006F01DFB04F1CC0006F029FB09
:2050AC0004F14C0006F007FB04F5807006F021FB04F1680006F0FFFA04F1A80006F009FBCD
:2050CC00E5602570307C012812D10E20FFF744FD70BD06F0C2FAE068864204BF0020E060BB
:2050EC0006F1300006F003FB06F1680006F0F1FA70BDC046D00F00202DE9F84F2E4B002819
:20510C0052D0401E4BD0401E44D0401E0BD0401E4FD105294DD1106819460C310860177967
:20512C000F71BDE8F88F012943D1194610788F68002FC8703DD0214802780024984682467A
:20514C00A24236DDA00037F800904FF6FF763D184E451AD0AE78C6B108F1140008F10302B9
:20516C00112105F0A3FF5FEA000B0ED0700804D3484601215A4601F02FFCA878800804D3EE
:20518C00288802215A4601F027FC9AF80020641CE4B2D5E701290CD11946891C07E00129DC
:2051AC0007D11946491C02E0012902D1194610780870BDE8F88FC0461C140020600C0020FB
:2051CC00F8B506F00FF906F019F9044604F00C000C2845D0E0081ED204F0C2FF234E3768E0
:2051EC0005460120014605F06FFB31686943884211D21F4C8220B0FBF7F0291A204606F061
:20520C006EFA204605F0CEFE0120FDF73BFA204605F0ECFA25E0200922D21648610939BF86
:20522C00016821F00101016841F0010102460160D2F898004FF0805440F00300C2F89800A7
:20524C00D4F8B8018069014620208847D4F8B801094C806B2168804701202060206800E060
:20526C0030BF06F0C5F801F003FFF8BD94BF00006C1600208C2108402C200940F0B52B4D3C
:20528C0005F12C0158C9ADF11C0D02AA58C20AC94FF0805682E80A0047688468D6F8D0019B
:2052AC00C16820688847216821488A6B10408863206840F2F271416497F83C0097F83D10D7
:2052CC00C0100DEB80008068084321684863684605F058FFD6F8D001397F466805EB8101A2
:2052EC00BA698B68797F206855F821101943BB7F05EB8305AB690B430199B0470D490A1F0E
:20530C00106840F010001060086840F001000860A07D0027FF2802D0E07DFF2800D11FB1EE
:20532C00086840F44040086007B0F0BD24B900000DF8FFFF301000402DE9F04106F094F848
:20534C00DFF8A8800646D8F8A00010F4602F2AD0400CC4B2600807D2A00803D2E00828BFAA
:20536C00022402E0012400E00024651D68B202F059FDD8F8A07004F111010120884027EA2B
:20538C0000013046C8F8A01006F067F908EB8400D0F88C7057B1D8F88800294600224FF059
:2053AC000063B84702E0304606F057F9D8F8A00020B108F58070002105F098FD98F8A500D3
:2053CC00800810D3D8F898703FB1D8F888006FF0010100224FF00043B84798F8A50000F00D
:2053EC00FD0088F8A500BDE8F081C046D00F0020F8B52A4C04F1180004F1100100F04AFCF8
:20540C000028606008BF002047D004F12406304605F0E8FD002584F8245021486063314673
:20542C0084F83050284604F087FB2F46E06000B10127002830D0AB208DF8000005F092FEF5
:20544C006846012104F0C0FB2F4600B9012705F081FE1FB102F092F800B12F46C7B103F01A
:20546C00FFFC002808BF2F1C14D004F1440000E0083007683FB1017922789142F8D14179ED
:20548C0062789142F4D1A060006800B101252F46012F01D002F0A0FB3846F8BD00180020E1
:2054AC0000093D002DE9F0412A4C0546A0781F4616468846ADF1300D012803D0FFF7F4F832
:2054CC000120A070B8F1000F09D0C5F8048036B1AE6005F0C9FFE17819B106F0BEF800201C
:2054EC0033E0491CC9B2E17006F0B7F801241FB9684605F01FFE6F46386828607868E860F5
:20550C00387A00217822287405F1180001F0B2F903A800212422082305F0DCFF8DF82440D6
:20552C0005F13000002103AA04F026FC03A800212422082305F0B6FF0549099505F1680024
:20554C00002203AB04F022F928460CB0BDE8F0810DB60000D00F00202DE9F041456887687B
:20556C0014460E4605F080FFA96B29B106F075F84FF0FF30BDE8F081AC632E630024EC7701
:20558C006C6306F06AF805F06FFF1E4E8046307820B9022004F0B8FA01203070404606F0BD
:2055AC005CF81949086840F4007008603968886B40F4FA6088636878002818BF201C1ED196
:2055CC00696805F1D400FFF767FCB8B9AC633968886B20F4FA60886305F046FF074630782F
:2055EC0018B1022004F078FA3470384606F035F81027696B286BEF77401A2863686BBDE8A8
:20560C00F081C0466C23002030100040F8B50D46EEB2290824BF25494D40254AB300D158DE
:20562C0085EA01040440C4F3006C224C00EA050781433C4000F4E0272143B7F5E02F01D1F3
:20564C004C0E15D300F4E0245CEA040710D001F4E027B7F5A02707D0B7F5803704BF21F452
:20566C00003141F4A02103E021F4803141F4C021114CD150C10D04D3A4F18001C5F3805275
:20568C008A55000E11D305F0EFFE290E03D201210022B14002E00121B1400A4650342368B6
:2056AC008B431A43226005F0D8FFF8BD006000A000100840FF7F077F802002402DE9F0412B
:2056CC000E46294990461C4606AF8C4672680878BB8851783F881278002502EB012242F615
:2056EC002321521A29D0521E052A18D9921F0CD0263A34D1072F30D8C7F10700984298BF45
:20570C0083B2674407F1080121E0B84225DBC01B9842D8BF83B22380DCF804000BE0F06862
:20572C0005F07EFC80B2B84217DBC01B9842D8BF83B22380F06839180AE0082F0DD8C7F145
:20574C000800984298BF83B207EB0C010F31238040461A4600F050FA03E0072501E0258038
:20576C000A252846BDE8F08148120020042998B545D1294C04F1240005F08FFF40B994F8CA
:20578C00A500400838BFE06804D3D4F8880000E0C068E06041681A4A09781160406811683E
:2057AC00007888422AD1022004F0AEF91120FFF73DFA01202072E168087C10B1A079012802
:2057CC0003D00E20FFF732FAE16849680D488F680FB9CF681FB10021C1610B4F07600B4A2C
:2057EC0040F2FF7111600027876109494161094805F0D4FD192003F045F998BDFEE798BD77
:20580C00D0210840001004405100070600000460020000400D780000D00F0020F8B51F4655
:20582C0016460C46054605F0F5FC2549B1F93420121B04D4B1F93620A24204DA0CE0B1F9B4
:20584C003620A24205DAB1F93620B1F934309A4202DC03F0CFFF30E0A21004EB527222F013
:20586C000702A41AE20002EB4412891801F59C74214691F8242012F0070F17D1114A4B6847
:20588C009A4202D04B68AB654A6005F1500181E8C00003F0AFFF05F130004FF0FF31FFF745
:2058AC00FBFA05F1600494E80300F8BD03F0A2FF94F8240010F0070FFAD102200021F8BD3C
:2058CC00D00F0020098200002DE9F84F804608781C4616460AAF022831D02348DFF88C908F
:2058EC00D1F804B08569102282464946584604F0C9FD002740B9002D33D08AF8014001201C
:20590C0041463246A8472CE009F110015846102204F0B8FD10B925B30220F1E709F1200147
:20592C005846102204F0AEFD90B9012C05D13078002818BF8AF80A0013D1802711E0486841
:20594C004278007842F6021500EB0220854201D00A2706E0388832460090404601F0F0FCD3
:20596C0007463846BDE8F88F401500204CB8000070B50D4629680646886B20F02000886348
:20598C0023482C7D0168A14213D900EB8400F36CD0F894108B420CD105F066FD1D4AD0320A
:2059AC0013680121A1408B431943116005F055FE2C7DF06C2146012203F018FEF06C297DE0
:2059CC00002204F033FBF06CA97D002204F02EFBB078012806D006F1B8004FF0FF31FFF77B
:2059EC005BFA03E0296888690009FCD2F06C297D102204F01BFBA97D0020FF2902D0EA7D25
:205A0C00FF2A00D118B1F06C112204F00FFB70BD9C2B0020002002402DE9F843254C0746A5
:205A2C00E06890460E46B84218BF03203BD102F0CFF9051C36D405F017FD1C4B814605F0D7
:205A4C000F0046EA002626F0030143EA0100C4F8840004F031FC00F0FF0001281AD1700BAE
:205A6C000FD305F10C010120114A84F8A450884094F8A56011688143116046F0040084F88C
:205A8C00A500C4F8887004EB8500C0F878800127277004E0284602F0C5F96FF001054846C9
:205AAC0005F0DBFD2846BDE8F883C0460100030608100440D00F0020B0B501468B681C68F1
:205ACC00E26948682262520824D2D0F8A01049680A685D69D2F80415294206D01C68616A17
:205AEC0021F002016162C2F80455D2F8042519690A4230D01A68516A21F001015162D0F824
:205B0C00A0205268196912683830C2F8041502F0FDFFB0BD1C68626922F001026261D0F87E
:205B2C008870AFB9626822F0020262601C68626A22F003026262D0F8A0005A6940681C69D4
:205B4C0000682243C0F80425084604F0DDFBB0BD0846FEF719FFB0BDF0B520480127F842CD
:205B6C0001D002F05BFC204D204F214EBD4206D203CD0478A4003459401CA047F6E71D48DB
:205B8C00002800D08047164D164FBD4202D210CDA047FAE7F0BD03251BE0416808300A1C23
:205BAC002A400BD11A1C2A40AB4305D0046804300C600431043BF9D1131C05D00478013035
:205BCC000C700131013BF9D1021C2A4001D0A84304300368002BE0D17047C046FFFFFFFF8D
:205BEC000000000000000000F8C4000030C50000BCC40000A9820000002A4AD05FEA000CA4
:205C0C008B071CD1830722D1102A08D370B4103A78C978C0103AFBD270BC103238D0042AC5
:205C2C002CD3082A05D30C2A24BF08C908C008C908C008C908C092072AD0920F22E00B78B2
:205C4C000370491C401C521E22D08B07F7D1C30714D18307D8D0121F12D308C903801B0CD6
:205C6C004380001D121FF8D20AE008C903701B0A43701B0A83701B0AC370001D121FF4D2B3
:205C8C00121D05D00B780370491C401C521EF9D1604670472DE9F843224D884606464FF08D
:205CAC00FF3105F124008146FFF7F6F800200CE0FF2909D02A688A4204D905EB8101D1F860
:205CCC0094700FB1002627E0401CB8F1000F03D018F82010FE29EBD1002434607460012709
:205CEC00B46011E0FF280ED005EB80000B787268C0F8946007FA03F0104370600A680A4939
:205D0C00304604F0A9F9641CB8F1000F04D008EB84010878FE28E5D1484601F0DFFA3046BD
:205D2C00BDE8F8839C2B0020007FC767B0B5456884682349607DA27DADF1180D40F000400A
:205D4C000090207D0027FF2A41EA000001904FF0020002D0E27DFF2A00D13FB1E37DA07D25
:205D6C001943039140F0004002900420FE214DF8201005F140006946FFF78CFFE864002893
:205D8C0008BF381C1AD0617D0F2204F04FF9E86C217D102204F04AF9A17D3846FF2902D0B6
:205DAC00E27DFF2A00D140B1E86C112204F03EF9E86CE17D122204F039F9012006B0B0BD8B
:205DCC000000C0A0F8B50546880F3CD31E4E30681E4F20F0020040F400703060032147F89F
:205DEC00041C41F23004BC60012139605022BA6039604FF4CA63BB603960154847F80C1C2C
:205E0C0005F0CCFA134FB81C0078012803D005F1300001F063FA00240220346003F05CFE76
:205E2C001120FEF799FE287C10B90E20FEF794FE3846094A44721178847221B11470CC301F
:205E4C00042105F053F8F8BD000004600C41044079570000D00F0020282E00202DE9F84391
:205E6C002020EFF3118780F31188214CA068012105F029FC4FF001094FF0000865692168B8
:205E8C00A4F81C906A1A2168A4F81E80461B401A904227D387F3118840464519361A48460B
:205EAC00294600F05DFDB042F7D92021EFF3118781F31188E18B012903D14046294600F044
:205ECC004FFDB0F1FF3F06D0A169801B814238BF081C411901E0A069291804F0E7FDA4F839
:205EEC0020902560A4F81C8087F31188BDE8F883A81A0020B0B50446A768ADF1280D5FBB69
:205F0C000C2000F073FA071C1DD0684600212422082305F0C7FA002306976A466168ADF808
:205F2C0010301848059303F0E7F9386070B90820ADF824000C25ADF8265009A803F06CFD3F
:205F4C00384604F005F86FF0030018E0E06878602069B860A7600AE004F04FFE054638688E
:205F6C0004F044FC2069B860284604F0EFFF3868616805F0B4FB386805F014F800200AB068
:205F8C00B0BDC046B5B30000FEB5044622481646089FC069618250F821201C4800681D46EC
:205FAC0090420DD01B480068009000220191184E029231888F23384604F0DAFD0120FEBD8D
:205FCC00084602F03DFDA66068696060286AB0F1FF3F08BFFF2020740026E660288B002872
:205FEC000EBF301C0120E0600146A88C10B141F00200E060204601F06BFD0346384604F0F2
:20600C00A9FD002814BFD81C301CFEBD80BF000038C0000060BF0000E41900202DE9984374
:20602C0005F022FA1F4CDFF87880814604F1E000007850B94446A0680146022088470746D5
:20604C00102002F059FB2FB320E001F021FB002820460FD1144909683222B2FBF1F101B9F6
:20606C00012100F13004204605F039FB204604F099FF0FE044460022A16880F8E02002200E
:20608C0088470746102002F037FB1FB1A068014603208847484605F0E0FABDE89883C04650
:2060AC0084BE00006016002094BF00002DE9F04107467868BE680446F03004F097FB306887
:2060CC001B4980690968C0F3C00008BB05F0CCF9184D8046287820B1022003F0FDFC00203C
:2060EC002870404605F0B9FA3168134D886B20F020008863286820F480702860606A216A56
:20610C00091A21622369626A38469847BDE8F0814FF4FA70B0FBF1F1012998BF0121F03401
:20612C00204605F0DCFA204604F03CFFBDE8F08194BF00006D230020301000402DE9F041AD
:20614C0006467568B46805F08FF9A96A39B921688969090903D205F080FABDE8F08100275E
:20616C00AF6205F07AFAA17D3846FF2902D0E17DFF2900D118B128462146FFF7F9FB21689B
:20618C00886B20F0200088630D49086820F48070086005F069F90B4C8046207818B10220BC
:2061AC0003F09AFC2770404605F057FA686A296A091A29622B696A6A30469847BDE8F08101
:2061CC00301000406D2300202DE9FC41844608AF0878DFF87C803F88FF24022829D14E6898
:2061EC007578307842F6021600EB0520801B1AD04DF2EF65401B18BFB0F1020011D177B99F
:20620C00012B0AD11078CA681070C968474600258F4214BF02242C1C0EE00D250AE00B2502
:20622C0008E00A2506E00097604601F089F8054600E00125FF2C07D04046001D006818B17F
:20624C00016809B1204688472846BDE8FC81C0461C14002070B51E4DAC68064604F07AFD99
:20626C004FF47A71001B4843030C04F011F82969401A48BF404240F6B8319B19994210D32C
:20628C0006280EDAE9688C420BD8286848B1114A091B51438A0C02EB1141884288BF011C3B
:2062AC0008E00D49486840080ED208687D2100F0FF004143C82905D3B1F57A6F88BF4FF459
:2062CC007A6103E0C82101E04FF4FA61084670BD142E002040420F00AC3F00501F4930B596
:2062EC001822ADF1740D17A8FFF786FC0EA804F079FD4FF41651149100208DF84E008DF81B
:20630C004D008DF84C008DF84F000EA903F074FC041C02D10BA004F055FC204617A9182222
:20632C0005F02DF90E480568284669460A2200F0EBFC0128F8D10D9A2046694605F01FF998
:20634C00F2E7C0464572726F72206F70656E696E6720746865205541525400C0D0BD00002E
:20636C0054BF00002DE9F04145688768D5F8A00006684468307888B1207905F045F80128BF
:20638C0009D120684FF00008C0F80480301D05F092F9404630702079FEF7DEFBD5F89C0049
:2063AC0004F083FA3968486820F00200486005F11C0005F080F905F1380005F09AF9387B6C
:2063CC00FEF7CAFB2878002418B905F16C0005F08EF905F1C40004F069F905F045F885F8C5
:2063EC00D94005F03AF9BDE8F0817047F8B5001D84B214F0030002D0241A241DA4B204F0E1
:20640C00FCFB1A4A102C014657691161C8BF9769388800221646C30BDD0319D126B984425E
:20642C000ADD3A46012617E01388C3189BB29C42138011DC174618469FB1001B80B2042826
:20644C00B4BF3C88385344F400443C803F1D08E080F40040002680B2C71938880028DAD173
:20646C000027084604F072FD3846F8BD6C17002030B51A4C0546606801210180A1680868E8
:20648C00ADF1840D08B903A808602846FEF78EF8032004F07FFE12480068016811B1A0687B
:2064AC00006888470F48104C104B0068218800F0FF0218680F2A04D30D48006840F2913346
:2064CC0001E040F28E3300900192A86B02900020024604F04DFB21B030BDC046E41900208F
:2064EC007CBF000004ED00E038C0000064BF000068BF00002DE9F84304461B48006827189D
:20650C001A48006826181A480068884611462018FEF7C2FC80B12020EFF3118980F3118894
:20652C00144B1868201804F0C9FF054618682018A84204D189F311880020BDE8F8832069DC
:20654C00401E206189F311886268414605F10800FFF752FB3846294604F0D2FA304600F096
:20656C00BDFE0120BDE8F883A0BF0000A4BF0000ACBF0000A8BF0000B0B51D481D4AC16924
:20658C001548C2F8081D07681448D2F8083D98420ED06FB1124B1B6800240F2C2CBF1D1C9E
:2065AC000568001D641C0D607F1E01F10401F4D10D48D2F80C7D0B4D0168202427F47F4078
:2065CC0000EB01202918C2F80C1D084B82F8224D1868C2F8140DB0BD6CBF00001010000030
:2065EC0080BF00000000FA0584BF000074BF0000E419002000E000E070B50D461B4A1A49BE
:20660C0004462B4603F076FC2061284604F0A2FA40BB184801220021A568036822751448C5
:20662C00A161002D18D4A1688A408069A168E26004F03EFF206404F005FEEFF311850646BC
:20664C00202080F31188204604F05CFC85F31188304603F095FE05E0E160C018214620643A
:20666C0004F04EFA002070BD45AB000079910000A0190020C0BF0000F8B50E46054614468D
:20668C00A969EA691F462046FFF7B6FA64602FB1EA6920463946082302F0BEF8E468D6B98E
:2066AC00E8686969AA68079B04F044FF071C08BF002020D004F032FF6968396069684968B6
:2066CC007960696849680F6069684F6004F0CAFD07F1080605E06A6930460021083A00F022
:2066EC00C9F82868B0F1FF3F18BF3060286908B1616831503046F8BD70B50C461C49CA682A
:20670C00824218BF03202DD191F8A500C2080AD391F8A420A24206D100F0FB0081F8A500CB
:20672C00002681F8A46004F09FFE0646204601F079FB0D48210201F47F41084303F0BCFDDE
:20674C000A4A1168054604F10C030120984081433046116004F081FF05F0FF05012D0CBF07
:20676C008120022070BDC0460100080408100440D00F00201CB5042004F0F0F8022818D0CC
:20678C00032816D016480068C0F38150032814BF41F288324FF47A721248144C01685434CD
:2067AC002046B2FBF1F104F09AFF204604F0FAFB1CBD03200C4C009000214FF040521C23E7
:2067CC00204601F0E5FE012000214FF4007209230090204601F0DCFE022003F07DF91CBD2B
:2067EC00B43F005094BF000000A00C40601600202DE9FF410E4605461A4C7188E08A8142F4
:20680C000CDCB188814209DBF088218B884205D13089618B884208BF18271FD0052002F065
:20682C003DFB77888046F188B388ADF80270A08AADF806100C4AADF800003789ADF804300B
:20684C0011216846ADF8087003F021F8071C05D1A57304F1F000414602F0FAFC38460090B0
:20686C00BDE8FF81600C00204FB60000002213460A46194671B510F0030F0BD0002A82BFAE
:20688C0000F8011BB2F1010210F0030FF6D1002A08BF71BD11F0FF0141EA0121042A18D3D3
:2068AC0041EA0141082A0FD30E46102A08D30C460D46B2F10F0312F00F0272C0103BFCD824
:2068CC0012F0080F18BF42C012F0040F18BF40F8041B12F0020F18BF20F8021B12F0010F46
:2068EC0018BF017071BDFEE7F8B586687568174995F88D3051F8232015491140154AA2F1E2
:20690C0050073F684FF0010C43EA01040CFA03F1394218BF44F4800412686146994011429A
:20692C0018BF44F4000495F88D1003F0BDF80B48094920430840814206D1D5F888100420F3
:20694C0008743046FEF720F8F8BDC04600100840007F077FD0200240000006800000F8FF65
:20696C002DE9F04780461A481A4C00682418204604F0B9FE0E464FF0FF374FF0000A8146A2
:20698C0021E04D46284604F0B0FE8146A88A012819D1B8F1010F0ED1E86886420BD128691E
:2069AC00002808BFA5F814A002D0E9684018E860A969E8698847A88A012804D1E868801B7B
:2069CC00874288BF071C4C45DBD13846BDE8F08790BF0000A81A00202DE9F0410E4615467A
:2069EC0080464FF6FF71ADF1180D03AA03F09AFF0246059232B300200090BDF80C00FF27B9
:206A0C000DF11203294601904046029700F026FF041C12D16889ADF81000700804D34046A5
:206A2C0004A904F0DDF806E01D20009004A93B46404601F03DFE041C05D004A81B2103F071
:206A4C007FFF00E01524204606B0BDE8F081704738B5054601201A4C68712879B0B904F014
:206A6C00CCF82178002904BF6FF00704051C15D0491EC9B2217039B904F068FA606803F0DB
:206A8C000BFA0020687118E0054613E004F0B5F805462078FF2805D16FF00604284604F06A
:206AAC0055FA0BE0401CC0B20128207002D1606803F009FA284604F049FA0024204638BD54
:206ACC003C1C002070B50646B079F4680628A4F10C042CDA3079062829DA04F08EF8154DAD
:206AEC00B27991000C3501EBC20169184968E1B104F02CFA30792071B0796071307AA07111
:206B0C00B179880000EBC1002818F1684068083003F04AFAB179880000EBC1002D186868E8
:206B2C00406800F0DBFB002070BD04F00FFA6FF0020070BDAC17002038B519491A4C00204B
:206B4C004822C1F8F30F94F8E200C1F8FF2F20B3012817D0022807D003281ED151F8310C2B
:206B6C0000F05EF80B2016E051F8315C2846FCF791F940F2FF50A84202D8801CA842F1D253
:206B8C00082008E051F8310C00F09AFC054800780028E7D0052084F8E400FCF78DFE38BD31
:206BAC0039400C4092BE00006016002038B544688568E06C03F079FE296817488A6B1040AD
:206BCC00886316480068C168286888476868FDF7C3FF04F1680004F06EFD04F1840004F0C1
:206BEC0088FDA07818B904F1B80004F080FD607818B904F1D40004F07AFD04F1F00004F047
:206C0C0068FD04F031FC0021217004F026FD04F1540003F04BFD38BD0DF8FFFFD0010010BC
:206C2C0038B51A4CA0F5C060D4F8B810C4F8D4000029B8BF49420028B8BF4042814220DA13
:206C4C00B4F8BC00124D30214FF47F4208230090284601F09DFCB4F8C00004214FF4F8028B
:206C6C0012230090284601F093FCB4F8D00020214FF440620A230090284601F089FC0120F1
:206C8C0000E0002084F8D80038BDC0466016002000A00C402DE9F8438146EFF31188202044
:206CAC0080F31188174D154C134F012605F11C000660A4F114000660F86A016A1420884717
:206CCC00D9F81000810C14BF000C04202060386802682321002090470948066054F8180C4B
:206CEC0020F4C02040F4803044F8180C2E6088F31188BDE8F883C046840100101820094072
:206D0C00800224430000244370B50546164800680C4611462818FEF7BFF810B313480068C6
:206D2C00281803F0DFFE6A680646204606F10801FEF762FF2020EFF3118380F311880C4847
:206D4C0000683146281804F0BFFB2869401C286183F3118807480068281800F0BFFA012014
:206D6C0070BD002070BDC046A4BF0000A0BF0000A8BF0000ACBF00002DE9FC4117460E46EF
:206D8C0005464FF0020800F0F9FB50BB02F0FCFD38BB05F0FF04C4F58074B44288BF341C54
:206DAC008DF800808DF80350280C8DF80100280A8DF8020004F0D6F96846042102F004FFEC
:206DCC00361B651920B93846214602F0FDFE18B104F0C0F9BDE8FC8104F0BCF9E719002EBE
:206DEC00D1D1BDE8FC817047B0B5ADF1400D04F029FA044600213C220823684604F082FB92
:206E0C001148416806918168006804900F480068002205900E480891694601F0BBFE071C07
:206E2C000DD003F0EAFE0546384601F05FFA30B1284604F08BF8204603F0A2FA01E001F0EE
:206E4C001DF810B0B0BDC04618B700007017002031B1000030B5401E4FF00004ADF12C0D29
:206E6C000AD0401E04D0401E21D1FCF725FD1EE000F07EFD04461AE001A821462422082367
:206E8C0004F010FB06940D4DADF8144009490794012201ABE63D05F1780002F077FC2346DF
:206EAC002C2105F19C00044A009302F041F920460BB030BDF9760000456B00004617002030
:206ECC00F8B5054604F0D0FA174CB5F98C10012607460C3CB4F93400E671401A06D4B4F96E
:206EEC003600B5F98C1088420CD110E0B4F93600B5F98C1088420ADAB4F93600B4F93410C0
:206F0C00884204DD85F88E600020207007E005F1680003F06BFC002000F044FCA67238461A
:206F2C0004F09BFBF8BDC046DC0F00202DE9F04106467568B46804F097FAA96B21B30027D5
:206F4C00AF6304F08AFB2168886B20F4FA6088630F49086820F40070086004F085FA0D4C45
:206F6C008046207818B1022002F0B6FD2770404604F073FB686B296BEB68091A29636A6B5A
:206F8C0030469847BDE8F08104F067FBBDE8F081301000406C2300202DE9F041164D6C6861
:206FAC002079ADF1380DFDF741FE04F05DFA2F6880463878C8B901A800213022082304F002
:206FCC004DFA0695A079002609900C4A0096617901AB381D02F0ACF8012038702168084AEA
:206FEC00CE6221688A6021684860404604F035FB28460EB0BDE8F08194BE000095B5000029
:20700C00000400202DE9FF41984607460C461346404603F09FFD054613B904F091FA034620
:20702C00002F12BF381C0F4800681A462146434604F0AFFA061C10D11DB9404603F08AFD6B
:20704C0058B90A48006800900197074D0294298800223423404603F08BFD30460090BDE871
:20706C00FF81C046F0BF00003EC00000D8BF0000164880B507683FB315498B6803EA5300B5
:20708C00C00E21D2134A106880081DD2486880081AD21068096810F0050F4FEA114101F03A
:2070AC00F00101F5E0710AD1B9420DD2190F38BF40F00100D90E38BF40F0040003E0B94297
:2070CC0002D920F00500106080BDC04628500940AC3F005000000940D0B51E46034617482B
:2070EC00082706600446037111F8013B7F1E637104F10104F8D136B112F8011B761E417363
:20710C0000F10100F8D100BFD0BD84460B48E0B50D460827014606680A797F1E01F101015F
:20712C000CF8012BF8D13DB136B1017B761E00F1010005F8011BF8D1E0BDC046682900203D
:20714C00B0B5184C0546208C002701281BD1A08BC8B9A068012104F0B6FA2168421A23683D
:20716C006169C91A91420ED30127A968AA68AF824118E9606169091A914211D9E968104633
:20718C0003F094FCB0BD5FB903F020FBA78BA968012F0844E8604FF00100A88208BFE08332
:2071AC00B0BDC046A81A0020F8B570BB174C606848B3002080F31188202080F31188606830
:2071CC0063692669F825B0FA80F0A5EBC0001B1805E06369B0FA80F0A5EBC0001B189E4260
:2071EC0011D2184604F06AF90746184604F0C0F818B1B969606888436060384600F0C0FC2C
:20720C0060680028E5D100202080F8BD5C1B0020F8B540F6FF7C10F8014B00231DE0122F9D
:20722C0000F1010008D110F8015B2E0A24BF10F8016B66F3DF15EF198A1A521E12F8015BB5
:20724C007F1E01F8015BF9D103E010F8012B01F8012B5B1C6408082BDDDA6208F5D210F824
:20726C00012B057805F00F071201FF1C42EA25129445D4D1F8BD704710B500213C22082364
:20728C00ADF1400D684604F03DF9124C04F1F00007904FF42F7008900120069005A001F07E
:2072AC009FFF0D4900236A4604F1A00002F05CF810B010BD53696D706C65424C455065722F
:2072CC006970686572616C2073746172746564210A0D00C0200500204D100000034670B59E
:2072EC002020EFF3118580F31188144800681C18181804F03DF8B0B903F0A4FF06462046BC
:20730C0004F0DCF8044601202074E06808B103F06DFAA068294602F07BFF85F311883046D5
:20732C0003F02EF870BD187A40083ABF5889401C0120588185F3118870BDC046B8BF000036
:20734C00F8B506AF3F880E4605463FBB022B23D15078147804EB002434F001001AD1F1686E
:20736C000968284603F0C6FE844211D0F06806683146284603F0BAF948B94FF6FF70314647
:20738C0003F0B4F9002808BF112008D0058084700020F8BD8020F8BD0D20F8BD0B20F8BDE4
:2073AC00D0B5044604F0B4F800F0A0FF071C08BF6FF002041FD003F020FC0146A2880F48AE
:2073CC000023243030F80C6F5EB902804760A26882602373786820610024084603F0B6FD4C
:2073EC0009E0964208BF6FF00204F6D05B1C062BE8D300F043FD2046D0BDC0468817002083
:20740C002DE9FC41154E0D4606F114042168804603F070FE093C4008F5721DD3404601210C
:20742C00002203F07FFA07460197AFB1304610212246203003F03AFE40890126ADF800004E
:20744C006946ADF8026040463D7003F0C9FB18B168461B2103F074FABDE8FC8140150020D5
:20746C002DE9F041154D0C46E9689846814218BF032020D16260C5F888000A21218005F15F
:20748C008406346000F0A4FC071C13D4A770204601F0B8FD022808D0012806D006EB870686
:2074AC0046F80C8C0120287004E0384600F0BAFC6FF001073846BDE8F081C046D00F002029
:2074CC00134910B50A684BF2F5214843040AC2F38140012806D102F0DBFE01F039FD604316
:2074EC0004EB90540C4901F1E500007830B90948006820F07F402418640802E0002081F875
:20750C00E50006480460210C41600123836010BDB43F005010200940601600203C600C40EC
:20752C0098B5044620208DF8000004F6FF706FF30B04001B00F6FF70000B1ED0074600F053
:20754C001DF8D0B902F020FAB8B9200C8DF801008DF80340200A8DF8020003F003FE684637
:20756C00042102F031FB10B103F0F4FD98BD03F0F1FD04F580547F1EE1D198BD14481CB543
:20758C0000788DF8010003F0EDFD12480830006880680168C8684009FCD203F0DBFD03F0B4
:2075AC00E1FD0DF10100012102F00EFB6846012102F0F2FA044603F0CDFD002C18BF6FF0AE
:2075CC00010004D19DF800004008E8D200201CBDF8BE000004180020B0B5044603F038FF6E
:2075EC0030F0010008BF6FF004041ED003F090FF054603F002FB01460D480622403030F829
:20760C000C7F6FB1A388BB4208D1406800680022854208BF0122A260002403E0521EEED197
:20762C004FF0FF34084603F091FC2046B0BDC0466C170020FEB5154C0D462169064603F052
:20764C0059FD400821D330460221002203F06AF907460197CFB1224602F12000102109322F
:20766C0003F024FD02244089ADF80240ADF800003D7001992A1230464A70694603F0B0FA70
:20768C0018B168461B2103F05BF9FEBD4015002008B5012003F062F901281DD00F483421C6
:2076AC000122002301F03CFB002808BF002014D00B48006802F03CFE03F04CFB0A4A9368ED
:2076CC001168D060C01A074BA1EB91014343180C884228BF011C1160012008BD00A00C40F0
:2076EC008000001040420F00142E00201548134A1349E4300078801E0A281CD8DFE800F0DE
:20770C0018130E1B130E1B130E1B06C010688008FCD250688008FCD2FCF7CEB8086880087E
:20772C00FCD3FCF7C9B808688008FCD2FCF7C4B810688008FCD3FCF7BFB8C04634600C40A6
:20774C0038600C406016002098B5154B1B1D18680004070C21D002F09BFD104991F90720A2
:20776C00824205DD10F1800FB8BF6FF07F00C8718C88BC4210D80A68D3F8D40F801A801CE9
:20778C001F2888BF1F203F1B4008C7404FF6FF70E719B84238BF071C8F8098BD382E0020B5
:2077AC0030100940F8B5074603F05EFE124C06462079E0B1401EC0B22071C0B904F1CC007C
:2077CC00082103F093FB97B1E068683003F00EF8E0680A4DC0683F1A286804F1A805B7FBCE
:2077EC00F0F1284603F07BFF284603F0DBFB304603F033FFF8BDC046D00F002094BF0000E2
:20780C0098B50446880F1FD36168486808B180476168886808B9CF6877B10C4A1768002F66
:20782C00FCD00023136008B180476168C86800B18047074802F040FD064803F0AFFD064830
:20784C004FF0005103F052FB98BDC0461C100440010007062D3E00009C100020B0B504AF24
:20786C003F88002F18BF0B2025D1087802281FD14D686C782F7800204FF6F17507EB04274C
:20788C007F1B012F0ED9FF1E0CD07F1E1CBF011C0A200FD105241C80C9680B681360097935
:2078AC001171B0BD01241C80C96809781170B0BD002101201980B0BDB0B503F0FEFE0028A8
:2078CC0008BF00201FD010480468002C0ADD00250020294603F0AEFC0021FEF78DFE6D1C74
:2078EC00641EF5D10948006858B1094D07460024286B50F824000021FEF77EFE641C7F1EFD
:20790C00F6D14FF0FF30B0BDC4BF0000D4BF0000A019002030B52025ADF1540D85F3118890
