:10100000FFFFFFFFFFFFFFFFFFFFFFFFFFFFFFFFF0
:20101000684100209D8B0000ADA90000ADA90000ADA90000ADA90000ADA90000ADA90000CB
:1C103000ADA90000ADA90000ADA90000ADA90000ADA90000ADA90000DFAE000013
:20104C002DE9F04F0820ADF1940DADF82C000126ADF82E600BA808F0F1FD7A4C9DF8300079
:20106C0020700D98A06004F138000AF07AFA41F2883204237449E06004F17C0007F002FC1D
:20108C0000251F200621656008F026FB0820ADF80A00ADF80C008DF80460ADF806503146F8
:2010AC008DF8086001AAADF80E504FF47A70ADF8100040F2053001F0C1F940F2063002210A
:2010CC000DF1060201F0BAF94FF44270152104F1500201F0B3F940F20730092104F12C0295
:2010EC0001F0ACF94FF44470314602AA01F0A6F940F2113002210DF10A0201F09FF940F249
:20110C001230022103AA01F099F940F2133002210DF10E0201F092F94FF44570022104AA43
:20112C0001F08CF9D449032008F0B8F80620A02108F0D2FA0720A02108F0CEFA0820A02109
:20114C0008F0CAFA0920A02108F0C6FAA846CDF81480B1468DF818904FF481608DF8199068
:20116C0004218DF81A8005AA8DF81B9008F09AFA4FF48060314606AA08F094FA40F2024070
:20118C0031460DF1190208F08DFA40F2034031460DF11A0208F086FA40F2064031460DF1C9
:2011AC001B0208F07FFA032008F0B4FB042008F0B1FBC248C24A132107F0BCFF4FF0040ABA
:2011CC000820C04EADF838003078ADF83AA080000F900EA808F032FD00280CBF1098281CEE
:2011EC00B9498B46886038B109F03AFBB74A0BF11400112107F09EFF08F0EAFFD04DE860F4
:20120C0038B308F0E5FF05F10C0739682861E8B108F0DEFF686120B9386809F097FE2869F9
:20122C0015E0E86809F01CFB286909F019FB686909F016FBC34A05F12000102107F07AFF10
:20124C0007E0C0462005002075B20000084609F07DFE206AA86104F144000AF082F90227FD
:20126C000323206152468DF81D70B7498DF81E3048468DF81F200DF122078DF81C0040469E
:20128C000A6809793A6007AA3971494604F024F8484649460DF11D0204F01EF802204946C5
:2012AC000DF11E0204F018F8032049460DF11F0204F012F8504605210DF1220204F00CF85B
:2012CC0005F1200704F11C002397B378CBF8040033BB04F1180096F801A096F8039070620B
:2012EC00182009F0CDFA071C1AD00421424609F0D9FF504609F0A8F9387287F809904046E7
:20130C00B87206F14803FB6006F158023A6106F12001796109F0C4FA8C4A394607F0FAFF20
:20132C000C2009F0ADFA071C0BD0012104220AF050F904F12400B86009F0B2FA394608F0FF
:20134C0089FF0120102108F0FFFA0220102108F0FBFA7F4942F22F0008F0EAFF05F1080765
:20136C007C4E2297B01C2090083021900820ADF848000A27ADF84A704FF0FF33139312A803
:20138C0008F05CFC002840F0AE80002000900827ADF850700923ADF8523014A808F04EFCD6
:2013AC00DDF858800028CDF8008040F09780BDF854004FF00109102853D120789DF856107F
:2013CC0088424ED1474638884FF6FF71814218D03878B02845D1787816280CD17888082199
:2013EC0008F0CAFE38B9484608F08CFF00984FF00009606135E0397907F1080009F0CAFBF9
:20140C002FE0788800092CD3676957B360787B88401C607097F804B02493102009F030FA7B
:20142C0007F1080A071C1CD0022115220AF0D1F82498388187F80AB0C7F80CA009F030FA2E
:20144C00B54A394607F066FF0746162F09D0042F07D060694088002108F08EFE384608F085
:20146C0051FF0098002839D0B9F1000F36D0404609F090FD32E0C04689B80000E06807468E
:20148C000AF0AEF838B938460AF050F9876809F069FD384600E000208046F8B107887F1E87
:2014AC0016D07F1E17D187781FB1BF1E13D1022000E0002008A907F049FB0CE0EC1200200D
:2014CC0040C10000600C00201C1400204CC10000807801F0E7FB404609F02CFDE0680AF061
:2014EC007FF80028CAD06088C10810D320F0040060800AF0CDF802200DF1210107F026FB06
:20150C0028B9032001210DF1210203F0E5FE20690AF066F800287FF429AF20690AF006F9CC
:20152C00804698F808106878012915D0022940F0EF80B8F80A00D8F80C1001F08BFEE7E091
:20154C0040150020B0BA0000CEC100008FB8000041B80000901B0020B8F80AA0D8F80C7060
:20156C0008280CBF4FF000094FF00409209A7978387800EB01201080B878F97800EB01202C
:20158C005080387B797B00EB0120F081B88807F10803F080F888219A308119681160B87B87
:2015AC00307404F015F860B3307C022804D0032818BF4FF4F02001D14FF4F22010211AAA4C
:2015CC0007F07CFC06F0C6FBBDF86E00ADF85E00BDF86C00FF2808BF00201CA9ADF85C00BE
:2015EC00096818A80160FF228DF86720BDF874008DF865009DF876308DF8663001128DF81F
:20160C0064104F44F978B87800EB01208010A88000236B801A462A70387A797AFB7800EB47
:20162C0001208200B978B87A01EB03218B10B3F5005F36DC002B34D0032804D0110B30D08A
:20164C00B2F5F83F2DD8B2F5805F01D0012828D0BDF85C304FF6FF71994208D03BB13F88C7
:20166C001FB1BB424FF0000200DA0122CAB1012814BF4FF400300020E861000BE8803078E5
:20168C00012802D003F0A4FF3070012804D05046022105F073FF3BE05046002106F088F8A8
:2016AC0036E0E968504609F05DFE40082ED350460821002209F060FA07461F9737B32398A8
:2016CC00229A102109F02AFE08224089ADF87A20ADF878009DF85C303B70BDF85C101F98FD
:2016EC00091241709DF85E108170BDF85E1018AA0912C1701168071D504639601EA909F061
:20170C00A7FB18B11EA81B2109F044FA09F098FD404609F00FFCFAE6A7B50000C6492DE9A0
:20172C00F04F0122ADF1140D0490A1F130000260BE480768002FFCD0C348DFF8F892C02206
:20174C004438039009F1080A0260DAF80000800806D2484601904068000C40F0F00002E0F9
:20176C007220CDF80490B24AB64D002782F84C024846A5F1D0060F60C76856F8040C0296F6
:20178C00C0F3046009F0E6FE00EB2770401C162805DA10F10A0FB8BF6FF0090000E0152040
:2017AC00A64E00F01F00114640F4F850A1F864023068800828BF47F04067A149F80EA5F1DD
:2017CC003C04BE0E80F0010000F00100086086F0010000F0010088602068C0F38363C0F303
:2017EC008F26B80C22D247F3072000280BD541420020760805D15B0806BF01231E1C4FF645
:20180C00FF76491EF5D1002810DD4FF6FF71760046F00106B14207D25B0043F001030F2B05
:20182C0092BF01260F230E1C401EF0D146EA034B0022164609F00EFF08B9012216463246EF
:20184C00CD4E3368002BFCD0CC48012300F10808C8F810B033600AB109F002FF20682368BB
:20186C00D34CC0F3870140F2FF3203F0030041EA0021002388B200902C21A4F1400006F058
:20188C0095FFA5F110000068C0F30D0409F0E2FE4FF0000B08B94FF0010B3368002BFCD015
:2018AC00C8F814400120BBF1000F306001D009F0D7FEA5F11800D14C0068044000F07C40DA
:2018CC00044309F0C7FE4FF0000B08B94FF0010B3368002BFCD0C8F80C400120BBF1000F27
:2018EC00306001D009F0BCFEA5F11C00016801F47C0009040C0C044309F0ACFE4FF0000BE3
:20190C0008B94FF0010B3368002BFCD0C8F808400120BBF1000F306001D009F0A1FEA5F1AA
:20192C0014000068DAF80020C0F30351C0F30343520814D24A46121D1268140511EB24710A
:20194C0003D41029A8BF0F2100E00021120413EB227303D4102BA8BF0F2300E00023049CDC
:20196C0043EA011300F47F4100F0FF02222C41EA034142EA010224BF00F080400243144657
:20198C0009F068FE4FF0000908B94FF001093368002BFCD0C8F804400120B9F1000F30608A
:2019AC0001D009F05DFE0498222832BF01202868C0F30070049B7E4C222B4FEA400040F0EC
:2019CC00200084F8090126BF2868C0F340700120DFF87092202B40F0100084F8090138BF7B
:2019EC00002107D348460168C80C00F44070C1F3845101438A4609F02DFE4FF0000B08B9A5
:201A0C004FF0010B3368002BFCD0C8F820A00120BBF1000F306001D009F022FE0498202823
:201A2C0014D348460068C0F3015010E0940222430A600840A83F0050401009400000094003
:201A4C00000020438C13005044600C400020049B400040F06000222B84F80C0126BF28685E
:201A6C00C0F3C0600020222B4FEAC00040F0800084F8010126BF2868C0F345500020202BCB
:201A8C004FEA800040F47C40A4F89C0138BF6E490BD34846006801038A15920501F47C111A
:201AAC0000F00F00114341EA0031894609F0D2FD4FF0000A08B94FF0010A3368002BFCD0EE
:201ACC00C8F800900120BAF1000F306001D009F0C7FD4FF48000029E2060B06D40F20F214F
:201AEC006FF31F40814215D9304601680068C1F30366C0F3034006B1761E072805D0062891
:201B0C000EBF0720801C00F00F00554946EA001001F8080CC7F38140401E02D0401E32D034
:201B2C002EE00298D0F8D000810C29D24FF480414B4E2160D6F80210420AC0F3033302F0AC
:201B4C00800221F08F010A4343EA02013346C6F80210D3F80120061266F303021E46C3F80F
:201B6C000120316800F0E703324621F0E70143EA0100106007E0C04600800C4000A00C4011
:201B8C004FF0004020604FF4007020642868324DC0F3C14040F0300084F8C800C7F3815011
:201BAC0070B3401E06D0401E23D0022122E0C04640A00C40012008F0FBFF06460420314620
:201BCC0006F0EEFC042008F0F3FF8642FAD10198066826F07F4008F0D9F8284614300068B9
:201BEC00036807214FF06022300E98474FF4806020600321042006F0D3FC08E0FCFCFC00DC
:201C0C000420012106F0CCFC104808F0BFF802980F49104ED0F8B00047F6180700F03F005A
:201C2C0084F8CB0F2B460F8030681868C16802208847012740210398084C016005B02760FB
:201C4C00BDE8F08F9813005000803F40BD37860070B00C402C200940A001001094046042F4
:201C6C000A6008402DE9F04F0120ADF17C0DADF816000827ADF8147005A807F0DFFF00264E
:201C8C003546D44C8DF808509DF818006070A6700798E0614FF6FF70A082384608F0F0FD14
:201CAC005FEA00080CD00121122209F092FC08F0F7FD02A90123C84A0091414607F048FBEF
:201CCC009DF80800DFF81483207032460123414604F1A800169006F0D5FD04F1CC003246F6
:201CEC0002234146149006F0CDFD04F1F000324604234146139006F0C5FD04203146102295
:201D0C00E07004F1480004F0A5FE04F158003146102204F09FFE256226720720667204F1F9
:201D2C004805E67204F14802A07210211895022007F0BCFD04F1580004F15802102119907B
:201D4C00032007F0B3FD04F12000042104F120021C90084607F0AAFD04F18705179504F1A2
:201D6C003800159004F12C031A9304F168021B9204F132011D9104F13E051E9519E0A078CB
:201D8C00B4F84050B4F84230B4F84420B4F8461006280ED1ADF84250ADF84430ADF8462063
:201DAC001498ADF8481009F0B2FD012010A904F00FFE0A20ADF82200ADF820704FF0FF3552
:201DCC00099508A807F03AFF002840F0818130460190ADF828700925ADF82A500AA807F0E5
:201DEC002DFFDDF830800028CDF8048040F07081BDF82C00102840F05F8160789DF82E10C0
:201E0C00884240F05981454628884FF6FF71814200F04A812B78A23B00F02F812E3B40F0BB
:201E2C004B81A878B146002800F0FC80801E00F0D780401E012840F2A780801E5CD0401E32
:201E4C0023D0401E03D0083800F008810BE1139809F05DFD01984578002D40F00481C1882E
:201E6C00E1820189218340896083149809F0A2FA002840F0F880A56A002D00F0F4802B68D5
:201E8C00E08A218B628B984716E1B5F804A00A2008F0F6FC5FEA00090AD00121152209F07A
:201EAC0098FBA9F808A008F0FBFC494608F0D2F915983146062204F0CDFDE68226836683F5
:201ECC00A8796073149809F022FD139809F01FFD4FF001094FF6FF706379A0824BB9A8795E
:201EEC00082814BF04200520A070484609F0CAF8B9E00320A070B6E06B78002B3ED1291D6C
:201F0C0015980A680260898881800623A3706889A082E889E082288A2083688A94F83E20CF
:201F2C006083E878012A207308D11F2007F0E4F84FF47A714143149807F09CFA95F803B07E
:201F4C00B5F80AA0142008F09BFC5FEA000900F08D800121142209F03CFB89F808B02D1D01
:201F6C00C9F80C50A9F810A0042089F8120008F097FC7E4A494607F0CDF977E06878312801
:201F8C006AD1267104201FE06B78002B64D1A878638AA178032812D02079657923B901284E
:201FAC0014BF6671267106E0054304D01698194607F060FAA1780729E4D1062004E006293D
:201FCC0006D0257915B90320A0704FE00220FBE70720F9E7600C0020D1B5000091B00000F3
:201FEC006B78002B38D1EB78A078E17993B9022815D0072813D0062802D1617901290ED198
:20200C0003280CD0169809F0D5F940B9012009F039F804E0179A484606F0BEF868706D7868
:20202C00D5B920E06B78BBB9189A0220102107F057FC199A0320102107F052FCED1C1A9859
:20204C002968AB8801600125838028461B9AA179A57006F0A1F848B1A77007E0A888444A90
:20206C00102107F00DFDB9F1010F25D1656A1DB32D680DB3A078A8471EE0687913281BD171
:20208C002889012808D1A07B022805D1139809F03EFC06F067FB0FE0052007F02DF80146B9
:2020AC00139807F0E7F907E06888C00B04D31C9A0420014607F014FC019D4DB1ADF8387008
:2020CC000320ADF83A00CDF83C800EA807F0B6FD208A6579217942082DD320F0010055EA55
:2020EC000103208227D06DB9207A657A8DF809001D998DF80A500A680DF10B031A6089886C
:20210C00998002E003208DF80900A07AE57A194A8DF8110006218DF812500DF1090006F08A
:20212C0059FD656A30B1A77025B12B6813B1296838468847208A810807D320F002001E9995
:20214C002082304604F044FC208AC108FFF431AE20F00400A57B2082681E3FF410AE401E37
:20216C007FF427AE06F0FEFA23E6C04699B50000ADB80000A1B800002DE9FE43A84C0F4662
:20218C000546F80B80F02681B80880F0AD80B80F6ED2E07A00284FD138094FD30025012619
:2021AC0065706079667210B1284608F0B9FB9D4809F02CFA9C492A4604F14C0009F088FB9C
:2021CC00A07901281FD1E079E8B9DFF86082266AD4F81490D8F8000070B109F027F8A0EB7A
:2021EC0009004346000B8619E0611868B6EBC01F28BF256208D2266204F1CC004FF0005135
:20220C0008F0ACFF31E0A67140F60900208794F8450000F0F00040F0010084F84500658772
:20222C0094F8440000F0F00084F844008049E56304F138060E6018E0380914D2B80BC0F0DE
:20224C00E68004F1280009F060FB061C08D0706830B17568F068B6F9101000222023A84790
:20226C0027F40057D3E00020E07227F00807CEE0704904F14C00002209F02AFBE86840F627
:20228C00C411814215D1042008F092FC88B166697EB1A06968B908F0C9FFA061864226BF3B
:2022AC00801B401E801B000BE860E86800F58D70E860E07958B10220ADF80000684608F0D2
:2022CC0025F90026E671BDF80800A4F89C000120607020790026401C20711920267209F0FB
:2022EC00A9F827F0005792E004F13008404609F00CFB061C65D0B06840F6030320251A464E
:20230C00521C02E040686D1EEDB260B15DB101888B4218BF8A42F5D1F1682CC818312CC12E
:20232C0029C881E82900326A4FF00009C6F820907068C0B196F8240042F002020023401E0A
:20234C0009D0401E04D0801E08D14FF0805304E04FF0804301E04FF000534A467568F068BF
:20236C00B6F91010A847B4F93600401C6FF31F30E086404608F04AFEF068B0F98C10B4F92D
:20238C00362091421DD1217801291AD090F88E5095B9056885B1E1680968B1F1FF3F10D09C
:2023AC00254909686830B5FBF1F109F0D0FAF068683008F02FFF04E080F88E90484605F032
:2023CC00AFFA404609F0A1FA27F0020708B147F002071CE009F080F9014604F12C0009F046
:2023EC0094FA0646356A084609F06FFAA8080CD25EB1306AA8433062706830B12A46F06873
:20240C00B6F9101075680023A84727F4804727B104F1CC00394608F0A1FEBDE8FE83C04635
:20242C00D00F0020B15F0000C1A600003C2E0020001004409543000014C20000F8B5A0F24F
:20244C00013517460E46022D40F214818A4A8B498B4B2D1F0F2D04D9143D4AD0AD1E1CD08E
:20246C0011E0DFE815F0C300BC00F400E400B300AB000701A2009A00100010009200880060
:20248C0079006F006300282880F2F480022E40F0F180398807F020F9F8BD012E40F0EA808F
:2024AC0015462879012800F0E58051793878507181B9002800F0DE809078012800F0A98061
:2024CC00042800F0A680062800F0A380052800F0A080F8BD3878002840F0CC8090780328F4
:2024EC0000F0A280072800F09F80052800F09C80F8BD012E40F0BE803878012840F0BA80B2
:20250C00154605F1F00008F055FF002840F0B2802C46002004F13E0104F05AFA002840F032
:20252C00A98004F1CC0009F0F2F9F8BD022E40F0A18038880A28C0F29D80B0F5486F00F37B
:20254C00998015E0022E40F095803888B0F5FA7F80F290800880F8BD022E40F08B80388824
:20256C000628C0F28780B0F5486F00F383801946891C0D4638E0022E7CD13888062879DBE8
:20258C00B0F5486F76DC1946F3E7012E72D1387802286FDA891F0D460EE0012E6AD13878B0
:2025AC00042867DA15460B3506E0012E62D1387808285FDA15460A352870F8BD012E59D166
:2025CC003878042856DA1546093506E0012E51D1387804284EDC154608352946DBE7022E14
:2025EC0048D13888154612352946B3E7012E41D11546687901283DD011793878107161B9C3
:20260C00002837D09078012803D0042818BF052830D1012008F036FDF8BD387850BB907886
:20262C00022818BF052825D108F094FEF8BD154605F1870400211F22204604F00BFA39460F
:20264C003246204603F0C8FB0020EE710EE0154605F1680400211F22204604F0FBF9394681
:20266C003246204603F0B8FB0120AE713146224605F092FDF8BDC046600C0020A40C002010
:20268C00A00C00202DE9F04F0128ADF1140D40F0F280DFF81492D9F8DC00012840F0E98097
:2026AC000220C9F8DC0008F005FF0290012006F031F920B101210646C9F8DC10D5E008F0E7
:2026CC00E1FE03906E484FF00008C0F80080012008F06EFA012818BFCDF8008004D1404626
:2026EC0005F0B6FB0120009066486E4CC0F800801934D4F8FF0F112008F0BEFF00280CBFD7
:20270C0046460126102008F0B7FF08B146F002060F2008F0B1FF08B146F004060B2008F032
:20272C00ABFF30B1584800685849006B0246088890470A2008F0A0FF0028404618BF0120D8
:20274C004FF0805B0BF5DC7528B128685049006B0246088890474F48012707602868806947
:20276C00014646F0200088474B48076008F07EFF00F001010191400815D2484808F0DCFE5D
:20278C008246BAF1040FF8D0BAF1010F06D1DBF8D801406802464148032190474049086834
:2027AC0020F003000860404600F080F82868D4F8FF1F806B8047019801280ED0BAF1010F1D
:2027CC0006D1DBF8D801406802463448394690473349086840F0030008602A4807602868B8
:2027EC0040690146304688470B2008F045FF28B128682649C06A0246088890470A2008F05E
:20280C003BFF28B128682249C06A024608889047204807600322C9F8DC201F4BC3F800806F
:20282C002868406B0146304688470128F8D1042006F070F8124807601A48D4F8FF1F0168DB
:20284C008909FCD30098012802D1384605F000FB08F006FF082006F05DF806460398C9F8F1
:20286C00DC7007F0D9F805F02DF8029807F0B2FE02E0042600E00126304605B0BDE8F08F7B
:20288C000C40094000022243B80100102ABB000026BB0000282008608001044300400340A6
:2028AC002422084014100940601600202DE9F84FDFF8E8B10746ABF13500DFF8D4910068EC
:2028CC00800880F0D68007F00DFE064677480830D0F8008000254FEA28725FEA985002F1F5
:2028EC0001020AD2C6F13E0016F10A0F4FEAE000D8BF08208242B8BF021C624BD3F87C01B2
:20290C00C0F3046008F026FE04461868C0F3044008F020FE12198246162A05DA12F10A0F73
:20292C00B8BF6FF0090200E01522574B574802F01F0141F4F8511980006810F0030F18BFD8
:20294C000125C00828BF45F002050FB145F00405494691F90700301A052804DA8879A842FC
:20296C0008BF888865D0DFF82CE10F2EA6F10F0C25DB0CEB0610A0F1F00C4FEA2C27072F10
:20298C0088BF07273C46062C88BF06245EF82400042303EB84037446E3581B1A03F0FF045B
:2029AC00E80824BFC3F307200444A80824BFC3F307400444680828BF04EB136401E0002479
:2029CC0027465EF827E0E8080EF0FF0324BFCEF307200344A80824BFCEF3074003446808CD
:2029EC0028BF03EB1E63A4B2ACEB0727BAEB020004FB07F404F1800403EB1423D8BF012063
:202A0C00342208F0FF0742437A43B2FBF3F04FF6FF72824238BF101C802E80B2888005DA20
:202A2C0016F1800FB8BF6FF07F0600E07F26CE718D71194A12681F280A604FF0000208D32D
:202A4C0040F2FF11814206D24008521C8142FBD301E01F208880124F0F38000942EAC0027F
:202A6C0047EA0200CBF8FB0F0026CBF8FF6FBDE8F88F0D4F0B4E494608203760891D0870A6
:202A8C00BDE8F88F3C1100506E62084024220840482E00209C130050082009403500094037
:202AAC0000E7A48030100940FDFDA400AC3F00502DE9F0411C4615468C4208BF854282BFFC
:202ACC0000230022E5E0002C08BF002D0AD100290EBF00286FF000006FF0000100F0E1F83F
:202AEC00BDE8F0815FF000085FF0000E002C08BF8D429CBF2C1C0025070C47EA01470E0CD0
:202B0C00B44208BFBD429EBF5FEA044444EA15445FEA0545070A47EA01670E0AB44208BF66
:202B2C00BD429EBF5FEA042444EA15645FEA0525470847EAC1774E08B44208BFBD4200F2E6
:202B4C009380870847EA81778E08B44208BFBD427CD8C70847EA4177CE08B44208BFBD42AE
:202B6C0066D8070947EA01770E09B44208BFBD4250D8470947EAC1674E09B44208BFBD429B
:202B8C003AD8870947EA81678E09B44208BFBD4224D8C70947EA4167CE09B44208BFBD42E3
:202BAC000DD8E60146EA5566EF01B14208BFB84201D3C01BB14158EB08085EEB0E0EA601AE
:202BCC0046EA95664FEA8517B14208BFB84201D3C01BB14158EB08084EEB0E0E660146EA55
:202BEC00D5666F01B14208BFB84201D3C01BB14158EB08084EEB0E0E260146EA15762F010F
:202C0C00B14208BFB84201D3C01BB14158EB08085EEB0E0EE60046EA5576EF00B14208BF11
:202C2C00B84201D3C01BB14158EB08084EEB0E0EA60046EA9576AF00B14208BFB84201D32D
:202C4C00C01BB14158EB08084EEB0E0E660046EAD5766F00B14208BFB84201D3C01BB1414E
:202C6C0058EB08085EEB0E0EA14208BFA84201D3401BA14158EB08085EEB0E0EA34208BF87
:202C8C00AA423EBF2D0A45EA0465240A89D3734642461E4617460B46024631463846BDE8B1
:202CAC00F081704710B5401EADF1300D64D0401E60D0801E56D0401E50D0401E02D0401E50
:202CCC004AD08BE008F0E4FC00208DF80400082007F0D6FD041C0CD00121182208F079FC2B
:202CEC0007F0DEFD01A90123664A0091214606F02FFB102007F0C4FD041C1CD0012119220F
:202D0C0008F067FC9DF80400401E208102AAE26007F0C6FD5C4A214606F0FCFA58B99DF86D
:202D2C0004102FA001F098FF0DF10A0005F024FB01462FA00DE007AC40F21530214601F07B
:202D4C0007FA30A001F088FF204605F015FB01462FA001F081FF41E032A03DE0142007F0F1
:202D6C00D1FA3BE0494808F0D2FD142007F0CAFA32A031E035A02FE04FF4417009A901F0BC
:202D8C00E7F99DF825408DF809409DF826308DF80A3000228DF80C209DF829108DF80B2084
:202DAC009DF824008DF80F109DF828408DF808009DF827308DF80E4035498DF80D3002AC73
:202DCC006068486022680A6009A805F0D5FA014622A001F041FF27A001F03EFF0CB010BD56
:202DEC004E756D20436F6E6E733A2025640A0D004C696E6B20416464726573733A20257316
:202E0C000A0D00C0436F6E6E65637465640A0D005065657220416464726573733A202573C1
:202E2C000A0D00C0436F6E6E6563746564204164766572746973696E670A0D0044697363E2
:202E4C006F6E6E65637465640A0D00C04164766572746973696E670A0D00C046446576691A
:202E6C00636520416464726573733A2025730A0D00C046C0496E697469616C697A65640A49
:202E8C000D00C046C3B50000B5B500009C050020571200202DE9FE4F754C04F1240840461C
:202EAC0008F033FD16460D46009008F015FC06F00107B5F1FF3F01900CD1A06A20B9B4F9B6
:202ECC003600401C05B202E0A06AB0F91050002084F8A500A36AA81005EB507020F00700DB
:202EEC002D1AE80000EB4510251805F59C75AB4200F086800098854249D000284FF0030743
:202F0C003FD04FF0000904F1A80BCA46006885421ED1584607F094FD00980768C0F800A0F3
:202F2C000198009708F0D1FCB0080ED297F8240040F0040087F82400684608F067F8014622
:202F4C0008F10C0006F098FC01E04FF001098327B9F1010F03D00098006800900EE000995E
:202F6C0091F8240040F0040081F82400684608F04DF8014608F10C0006F07EFC0098002860
:202F8C00C4D1832F25D0019808F09FFC21E004F1A80007F055FDB0083ABF606A00680020D3
:202FAC006062019808F091FC08F10C05009991F8240040F0040081F82400684608F026F840
:202FCC000146284606F058FC009808B1B008EDD28327207A70B9274808F018FB022104F11F
:202FEC00CC0008F0BBF8607801283DD0224808F00DFB39E004F1CC00022108F0AFF833E027
:20300C00B00803D3606A00900023636295F824100120B840084385F8240008F033FA04469F
:20302C00002F14BF1548164807F070FA019808F04CFCB00814D3009890B108F10C050146C4
:20304C0091F8240040F0040081F82400684607F0DDFF0146284606F00FFC00980028EED130
:20306C00204606F0D9FC83273846BDE8FE8FC046D00F002085210000595900000100020455
:20308C00010001042DE9F843814608F0E3FA002100B901216B4E30680028FCD06C4D012412
:2030AC002D1DEF6A346009B108F0DAFADFF89881C7F3072008F1BC01086008F0CBFA00217A
:2030CC0000B9214630680028FCD02F68346009B108F0C6FAC7F38440C8F8C00008F0BAFAF1
:2030EC000146002001B92046014630680028FCD0ED69346009B108F0B3FAC5F38120C8F808
:20310C00D000B9F5C061C8F8B81000F0968098F8D80068B9C8F8D410D8F8C000C8F8C80031
:20312C00D8F8BC70C8F8C470D8F8D060C8F8CC60D8F8D410D8F8BC60002954BF02206FF04A
:20314C000100454605F1C8031A6801EB41014018411000EB917002EBA0021A60D5F8C81023
:20316C00C5F8C46000291CDD1E293DDDD5F8CC0030B93429B4BF15391E21C5F8C81025E066
:20318C002A29BABFD5F8C8000B381E20C5F8C800D5F8C4003F28B4BF401C3F20C5F8C40015
:2031AC001FE0D5F8CC00032812D011F10B0FC6BFD5F8C8000B30201CC5F8C800D5F8C4009B
:2031CC000028CCBF401E0020C5F8C400032009E011F1150FC6BFD5F8C8001530201CC5F8A7
:2031EC00C8000020C5F8CC00B5F8C400174E30214FF47F4208230090304605F0D7FA00949C
:20320C0004214FF400321123304605F0CFFAB5F8C80004214FF4F80212230090304605F099
:20322C00C5FAB5F8CC0020214FF440620A230090304605F0BBFABDE8F883002088F8D800AF
:20324C00BDE8F88300800C406016002000A00C4000A00C402DE9F04F0C46ADF11C0D6C4EE0
:20326C0061780490207800EB0120ADF800007188BDF80000884240F0BF80F06940F6FF77A0
:20328C0000EB0110074204D1000BC0B2000304F005FABDF80000B179A21C000100EB0130DB
:2032AC00102103F059FE7088401C81B20A467180B188914240F09B805748801C0288029011
:2032CC004FF6FF770392974200F08780F088171C00F083805FFA91F209010024C5B2871804
:2032EC0001F470435FFA87FA0594AA45A1EB03011FFA81FB28DBAAEB050101F10108A84210
:20330C000CBF04240024AA45D8BFA34516DD04EB053004210DF1020205F0D0FD04270DF1F3
:20332C00020919F8011B059806F0A8FD7F1E0590F7D1241DA4B2B4F5805FE4DBF0886D1C38
:20334C00B8F10108EDB2DAD10598002106F096FD002106F093FD039981423ED102994880A6
:20336C000498002104F00AF92B4C217C012908D0022908BF042005D00020032908BF012058
:20338C0000E002203278012940EA020030700CBF4FF4F0254FF4F225284604F07FF9FF2009
:2033AC001021029A6074284603F0D6FDB07A3178401EB072C0B2A0B9480805D3B36904992D
:2033CC00032000229847317811F0060F09D01149086840F00040086003E00498012104F0EE
:2033EC00CDF80024347007F02BFF74800DE00498114604F0DDF908E000207080307007F0E6
:20340C001FFF0498032104F0B9F807B0BDE8F08F4015002004000940901B00202DE9F04F60
:20342C00ADF1840D00F024FF05F078F90026012804D107F05BFD022808BF01265D49086837
:20344C00C0F38150012806D151F80C0C0127010E07FA01F006435848584F594D0078386804
:20346C00C0F346072F6005F059F92C46012805D107F03CFD022804BF7F1C27603FB1FF22A9
:20348C0004F140013846401E01F8012BFBD14D4800684FF0000900F0FF01FE2919D0DFF801
:2034AC0024C100F0FF03494601229F427FD902FA03F31E427BD100F0FF00201880F84010B1
:2034CC005CF8040F43EA0909491C00F0FF03FE2BEBD1092001F09AFC3A480021242208233A
:2034EC00606001A808F02EF94FF0010804F1240001AA8DF81C80414606F068FD236843B3A8
:20350C00002794354FF0040BBA4608FA07F0064219D119EA000F04BF07F0FF0141F4C04134
:20352C0005D0E019274990F8400051F82010264802F05CF9F8B24FF0FF3107F047FB23686E
:20354C00C5F800A001E0C5F800B07F1C2D1D9F42DBD30AA800213022082308F0B7F8002524
:20356C00FF2010210AAB1290184A009504F1080005F00CFF16A828220823294608F0E8F82A
:20358C0004F1600016AA1C9511491D952B4605F0E1FF104951F80D0C20F4F85040F400506C
:2035AC0041F80D0C4746C1F8FF7F0B4E376021B0BDE8F08FB43F00506E2300208012084036
:2035CC009C2B002048BA0000007FC767F5AB0000158B00000D300940080009402DE9FE4FCF
:2035EC000D4681462868D9F80440D9F80870002800F0B68008F070F8D4F8881021B108F0DB
:20360C0064F903202874ABE04FF0010B85F810B0C4F8885008F059F994F8A40038B194F8EC
:20362C008D205149D4F89C00114306F04FFB6E6808F052F8804694F8D80050B916F0704F2B
:20364C0002D1042006F072FB022006F06FFB84F8D8B0404608F039F9D7F80080D8F80400AB
:20366C0040F00200C8F80400D9F80830D9F804C028681E689CF88C10009080B2B6F1804F2C
:20368C0000FA01F01FFA80FA14BF384E384EAF6838484FB99CF88C104FEA810E00EB0E0130
:2036AC008A690CF1A60109E09CF88C104FEA810E00EB0E010A690AEB0701491EB2607160D2
:2036CC00196843F6F07208310291009F31603901B7680190103902EA010040EA0701B16063
:2036EC001A68B2F1804F14BF234924496F682FB9019D7544AD6903F10E0605E0019D7544AE
:20370C00AD680AEB0706761E8D600E60029D4D608D6828438860DCF8A07018695969014398
:20372C00786800688162506A40F003005062D8F8140040F00100C8F81400207830B9616880
:20374C0004F16C05284601F097FC10B15846BDE8FE8F484601F098F92846002101F08CFC5C
:20376C000020BDE8FE8FC04600000680000500203004002010BC0000100500204004002081
:20378C002DE9F84F994692468B46064607F0A4FF5D4CB4F93620B4F934100AAF891A40F623
:2037AC00F8720A40082A02DB08F08FF840E0B4F93410491C6FF31F31A186B4F9348008F013
:2037CC0084F84046811000EB517121F00701401AC10001EB4011651806F1680007F030F930
:2037EC0005F59C75C5F808B085F812A0C5F80490EE604648A5F8108097E80C0020210027C1
:20380C001940104005F1180383E8030004F1240085F824700368002B5AD1294606F02CF800
:20382C0048B9B4F9340000F6FF706FF31F30A0866FF0010865E0A6F88C8007F04DFF86F846
:20384C008E70A17A41B1617831B10121E172A772E7712179491C217108F037F8A06A0028C6
:20386C004FD1607800282FD1207A012849D007F033FF0646607A00BBA86804F0B7FE254A0E
:20388C002349E3681268086040B9304608F01DF804F1CC00042107F061FC32E00968DB6807
:2038AC0004F1A800C91AB1FBF2F108F050F804F1A80007F0AFFC304621E0304608F005F88C
:2038CC001549012008701CE0192007F0B3FD18E007F002FF0746294604F1240005F0CCFF84
:2038EC00002818BFA6F88C8008D1B4F934006FF0010800F6FF706FF31F30A086384607F040
:20390C00E4FF4046BDE8F88FD00F0020F1EFFF9F3C2E002014C20000382E00202DE9F0435A
:20392C0004466668A7680D46ADF1340D07F0D4FE3178012903D107F0C8FF0020A3E04FF012
:20394C00010886F8008007F0C0FF287870706878B07068687060A868B060E868F06028692D
:20396C003061287D3075687D7075A87DB075A869B061287F3077687F7077A87FB0774FF081
:20398C000009C6F82090C6F830904D4675627563B562B56386F82C50102386F83C3086F820
:2039AC002D5086F83D50786801F030FA204601F055FD204602F0AAFA70B934480068C1689D
:2039CC0038688847786801F0B7F907F085FE357007F07BFF2C4655E001A82946302208231F
:2039EC0007F074FE0694387BCDF80090284A0990B96801AB06F1680005F0C8FC01A82946A8
:203A0C002822082307F0A4FE05942249386901AA2B46079006F1840005F09CFD01A8294613
:203A2C002422082307F08EFE8DF81C80B07838B906F1B800294601AA06F0C8FA16483061DC
:203A4C00707838B906F1D400294601AA06F0BEFA1248F06001A829462422082307F05AFE6C
:203A6C000695ADF814500E49079406F1F0000A2201AB05F09DFF0B4A06F154000421234626
:203A8C0006F058FD20460DB0BDE8F083D00100107D4B00004988000069B8000049B80000F8
:203AAC0099620000D1B400002DE9FC415D4C564D564EDFF85C81594F94F8E410481E0B28C2
:203ACC0000F29F80DFE800F0772C43062343062343067260042907D001220A2945F8212C98
:203AEC0014BF0220032004E02021012045F8211C024684F8E200002045F8390C0827C5F8AE
:203B0C00FF7FC5F8F37F45F8392CBDE8FC81052914BF09200620002584F8E40035606CE072
:203B2C0094F8E1700120383D002FC5F81B0004BF0620002102D00021F160032084F8E4002E
:203B4C00032045F8010C31603068800855D294F8E400012503280DD0002140466022052325
:203B6C00009104F023FE94F8E400062814BF0A200720D1E702200090002160220523404616
:203B8C0004F014FE0420C7E72249002622480E60012505600E2001F0CFF8022006F0AEF8A9
:203BAC0084F8E45084F8E360BDE8FC81002038600C2578601FE01A480068006801462020EF
:203BCC0088472C3D41F61D560F2000214FF4C072072345F8010C4046C5F80360022500955C
:203BEC0004F0E4FD404600214FF4C072072305F0A5F90120386084F8E45004F1780007F03E
:203C0C0009FBBDE8FC81C04639400C4038600C4000A00C402C500C4004800C4034600C405F
:203C2C00A001001060160020B0B5456884684F48297BADF1180D012916D0217E627E4C4B0F
:203C4C002F7E0143009143EA02010191494937F0010718BF081CA27E1043029095F88D0039
:203C6C000322FF2811D00DE0677E217E3843A37E019041F00041009143F000403E490290DE
:203C8C0095F88D00014304220391FE204DF82200694605F1900002F0EDF8C5F89C000028EE
:203CAC0008BF00205FD0287B344951F8200001282BD02068B0F1804F14BF22220A22217E5B
:203CCC00D5F89C0006F0DCFA2068B0F1804F14BF21220922617ED5F89C0006F0D1FA2068D9
:203CEC00B0F1804F14BF24220C22A17ED5F89C0006F0C6FA95F88D10FF2933D02068B0F145
:203D0C00804F14BF23220B2228E02068B0F1804F14BF21220922217ED5F89C0006F0B0FA9A
:203D2C002068B0F1804F14BF22220A22617ED5F89C0006F0A5FA2068B0F1804F14BF24224E
:203D4C000C22A17ED5F89C0006F09AFA2068B0F1804F14BF23220B2295F88D10D5F89C0047
:203D6C0006F08EFA012006B0B0BDC046000480A0004000800004C0A00020008010BC0000BB
:203D8C002DE9F04304466568A7680E46ADF1340D07F0A2FC95F8D910012903D107F095FDE3
:203DAC00002084E04FF0010985F8D99007F08DFD4FF00008C5F888803069286170696861F3
:203DCC00307E2876307B287330782870706885F8A480686070694146092828BF494685F840
:203DEC008C10387B01F012F8204603F0D7FEF87E85F88D002046FFF717FF50B9387B00F0A1
:203E0C009BFF07F069FC85F8D98007F05EFD44464CE001A841463022082307F057FC069431
:203E2C007879CDF80080234A0990397901AB05F11C0005F0ABFA01A841462822082307F094
:203E4C0087FC05941C49B86801AA4346079005F1380005F07FFB287878B901A84146242206
:203E6C00082307F06FFC8DF81C9005F16C00414601AA06F0ABF8114800E0B068A86003F0FF
:203E8C007BF9C5F8A000287B012808D1D5F89C0028B10B490160D5F89C0000B18460094A58
:203EAC0005F1C4000421234606F044FB20460DB0BDE8F083A55C0000E582000021B80000FD
:203ECC00D56A0000C1B60000F8B5414C201D0368B3F1FF3F08BF002304F020FC002876D1F3
:203EEC003C4E20683468070F04F0FF04802C28BF002404F013FC4FF0FF3578B1401E07D070
:203F0C00401E012802D9801E13D014E08FB112E0381C5CD0801E0ED114340BE03846401E80
:203F2C0055D0801E53D0001F51D0401E03D1163400E00A3465B2162D49DB27482749002533
:203F4C0001270560264E0F60264C376020680028FCD1274A161D2449244F306820F0030030
:203F6C0001433868C0080CD2106810F0030F0AD041F003003060106800F003000328FAD122
:203F8C0001E041F001011B483160006820B11A4800681846FDF7C2FB184819490560194F6C
:203FAC000A686FF35B4247EA0200086016490868C0F30130012806D10A681448104040F4E4
:203FCC0000320A60086020680028FCD1F8BDFEE718130050A0100050840460425C600C400D
:203FEC00082204430C00684204000020B03F00500040034080012843000120438C21084063
:20400C00482003400000390104000940FFFFFCFC2DE9F0430746880FADF1140DC0F08680CA
:20402C00494D454B434800261C352E605C1D45F81C0C207810B1012006F072FC434807F080
:20404C00E5FA40F60A08B146194601F138024E87BC68A2F8008091F84530C1F83C90107B8A
:20406C00668000F0F000107303F0F00040F0010081F8450000E01C46636813B118888045E3
:20408C00F9D16260607B00F0F000607301F1240007F03BFC806803884046C01F98421DD017
:2040AC00401C98421AD03B8BCBB197F8240097F82530C7F81C9000F0F00087F8240003F01A
:2040CC00F00040F0010087F8250007F11803CB63507B7E8300F0F000507300E04E61174871
:2040EC00016883680193C368406B00911022694620F0784040F0805003901148029301F04A
:20410C006BFE28680028FCD02E60012006F050FD012808D0607B00F0F00040F001006073F4
:20412C00084807F073FAB86845F81C0C05B0BDE8F083C04601010E04D00F00204C130050A5
:20414C0018000021B17E000000100440852100002DE9F04F0C464549CA7AADF12C0D8446D7
:20416C000592487B09900D7900958A7A488B4B8A0E7B91F805A091F802800492B1F846E052
:20418C0008904A7A088B0392CD7807900A7AC88A02920F6A0690CA79888A01928A79E14628
:2041AC00A9F54079B9F11D0F10D8DFE809F05B5553514F4D4B494643413F3C3A380F34316F
:2041CC002E2B2923201E1C0F19181716BCF1280F49DA604604F090FF21E0099EB246D04681
:2041EC00CDF814801DE00898079007980690DDF818E005E03831086820608888A08032E0A4
:20420C0070460AE0B1F8440009E0B1F8420004E0B1F8400001E091F83E00034612E02080E1
:20422C0021E0059804900498039001E03231E2E7039802900298009006E0019A87310DE087
:20424C0068310BE01846EAE7009D0BE02C31D2E7276008E0583100E048311022204601F027
:20426C00BBFD00E025700BB0BDE8F08F600C00202DE9F041434C94F8E700ADF1280D002856
:20428C006CD1384F387B01250021242284F8E750082384F8E60001A807F03CFA002604F1DD
:2042AC000C00069601ABADF814602F490796324605F07EFB2D4904F1300001AB324605F0D6
:2042CC0077FB2B4904F1540001AB324605F070FBB868014628468847DFF89C8025487B7B25
:2042EC000078D8F80410C1F381571BB1032F03D184F8E150032F16D0022F14D0012F26D1F7
:20430C0003201E4C009031464FF040521C23204604F04CFA009531464FF4007209232046FA
:20432C0004F044FA13E0022005F000FD032F0CBF4FF47A7142F21071114800685434B1FB63
:20434C00F0F1204607F003FB204606F063FFD8F80000C00802D2304605F0E8FC0AB0BDE83D
:20436C00F081C04604C10000D765000009620000616900006E230020B03F005000A00C40A8
:20438C0014C2000060160020F8B506F027FE404E3E4F0446A00823D3B96A09B33D46002058
:2043AC008B690A6AA86204EA0300104340F0020006F1080208628B6910689843106001F1F5
:2043CC00180090E80C0030681A1C9043306005F1300005F051FA022105F1CC0006F0BEFE07
:2043EC00B86AA10815D200F118020CCA002122400B40002B08BF002A0BD08169056A0C40B4
:20440C00F8622C434FF48041046207F1CC0006F0A5FEB86A002837D107F12404204607F031
:20442C0074FA051C30D0F868E968884226D1A86804F0DCF817490860E0B906F10801A86925
:20444C000A6810430860326805F1180393E80300081C1043306000233361A86846F80C0CD6
:20446C0006F1100000680028FAD0204606F0CEFDBD62F8BD086803F053FAF8BD07F1CC00AB
:20448C004FF4805106F06AFEF8BDC046D00F00200C1004403C2E00202DE9F0430746ADF1C6
:2044AC001C0D07F06DF905F0F9FB4FF000090646CDF8009007F004F930F0010002D0009819
:2044CC00B04202D16FF0040066E078684C4658B1B0F1FF3F05D001A905F0C8FB30B180462A
:2044EC0059E04FF0FF3000E02046019006F098FA019D4FF001082D1802E00A463BE001939E
:20450C007068019900F0B8FD00282DD003A803F04BFCD8B99DF8100002A905F0F7F888B968
:20452C00BB68BDF808009DF81210059A984748B1BDF808009DF81250B881059BBD73C84696
:20454C003B6111E00599684605F058FE0198641CB0F1FF3FD4D00028D2D006F061FA2B1A2F
:20456C0002D001989842CAD2009F06F07EFC06F1080547B13A4652F80C1C0029BDD1296809
:20458C0042F80C1C2F6006F019FE24B1706802F063FF641EFAD1404607B0BDE8F0837047B7
:2045AC002DE9F84F0F460146D1F808A04E683846203862D0401E5CD0401E57D1307B92F882
:2045CC000080012814BF324D324DB8F1FF0F45EA08050AD196F88D10FF2903D0D6F89C00F7
:2045EC0003F02AFEFF2080463DE0D6F89C704FF0FF34002F49D028480168EAB2914244D999
:20460C00834621460BF12400814600F035FDE8B20BEB800BDBF8940070B97B68E9B201200B
:20462C0088401E49CBF894702A4618437860384605F03CFE002700E00127484602F00CFF6E
:20464C001FBBDAF80000B0F1804F14BF23220B22D6F89C00414605F013FED6F89C0096F8FE
:20466C008D1003F0E9FD86F88D800DE06FF001040BE0002486F8A44007E0317B002001298E
:20468C0008BF012086F8A40000242046BDE8F88F0004C0A0002000809C2B0020007FC767B6
:2046AC002DE9F04707467D68D7F8089090460E4607F012F88246A86A002864D105F1F000C0
:2046CC0006F0BEF90024EC772E6250466C6207F0FCF807F001F82F4E3378824623B90220DD
:2046EC0005F024FB01203070504607F0EEF82A49086840F4807008603846414604F062FF9D
:20470C00A862C0B93846414603F05EFEA878D0B9A96805F1B80000F0AFFCE8B9AC621020D4
:20472C00E8774946284601F013FA06F0D5FF8246307840B323E0D9F80010886B40F02000BF
:20474C008863A87810B12046BDE8F087A96805F1B80000F091FC10B1686ABDE8F087384696
:20476C00414603F031FE1020AC624946E877284601F0EEF906F0B0FF8246307818B1022012
:20478C0005F0BCFA3470504607F09FF84FF0FF30BDE8F0876D230020301000403D4A10B594
:2047AC0001469068046806F08BFF2070086A2061486A6061886AA061C86AE0610868206274
:2047CC00486860628868A062C868E06208692063486960638869A063C869E063086B206430
:2047EC0001F140006064486BA064886BE064C86B20652078B8B1401E12D0401E06D0401E3E
:20480C001CBF0023181C16D1002011E006F0B8FF606006F0B5FF036A06F0B2FFC0690AE024
:20482C0006F0A2FF04E0206D00F0FF0006F0FAFD606090695369E060D168A360096851B124
:20484C00401EB0F1FF3F06D0401C13F8012B401E01F8012BF9D10E49D1F8040D91F8283D3A
:20486C00A365606591F8292DE265B1F82A3D2366D1F82C2D6266D1F8303DA366D1F8342D4D
:20488C00E266D1F8383D2367D1F83C2D626710BD00E000E0E4190020F0B5ADF1340DFFF7DD
:2048AC00E7FC334908682822082340F00200086001A8002106F04CFF2E4E2F4905240023C3
:2048CC0001AA079406F1CC0004F044FE00213022082301A806F0FAFE0025FF271921274A62
:2048EC00ADF81C5001AB099706F14C00009504F04DFD2822082301A8294606F029FF204925
:20490C00079406F5807001AA2B4604F023FE01A829463022082306F0D9FE0124ADF81C404C
:20492C00099706F168001A2101AB164A009504F02DFD15492A4606F1A800134605F038F887
:20494C00124806F063FE03F0E9FE2B46012808BF231C86F8A550B57135727572B572F5726B
:20496C00F47173714FF6FF70A6F89C000DB0F0BD00200940D00F0020D9B00000C1A6000032
:20498C0025550000057F000065AC0000595900002DE9F84F00298346009106DD02460098A7
:2049AC000021401E42F8041BFBD10098DFF8C880DFF8CC900028C8F800B012DD2F48009CC3
:2049CC000768002537F8020B38B1D9F80000AE003158002088474BF80600641E05F1010554
:2049EC00F0D1284F41460120D7F80080C880B8F1000F22DD4FF0000A00980127002817DD58
:204A0C00ABF104060446002556F8040FB0F1FF3F04D0D9F800106958884730600021B0F19E
:204A2C00FF3F08BF01212D1D641E01EA0707EBD137B90AF1010AC245DEDB04A006F0FAF97F
:204A4C000D4900200860BDE8F88FC0467864632E72756E74696D652E537461727475703A6E
:204A6C0020276D61785061737365732720657863656564656400C046A41C00207CC200008C
:204A8C0080C2000078C200002DE9F84307467C68BE6806F021FED4F8881000295FD006F01F
:204AAC0014FF3168486820F0020048603168486A20F003004862D4F8A05070693169084352
:204ACC0069680968C1F804053168486920F001004861306801250562384605F03FFDD4F822
:204AEC008800D0F8048006F0F7FD814694F8D80058B118F0704F02D1042005F0FFF80220EC
:204B0C0005F0FCF8002084F8D800484606F0DDFED4F88810087C042803D003200874D4F87B
:204B2C00881032697069D4F8A0301043854058680068C5623068B0F1804F14BF0A480B48DA
:204B4C000E68806800258204A6EB9250401E08603846A268C4F888509047BDE8F88306F0FE
:204B6C00B4FEBDE8F883C04600050020300400202DE9F8430746D7F80880D8F800007D682E
:204B8C00066C16F4F06F466425D1F00911D2700951D395F83C00AC6B401E844288BF041CAA
:204BAC003846214604F098FBA86B001BA8630DD041E0A96B384604F08FFB95F82D10A86361
:204BCC0011B9002837D101E00020A86305F1840004F0AAF82FE0F00A0ED3D8F800000021D8
:204BEC0044684160A96B04F00F04202988BF2021384604F071FB1AE04FF000094C4602E0DC
:204C0C00A86B401EA863A86B88B13846012104F063FBD8F80000446814F00F04C0F80490EF
:204C2C00EED0286B401E2863686B401E6863EC77384602F06BFAB0090BD3A96A49B10E4602
:204C4C00384604F0BFFCA86218B93846311D03F0BBFBBDE8F88370470FB400213222F0B517
:204C6C0005AFADF13C0D684601F0F4FE3E68002527F00304241D2D2749E005F80D0016F83D
:204C8C00010F6D1C252846D116F8010F633834D0401E06D00B3824D0001F1BD0401F20D08A
:204CAC0034E0E41C24F00304241D54F8040C002803D505F80D7040426D1C0A2105F0C6F8B9
:204CCC0003460146684605F0E3FF184606F0E0FA45191BE0E41C24F00304241D54F8041C64
:204CEC0009E0E41C24F00304241D54F8040C082105F0ACF801460B46E4E7E41C24F00304C7
:204D0C00241D14F8040C05F80D006D1C761C307818B12528B8D00028AFD1064800680D95BF
:204D2C0069460A2201F0D6FC0FB0BDE8F04004B07047C046D4C100002DE9F843044606F09E
:204D4C00CBFC81462D48021992F8ED10491ECFB2002F82F8ED704BD12B4D05EB84052E7801
:204D6C00698836F07F0788461AD1F10911D24FF08054D4F8B801806901464046884704F5DE
:204D8C00DC742068406B0146404688470228F8D121E000EB8800D0F80011002088471AE0BF
:204DAC004FF08054D4F8B801006A014640468847D4F8B801806A014640468847D4F8B801B9
:204DCC00006B01464046884701210D4A0D48116001688908FCD306F03F003F2801D0FFF755
:204DEC00ABFF687800F03F003F2801D0FFF7A4FF484606F06AFDBDE8F883C0466016002076
:204E0C002820086028200840FCBA00002DE9F041064606F061FC2D4D8046A91991F8ED0032
:204E2C00421C002881F8ED204AD1294C04EB8604277807F03F003F2801D0FFF7E7FF607890
:204E4C0000F03F003F2801D0FFF7E0FF668837F07F001AD1F80911D24FF08054D4F8B8010F
:204E6C00406901463046884704F5DC742068406B0146304688470128F8D121E005EB86057B
:204E8C00D5F80011012088471AE04FF08054D4F8B801C069014630468847D4F8B801406AC2
:204EAC00014630468847D4F8B801C06A0146304688470121074A0848116001688908FCD322
:204ECC00404606F002FDBDE8F081C04660160020FCBA000028200860282008401EF0040F82
:204EEC0014BFEFF3098169468869EFF3118102B400B5DFF8A4E0F047DFF8A8E0DEF8001011
:204F0C0001EA0000CEF800005DF804EB1EF0080F03D101BC80F31188704704BC1EF0040F36
:204F2C0014BFEFF309816946A1F1200114BF81F309888D461B4B1868086040F20110186010
:204F4C004A604FF08070C86117488861704702B401B4EFF3148100291CBF002282F314882B
:204F6C0002B402B4DFF834E0F04701BC01BC00281CBF022181F3148801BCDFF824E0F04718
:204F8C0004484FF08051016001BC80F3118800BF00BFC04604ED00E0A980000051B80000F8
:204FAC00D1B80000041A00205B4F00002DE9F0412C482B490860FEF731FA04F03FFA2D4C17
:204FCC000025032004F1180141F80C5F401E8D60FAD1241F062004F14C010A46401E22F842
:204FEC000C5BFBD10820204F204E0880204A8F60311D21F00303D71A6762E3612362E66955
:20500C0004F120089446184601E026F8025BB242FBD8BA104FF6FC7700F1E80600EB82023C
:20502C00394022F8045CACEB01016661E8221A8007EA0103EC3BA0F8E830284601F0C6FA82
:20504C00A061D8F80000606101F0BEFF03F056FF03F06AF906F0DEF92846BDE8F081C0460F
:20506C00C81C0020D18A0000EDA80000502E002068410020701700202DE9F0410D4606463C
:20508C00B5F1FF3FADF1380D09D045B12B496B4605A82A4605F08AFA05A9022001E00021E1
:2050AC0003200391264F8DF8100038682024EFF31188371884F31188708980BB002D04BF41
:2050CC0088F31188002036D006F0F4F9064606F057FB0290C0F818D004F0B8FC384669460C
:2050EC0006F02AFB9DF810000025022802D1039802F016F988F31188304605F06BFAEFF360
:20510C00118384F31188039810B106F01EFC03950298856183F311889DF810000BE07089C3
:20512C00401E7081039818B106F00FFC0020039088F3118801200EB0BDE8F08145A400000A
:20514C0038C200002DE9F04115460446A869A060686A98460E4608B92A4800686062286A59
:20516C00002806BF28480768071C06F0C1FAEB69A3B9002808BF391C03D03F1841427F1E45
:20518C0039400246E161606AE169434602F02AF82062206AB8B90120BDE8F081002804BFB0
:2051AC002362391C0BD01B1841425B1E01EA030020623F1AE869C019E061E0690140E161FF
:2051CC004FF0FF306062A6622869E06268692063A86A6063A88DA087A08F012803D10B49B3
:2051EC00C868401CC8602046414601F0F5FA0346404605F0E7FD002814BFD81C0020BDE8C6
:20520C00F081C0464CC2000050C20000A019002070B5304C0646A078002859D0B4F93600D9
:20522C00B4F93410884207D0B6F98C10304602224FF0E04300F0E2FB06F04EFAE1780029FC
:20524C0037D0491EC9B2E17099BB06F03EFB0025A570607840B1284602F062FB06F130009E
:20526C004FF0FF31FFF708FF06F1300006F077FB06F1680006F065FB04F1CC0006F071FB4F
:20528C0004F14C0006F04FFB04F5807006F069FB04F1680006F047FB04F1A80006F051FBCA
:2052AC00E5602570307C012812D10E20FFF744FD70BD06F00AFBE068864204BF0020E06090
:2052CC0006F1300006F04BFB06F1680006F039FB70BDC046D00F00202DE9F84F2E4B0028A6
:2052EC0052D0401E4BD0401E44D0401E0BD0401E4FD105294DD1106819460C310860177986
:20530C000F71BDE8F88F012943D1194610788F68002FC8703DD02148027800249846824698
:20532C00A24236DDA00037F800904FF6FF763D184E451AD0AE78C6B108F1140008F10302D7
:20534C00112105F0EBFF5FEA000B0ED0700804D3484601215A4601F02FFCA878800804D3C4
:20536C00288802215A4601F027FC9AF80020641CE4B2D5E701290CD11946891C07E00129FA
:20538C0007D11946491C02E0012902D1194610780870BDE8F88FC0461C140020600C002019
:2053AC00F8B506F057F906F061F9044604F00C000C2845D0E0081ED204F0FCFF234E376834
:2053CC0005460120014605F0A9FB31686943884211D21F4C8220B0FBF7F0291A204606F045
:2053EC00B6FA204605F016FF0120FDF74BF9204605F026FB25E0200922D21648610939BFCA
:20540C00016821F00101016841F0010102460160D2F898004FF0805440F00300C2F89800C5
:20542C00D4F8B8018069014620208847D4F8B801094C806B2168804701202060206800E07E
:20544C0030BF06F00DF901F003FFF8BD14C200006C1600208C2108402C200940F0B52B4D8E
:20546C0005F12C0158C9ADF11C0D02AA58C20AC94FF0805682E80A0047688468D6F8D001B9
:20548C00C16820688847216821488A6B10408863206840F2F271416497F83C0097F83D10F5
:2054AC00C0100DEB80008068084321684863684605F0A0FFD6F8D001397F466805EB810178
:2054CC00BA698B68797F206855F821101943BB7F05EB8305AB690B430199B0470D490A1F2C
:2054EC00106840F010001060086840F001000860A07D0027FF2802D0E07DFF2800D11FB10D
:20550C00086840F44040086007B0F0BD94BB00000DF8FFFF301000402DE9F04106F0DCF8AC
:20552C00DFF8A8800646D8F8A00010F4602F2AD0400CC4B2600807D2A00803D2E00828BFC8
:20554C00022402E0012400E00024651D68B202F027FDD8F8A07004F111010120884027EA7B
:20556C0000013046C8F8A01006F0AFF908EB8400D0F88C7057B1D8F88800294600224FF02F
:20558C000063B84702E0304606F09FF9D8F8A00020B108F58070002105F0E0FD98F8A50061
:2055AC00800810D3D8F898703FB1D8F888006FF0010100224FF00043B84798F8A50000F02B
:2055CC00FD0088F8A500BDE8F081C046D00F0020F8B52A4C04F1180004F1100100F04AFC16
:2055EC000028606008BF002047D004F12406304605F030FE002584F8245021486063314649
:20560C0084F83050284604F0A9FB2F46E06000B10127002830D0AB208DF8000005F0DAFEA9
:20562C006846012104F0E2FB2F4600B9012705F0C9FE1FB102F060F800B12F46C7B103F000
:20564C003DFD002808BF2F1C14D004F1440000E0083007683FB1017922789142F8D14179CC
:20566C0062789142F4D1A060006800B101252F46012F01D002F06EFB3846F8BD0018002031
:20568C0000093D002DE9F0412A4C0546A0781F4616468846ADF1300D012803D0FFF7FCF848
:2056AC000120A070B8F1000F09D0C5F8048036B1AE6006F011F8E17819B106F006F90020AF
:2056CC0033E0491CC9B2E17006F0FFF801241FB9684605F067FE6F46386828607868E86083
:2056EC00387A00217822287405F1180001F0B2F903A800212422082306F024F88DF82440B3
:20570C0005F13000002103AA04F060FC03A800212422082305F0FEFF0549099505F16800C0
:20572C00002203AB04F044F928460CB0BDE8F0817DB80000D00F00202DE9F0414568876805
:20574C0014460E4605F0C8FFA96B29B106F0BDF84FF0FF30BDE8F081AC632E630024EC778F
:20576C006C6306F0B2F805F0B7FF1E4E8046307820B9022004F0DAFA01203070404606F029
:20578C00A4F81949086840F4007008603968886B40F4FA6088636878002818BF201C1ED16C
:2057AC00696805F1D400FFF767FCB8B9AC633968886B20F4FA60886305F08EFF0746307805
:2057CC0018B1022004F09AFA3470384606F07DF81027696B286BEF77401A2863686BBDE85C
:2057EC00F081C0466C23002030100040F8B50D46EEB2290824BF25494D40254AB300D158FD
:20580C0085EA01040440C4F3006C224C00EA050781433C4000F4E0272143B7F5E02F01D111
:20582C004C0E15D300F4E0245CEA040710D001F4E027B7F5A02707D0B7F5803704BF21F470
:20584C00003141F4A02103E021F4803141F4C021114CD150C10D04D3A4F18001C5F3805293
:20586C008A55000E11D305F037FF290E03D201210022B14002E00121B1400A46503423688B
:20588C008B431A43226006F020F8F8BD006000A000100840FF7F077F802002402DE9F04107
:2058AC000E46294990461C4606AF8C4672680878BB8851783F881278002502EB012242F633
:2058CC002321521A29D0521E052A18D9921F0CD0263A34D1072F30D8C7F10700984298BF63
:2058EC0083B2674407F1080121E0B84225DBC01B9842D8BF83B22380DCF804000BE0F06881
:20590C0005F0C6FC80B2B84217DBC01B9842D8BF83B22380F06839180AE0082F0DD8C7F11B
:20592C000800984298BF83B207EB0C010F31238040461A4600F050FA03E0072501E0258056
:20594C000A252846BDE8F08148120020042998B545D1294C04F1240005F0D7FF40B994F8A0
:20596C00A500400838BFE06804D3D4F8880000E0C068E06041681A4A09781160406811685C
:20598C00007888422AD1022004F0D0F91120FFF73DFA01202072E168087C10B1A0790128FE
:2059AC0003D00E20FFF732FAE16849680D488F680FB9CF681FB10021C1610B4F07600B4A4A
:2059CC0040F2FF7111600027876109494161094805F01CFE192003F063F998BDFEE798BD2E
:2059EC00D02108400010044051000706000004600200004089790000D00F0020F8B51F46F7
:205A0C0016460C46054605F03DFD2549B1F93420121B04D4B1F93620A24204DA0CE0B1F989
:205A2C003620A24205DAB1F93620B1F934309A4202DC03F0F1FF30E0A21004EB527222F00F
:205A4C000702A41AE20002EB4412891801F59C74214691F8242012F0070F17D1114A4B6865
:205A6C009A4202D04B68AB654A6005F1500181E8C00003F0D1FF05F130004FF0FF31FFF741
:205A8C00FBFA05F1600494E80300F8BD03F0C4FF94F8240010F0070FFAD102200021F8BD38
:205AAC00D00F0020258400002DE9F84F804608781C4616460AAF022831D02348DFF88C908F
:205ACC00D1F804B08569102282464946584604F003FE002740B9002D33D08AF801400120FF
:205AEC0041463246A8472CE009F110015846102204F0F2FD10B925B30220F1E709F120012C
:205B0C005846102204F0E8FD90B9012C05D13078002818BF8AF80A0013D1802711E0486825
:205B2C004278007842F6021500EB0220854201D00A2706E0388832460090404601F0BEFC23
:205B4C0007463846BDE8F88F40150020BCBA000070B50D4629680646886B20F020008863F4
:205B6C0023482C7D0168A14213D900EB8400F36CD0F894108B420CD105F0AEFD1D4AD032E0
:205B8C0013680121A1408B431943116005F09DFE2C7DF06C2146012203F03AFEF06C297D94
:205BAC00002204F06DFBF06CA97D002204F068FBB078012806D006F1B8004FF0FF31FFF725
:205BCC005BFA03E0296888690009FCD2F06C297D102204F055FBA97D0020FF2902D0EA7D09
:205BEC00FF2A00D118B1F06C112204F049FB70BD9C2B0020002002402DE9F843254C07468A
:205C0C00E06890460E46B84218BF03203BD102F09DF9051C36D405F05FFD1C4B814605F0DF
:205C2C000F0046EA002626F0030143EA0100C4F8840004F06BFC00F0FF0001281AD1700B92
:205C4C000FD305F10C010120114A84F8A450884094F8A56011688143116046F0040084F8AA
:205C6C00A500C4F8887004EB8500C0F878800127277004E0284602F093F96FF00105484619
:205C8C0005F023FE2846BDE8F883C0460100030608100440D00F0020B0B501468B681C68C6
:205CAC00E26948682262520824D2D0F8A01049680A685D69D2F80415294206D01C68616A35
:205CCC0021F002016162C2F80455D2F8042519690A4230D01A68516A21F001015162D0F842
:205CEC00A0205268196912683830C2F8041503F01BF8B0BD1C68626922F001026261D0F885
:205D0C008870AFB9626822F0020262601C68626A22F003026262D0F8A0005A6940681C69F2
:205D2C0000682243C0F80425084604F017FCB0BD0846FEF7A9FEB0BDF0B520480127F84221
:205D4C0001D002F079FC204D204F214EBD4206D203CD0478A4003459401CA047F6E71D48DB
:205D6C00002800D08047164D164FBD4202D210CDA047FAE7F0BD03251BE0416808300A1C41
:205D8C002A400BD11A1C2A40AB4305D0046804300C600431043BF9D1131C05D00478013053
:205DAC000C700131013BF9D1021C2A4001D0A84304300368002BE0D17047C046FFFFFFFFAB
:205DCC00000000000000000078C70000B0C700003CC70000C5840000002A4AD05FEA000C1C
:205DEC008B071CD1830722D1102A08D370B4103A78C978C0103AFBD270BC103238D0042AE4
:205E0C002CD3082A05D30C2A24BF08C908C008C908C008C908C092072AD0920F22E00B78D0
:205E2C000370491C401C521E22D08B07F7D1C30714D18307D8D0121F12D308C903801B0CF4
:205E4C004380001D121FF8D20AE008C903701B0A43701B0A83701B0AC370001D121FF4D2D1
:205E6C00121D05D00B780370491C401C521EF9D1604670472DE9F843224D884606464FF0AB
:205E8C00FF3105F124008146FFF7F6F800200CE0FF2909D02A688A4204D905EB8101D1F87E
:205EAC0094700FB1002627E0401CB8F1000F03D018F82010FE29EBD1002434607460012727
:205ECC00B46011E0FF280ED005EB80000B787268C0F8946007FA03F0104370600A680A4957
:205EEC00304604F0E3F9641CB8F1000F04D008EB84010878FE28E5D1484601F0ADFA3046D4
:205F0C00BDE8F8839C2B0020007FC767B0B5456884682349607DA27DADF1180D40F0004028
:205F2C000090207D0027FF2A41EA000001904FF0020002D0E27DFF2A00D13FB1E37DA07D43
:205F4C001943039140F0004002900420FE214DF8201005F140006946FFF78CFFE8640028B1
:205F6C0008BF381C1AD0617D0F2204F089F9E86C217D102204F084F9A17D3846FF2902D060
:205F8C00E27DFF2A00D140B1E86C112204F078F9E86CE17D122204F073F9012006B0B0BD35
:205FAC000000C0A0F8B50546880F3CD31E4E30681E4F20F0020040F400703060032147F8BD
:205FCC00041C41F23004BC60012139605022BA6039604FF4CA63BB603960154847F80C1C4A
:205FEC0005F014FB134FB81C0078012803D005F1300001F031FA00240220346003F07EFE5C
:20600C001120FEF799FE287C10B90E20FEF794FE3846094A44721178847221B11470CC303D
:20602C00042105F09BF8F8BD000004600C41044059590000D00F0020382E00202DE9F84375
:20604C002020EFF3118780F31188214CA068012105F071FC4FF001094FF00008656921688E
:20606C00A4F81C906A1A2168A4F81E80461B401A904227D387F3118840464519361A484629
:20608C00294600F05DFDB042F7D92021EFF3118781F31188E18B012903D14046294600F062
:2060AC004FFDB0F1FF3F06D0A169801B814238BF081C411901E0A069291804F02FFEA4F80E
:2060CC0020902560A4F81C8087F31188BDE8F883A81A0020B0B50446A768ADF1280D5FBB87
:2060EC000C2000F073FA071C1DD0684600212422082305F00FFB002306976A466168ADF8DE
:20610C0010301848059303F009FA386070B90820ADF824000C25ADF8265009A803F08EFD18
:20612C00384604F03FF86FF0030018E0E06878602069B860A7600AE004F097FE054638682A
:20614C0004F07EFC2069B860284605F037F83868616805F0FCFB386805F05CF800200AB07A
:20616C00B0BDC04625B60000FEB5044622481646089FC069618250F821201C4800681D4697
:20618C0090420DD01B480068009000220191184E029231888F23384604F022FE0120FEBD62
:2061AC00084602F05BFDA66068696060286AB0F1FF3F08BFFF2020740026E660288B002872
:2061CC000EBF301C0120E0600146A88C10B141F00200E060204601F039FD0346384604F042
:2061EC00F1FD002814BFD81C301CFEBD00C20000BAC20000E0C10000E41900202DE99843C2
:20620C0005F06AFA1F4CDFF87880814604F1E000007850B94446A0680146022088470746AB
:20622C00102002F077FB2FB320E001F0EFFA002820460FD1144909683222B2FBF1F101B929
:20624C00012100F13004204605F081FB204604F0E1FF0FE044460022A16880F8E02002209C
:20626C0088470746102002F055FB1FB1A068014603208847484605F028FBBDE89883C04607
:20628C0004C100006016002014C200002DE9F04107467868BE680446F03004F0D1FB306865
:2062AC001B4980690968C0F3C00008BB05F014FA184D8046287820B1022003F01FFD0020EE
:2062CC002870404605F001FB3168134D886B20F020008863286820F480702860606A216A2B
:2062EC00091A21622369626A38469847BDE8F0814FF4FA70B0FBF1F1012998BF0121F03420
:20630C00204605F024FB204604F084FFBDE8F08114C200006D230020301000402DE9F041B7
:20632C0006467568B46805F0D7F9A96A39B921688969090903D205F0C8FABDE8F0810027EC
:20634C00AF6205F0C2FAA17D3846FF2902D0E17DFF2900D118B128462146FFF7F9FB216871
:20636C00886B20F0200088630D49086820F48070086005F0B1F90B4C8046207818B1022092
:20638C0003F0BCFC2770404605F09FFA686A296A091A29622B696A6A30469847BDE8F081B5
:2063AC00301000406D2300202DE9FC41844608AF0878DFF87C803F88FF24022829D14E68B6
:2063CC007578307842F6021600EB0520801B1AD04DF2EF65401B18BFB0F1020011D177B9BD
:2063EC00012B0AD11078CA681070C968474600258F4214BF02242C1C0EE00D250AE00B2521
:20640C0008E00A2506E00097604601F057F8054600E00125FF2C07D04046001D006818B1CF
:20642C00016809B1204688472846BDE8FC81C0461C14002070B51E4DAC68064604F0C2FD6F
:20644C004FF47A71001B4843030C04F04BF82969401A48BF404240F6B8319B19994210D310
:20646C0006280EDAE9688C420BD8286848B1114A091B51438A0C02EB1141884288BF011C59
:20648C0008E00D49486840080ED208687D2100F0FF004143C82905D3B1F57A6F88BF4FF477
:2064AC007A6103E0C82101E04FF4FA61084670BD142E002040420F00AC3F00501F4930B5B4
:2064CC001822ADF1740D17A8FFF786FC0EA804F0C1FD4FF41651149100208DF84E008DF8F1
:2064EC004D008DF84C008DF84F000EA903F096FC041C02D10BA004F09DFC204617A91822D7
:20650C0005F075F90E480568284669460A2200F0EBFC0128F8D10D9A2046694605F067F926
:20652C00F2E7C0464572726F72206F70656E696E6720746865205541525400C040C00000D9
:20654C00D4C100002DE9F04145688768D5F8A00006684468307888B1207905F08DF8012813
:20656C0009D120684FF00008C0F80480301D05F0DAF9404630702079FEF7DEFBD5F89C001F
:20658C0004F0BDFA3968486820F00200486005F11C0005F0C8F905F1380005F0E2F9387BC0
:2065AC00FEF7CAFB2878002418B905F16C0005F0D6F905F1C40004F0A3F905F08DF885F819
:2065CC00D94005F082F9BDE8F0817047F8B5001D84B214F0030002D0241A241DA4B204F0B7
:2065EC0044FC1A4A102C014657691161C8BF9769388800221646C30BDD0319D126B9844234
:20660C000ADD3A46012617E01388C3189BB29C42138011DC174618469FB1001B80B2042844
:20662C00B4BF3C88385344F400443C803F1D08E080F40040002680B2C71938880028DAD191
:20664C000027084604F0BAFD3846F8BD6C17002030B51A4C0546606801210180A1680868BE
:20666C00ADF1840D08B903A808602846FEF796F8032004F0C7FE12480068016811B1A06849
:20668C00006888470F48104C104B0068218800F0FF0218680F2A04D30D48006840F2913364
:2066AC0001E040F28E3300900192A86B02900020024604F095FB21B030BDC046E419002065
:2066CC00FCC1000004ED00E0BAC20000E4C10000E8C100002DE9F84304461B4800682718B1
:2066EC001A48006826181A480068884611462018FEF7C2FC80B12020EFF3118980F31188B3
:20670C00144B1868201805F011F8054618682018A84204D189F311880020BDE8F8832069B8
:20672C00401E206189F311886268414605F10800FFF752FB3846294604F01AFB304600F06B
:20674C008BFE0120BDE8F88320C2000024C200002CC2000028C20000B0B51D481D4AC16968
:20676C001548C2F8081D07681448D2F8083D98420ED06FB1124B1B6800240F2C2CBF1D1CBC
:20678C000568001D641C0D607F1E01F10401F4D10D48D2F80C7D0B4D0168202427F47F4096
:2067AC0000EB01202918C2F80C1D084B82F8224D1868C2F8140DB0BDECC1000010100000CC
:2067CC0000C200000000FA0504C20000F4C10000E419002000E000E070B50D461B4A1A4954
:2067EC0004462B4603F0B0FC2061284604F0EAFA40BB184801220021A56803682275144862
:20680C00A161002D18D4A1688A408069A168E26004F086FF206404F04DFEEFF3118506464A
:20682C00202080F31188204604F0A4FC85F31188304603F0CFFE05E0E160C01821462064D6
:20684C0004F096FA002070BDB5AD0000D5930000A019002040C20000F8B50E460546144610
:20686C00A969EA691F462046FFF7B6FA64602FB1EA6920463946082302F0DCF8E468D6B98E
:20688C00E8686969AA68079B04F08CFF071C08BF002020D004F07AFF696839606968496844
:2068AC007960696849680F6069684F6004F012FE07F1080605E06A6930460021083A00F0F7
:2068CC00C9F82868B0F1FF3F18BF3060286908B1616831503046F8BD70B50C461C49CA6848
:2068EC00824218BF03202DD191F8A500C2080AD391F8A420A24206D100F0FB0081F8A500EA
:20690C00002681F8A46004F0E7FE0646204601F047FB0D48210201F47F41084303F0F6FDAC
:20692C000A4A1168054604F10C030120984081433046116004F0C9FF05F0FF05012D0CBFDD
:20694C008120022070BDC0460100080408100440D00F00201CB5042004F02AF9022818D0AF
:20696C00032816D016480068C0F38150032814BF41F288324FF47A721248144C01685434EB
:20698C002046B2FBF1F104F0E2FF204604F042FC1CBD03200C4C009000214FF040521C2374
:2069AC00204601F003FF012000214FF4007209230090204601F0FAFE022003F09FF91CBDEA
:2069CC00B43F005014C2000000A00C40601600202DE9FF410E4605461A4C7188E08A81428F
:2069EC000CDCB188814209DBF088218B884205D13089618B884208BF18271FD0052002F084
:206A0C007BFB77888046F188B388ADF80270A08AADF806100C4AADF800003789ADF80430EB
:206A2C0011216846ADF8087003F043F8071C05D1A57304F1F000414602F01CFD3846009089
:206A4C00BDE8FF81600C0020BFB80000002213460A46194671B510F0030F0BD0002A82BF5A
:206A6C0000F8011BB2F1010210F0030FF6D1002A08BF71BD11F0FF0141EA0121042A18D3F1
:206A8C0041EA0141082A0FD30E46102A08D30C460D46B2F10F0312F00F0272C0103BFCD842
:206AAC0012F0080F18BF42C012F0040F18BF40F8041B12F0020F18BF20F8021B12F0010F64
:206ACC0018BF017071BDFEE7F8B586687568174995F88D3051F8232015491140154AA2F100
:206AEC0050073F684FF0010C43EA01040CFA03F1394218BF44F480041268614699401142B9
:206B0C0018BF44F4000495F88D1003F0DFF80B48094920430840814206D1D5F888100420EF
:206B2C0008743046FDF7B0FFF8BDC04600100840007F077FD0200240000006800000F8FFED
:206B4C002DE9F04780461A481A4C00682418204604F001FF0E464FF0FF374FF0000A814677
:206B6C0021E04D46284604F0F8FE8146A88A012819D1B8F1010F0ED1E86886420BD12869F4
:206B8C00002808BFA5F814A002D0E9684018E860A969E8698847A88A012804D1E868801B99
:206BAC00874288BF071C4C45DBD13846BDE8F08710C20000A81A00202DE9F0410E46154615
:206BCC0080464FF6FF71ADF1180D03AA03F0D4FF0246059232B300200090BDF80C00FF279D
:206BEC000DF11203294601904046029700F0F4FE041C12D16889ADF81000700804D34046F7
:206C0C0004A904F025F906E01D20009004A93B46404601F05BFE041C05D004A81B2103F028
:206C2C00B9FF00E01524204606B0BDE8F081704738B5054601201A4C68712879B0B904F0F8
:206C4C0014F92178002904BF6FF00704051C15D0491EC9B2217039B904F0B0FA606803F068
:206C6C0045FA0020687118E0054613E004F0FDF805462078FF2805D16FF00604284604F006
:206C8C009DFA0BE0401CC0B20128207002D1606803F043FA284604F091FA0024204638BDA8
:206CAC003C1C002070B50646B079F4680628A4F10C042CDA3079062829DA04F0D6F8154D83
:206CCC00B27991000C3501EBC20169184968E1B104F074FA30792071B0796071307AA071E7
:206CEC00B179880000EBC1002818F1684068083003F084FAB179880000EBC1002D186868CD
:206D0C00406800F0A9FB002070BD04F057FA6FF0020070BDAC17002038B519491A4C002053
:206D2C004822C1F8F30F94F8E200C1F8FF2F20B3012817D0022807D003281ED151F8310C49
:206D4C0000F05EF80B2016E051F8315C2846FCF799F940F2FF50A84202D8801CA842F1D269
:206D6C00082008E051F8310C00F068FC054800780028E7D0052084F8E400FCF795FE38BD79
:206D8C0039400C4012C100006016002038B544688568E06C03F0B3FE296817488A6B10400E
:206DAC00886316480068C168286888476868FDF7C3FF04F1680004F0B6FD04F1840004F097
:206DCC00D0FDA07818B904F1B80004F0C8FD607818B904F1D40004F0C2FD04F1F00004F08D
:206DEC00B0FD04F079FC0021217004F06EFD04F1540003F085FD38BD0DF8FFFFD0010010C9
:206E0C0038B51A4CA0F5C060D4F8B810C4F8D4000029B8BF49420028B8BF4042814220DA31
:206E2C00B4F8BC00124D30214FF47F4208230090284601F0BBFCB4F8C00004214FF4F8028B
:206E4C0012230090284601F0B1FCB4F8D00020214FF440620A230090284601F0A7FC0120D3
:206E6C0000E0002084F8D80038BDC0466016002000A00C402DE9F8438146EFF31188202062
:206E8C0080F31188174D154C134F012605F11C000660A4F114000660F86A016A1420884735
:206EAC00D9F81000810C14BF000C04202060386802682321002090470948066054F8180C69
:206ECC0020F4C02040F4803044F8180C2E6088F31188BDE8F883C046840100101820094090
:206EEC00800224430000244370B50546164800680C4611462818FEF7BFF810B313480068E5
:206F0C00281803F027FF6A680646204606F10801FEF762FF2020EFF3118380F311880C481C
:206F2C0000683146281804F007FC2869401C286183F3118807480068281800F08DFA01201B
:206F4C0070BD002070BDC04624C2000020C2000028C200002CC200002DE9FC4117460E4601
:206F6C0005464FF0020800F0C7FB50BB02F01EFE38BB05F0FF04C4F58074B44288BF341C81
:206F8C008DF800808DF80350280C8DF80100280A8DF8020004F01EFA6846042102F026FF9F
:206FAC00361B651920B93846214602F01FFF18B104F008FABDE8FC8104F004FAE719002E27
:206FCC00D1D1BDE8FC817047B0B5ADF1400D04F071FA044600213C220823684604F0CAFB20
:206FEC001148416806918168006804900F480068002205900E480891694601F0D9FE071C08
:20700C000DD003F032FF0546384601F07DFA30B1284604F0D3F8204603F0DCFA01E000F024
:20702C00EBFF10B0B0BDC04688B9000070170020A1B3000030B5401E4FF00004ADF12C0D8E
:20704C000AD0401E04D0401E21D1FCF72DFD1EE000F04CFD04461AE001A8214624220823AF
:20706C0004F058FB06940D4DADF8144009490794012201ABE63D05F1780002F099FC234693
:20708C002C2105F19C00044A009302F07FF920460BB030BD75780000256D000046170020B0
:2070AC00F8B5054604F018FB174CB5F98C10012607460C3CB4F93400E671401A06D4B4F943
:2070CC003600B5F98C1088420CD110E0B4F93600B5F98C1088420ADAB4F93600B4F93410DE
:2070EC00884204DD85F88E600020207007E005F1680003F0A5FC002000F012FCA672384631
:20710C0004F0E3FBF8BDC046DC0F00202DE9F04106467568B46804F0DFFAA96B21B3002763
:20712C00AF6304F0D2FB2168886B20F4FA6088630F49086820F40070086004F0CDFA0D4CD3
:20714C008046207818B1022002F0D8FD2770404604F0BBFB686B296BEB68091A29636A6B0E
:20716C0030469847BDE8F08104F0AFFBBDE8F081301000406C2300202DE9F041164D6C6837
:20718C002079ADF1380DFDF741FE04F0A5FA2F6880463878C8B901A800213022082304F0D8
:2071AC0095FA0695A079002609900C4A0096617901AB381D02F0EAF8012038702168084A82
:2071CC00CE6221688A6021684860404604F07DFB28460EB0BDE8F08114C1000005B8000009
:2071EC00000400202DE9FF41984607460C461346404603F0E7FD054613B904F0D9FA0346AF
:20720C00002F12BF381C0F4800681A462146434604F0F7FA061C10D11DB9404603F0D2FDF9
:20722C0058B90A48006800900197074D0294298800223423404603F0D3FD30460090BDE847
:20724C00FF81C04670C20000C0C2000058C20000164880B507683FB315498B6803EA530049
:20726C00C00E21D2134A106880081DD2486880081AD21068096810F0050F4FEA114101F058
:20728C00F00101F5E0710AD1B9420DD2190F38BF40F00100D90E38BF40F0040003E0B942B5
:2072AC0002D920F00500106080BDC04628500940AC3F005000000940D0B51E460346174849
:2072CC00082706600446037111F8013B7F1E637104F10104F8D136B112F8011B761E417381
:2072EC0000F10100F8D100BFD0BD84460B48E0B50D460827014606680A797F1E01F101017E
:20730C000CF8012BF8D13DB136B1017B761E00F1010005F8011BF8D1E0BDC046682900205B
:20732C00B0B5184C0546208C002701281BD1A08BC8B9A068012104F0FEFA2168421A236813
:20734C006169C91A91420ED30127A968AA68AF824118E9606169091A914211D9E968104651
:20736C0003F0DCFCB0BD5FB903F05AFBA78BA968012F0844E8604FF00100A88208BFE083CE
:20738C00B0BDC046A81A0020F8B570BB174C606848B3002080F31188202080F3118860684E
:2073AC0063692669F825B0FA80F0A5EBC0001B1805E06369B0FA80F0A5EBC0001B189E427E
:2073CC0011D2184604F0B2F90746184604F008F918B1B969606888436060384600F08EFCEB
:2073EC0060680028E5D100202080F8BD5C1B0020F8B540F6FF7C10F8014B00231DE0122FBC
:20740C0000F1010008D110F8015B2E0A24BF10F8016B66F3DF15EF198A1A521E12F8015BD3
:20742C007F1E01F8015BF9D103E010F8012B01F8012B5B1C6408082BDDDA6208F5D210F842
:20744C00012B057805F00F071201FF1C42EA25129445D4D1F8BD7047034670B52020EFF361
:20746C00118580F31188144800681C18181804F0B7F8B0B904F01EF80646204604F056F92B
:20748C00044601202074E06808B103F0D9FAA068294602F0E7FF85F31188304603F09AF8BF
:2074AC0070BD187A40083ABF5889401C0120588185F3118870BDC04638C20000F8B506AFE9
:2074CC003F880E4605463FBB022B23D15078147804EB002434F001001AD1F1680968284670
:2074EC0003F040FF844211D0F06806683146284603F026FA48B94FF6FF70314603F020FAB0
:20750C00002808BF112008D0058084700020F8BD8020F8BD0D20F8BD0B20F8BDD0B5044633
:20752C0004F02EF900F0F0FF071C08BF6FF002041FD003F09AFC0146A2880F48002324303F
:20754C0030F80C6F5EB902804760A26882602373786820610024084603F030FE09E0964205
:20756C0008BF6FF00204F6D05B1C062BE8D300F043FD2046D0BDC046881700202DE9FC416F
:20758C00154E0D4606F114042168804603F0EAFE093C4008F5721DD340460121002203F04F
:2075AC00EBFA07460197AFB1304610212246203003F0B4FE40890126ADF800006946ADF8A8
:2075CC00026040463D7003F043FC18B168461B2103F0E0FABDE8FC81401500202DE9F0417A
:2075EC00154D0C46E9689846814218BF032020D16260C5F888000A21218005F18406346007
:20760C0000F0A4FC071C13D4A770204601F028FE022808D0012806D006EB870646F80C8CDB
:20762C000120287004E0384600F0BAFC6FF001073846BDE8F081C046D00F0020134910B55C
:20764C000A684BF2F5214843040AC2F38140012806D102F047FF01F0A9FD604304EB905405
:20766C000C4901F1E500007830B90948006820F07F402418640802E0002081F8E500064893
:20768C000460210C41600123836010BDB43F005010200940601600203C600C4098B5044607
:2076AC0020208DF8000004F6FF706FF30B04001B00F6FF70000B1ED0074600F01DF8D0B9CB
:2076CC0002F074FAB8B9200C8DF801008DF80340200A8DF8020003F07DFE6846042102F06F
:2076EC0085FB10B103F06EFE98BD03F06BFE04F580547F1EE1D198BD14481CB500788DF892
:20770C00010003F067FE12480830006880680168C8684009FCD203F055FE03F05BFE0DF1E2
:20772C000100012102F062FB6846012102F046FB044603F047FE002C18BF6FF0010004D10E
:20774C009DF800004008E8D200201CBD78C1000004180020B0B5044603F0B2FF30F00100A4
:20776C0008BF6FF004041ED004F00AF8054603F07CFB01460D480622403030F80C7F6FB12F
:20778C00A388BB4208D1406800680022854208BF0122A260002403E0521EEED14FF0FF344F
:2077AC00084603F00BFD2046B0BDC0466C170020FEB5154C0D462169064603F0D3FD4008B0
:2077CC0021D330460221002203F0D6F907460197CFB1224602F120001021093203F09EFD52
:2077EC0002244089ADF80240ADF800003D7001992A1230464A70694603F02AFB18B1684611
:20780C001B2103F0C7F9FEBD4015002008B5012003F0CEF901281DD00F483421012200239D
:20782C0001F08CFB002808BF002014D00B48006802F0A8FE03F0C6FB0A4A93681168D060D2
:20784C00C01A074BA1EB91014343180C884228BF011C1160012008BD00A00C408000001087
:20786C0040420F00142E00201548134A1349E4300078801E0A281CD8DFE800F018130E1B98
:20788C00130E1B130E1B06C010688008FCD250688008FCD2FCF708B908688008FCD3FCF754
:2078AC0003B908688008FCD2FCF7FEB810688008FCD3FCF7F9B8C04634600C4038600C4054
:2078CC006016002098B5154B1B1D18680004070C21D002F007FE104991F90720824205DDF2
:2078EC0010F1800FB8BF6FF07F00C8718C88BC4210D80A68D3F8D40F801A801C1F2888BF80
:20790C001F203F1B4008C7404FF6FF70E719B84238BF071C8F8098BD482E00203010094028
