:10100000FFFFFFFFFFFFFFFFFFFFFFFFFFFFFFFFF0
:20101000684100201D88000089A5000089A5000089A5000089A5000089A5000089A500003E
:1C10300089A5000089A5000089A5000089A5000089A5000089A5000083AA000063
:20104C002DE9F04F0820ADF1940DADF82C000126ADF82E600BA808F00DFC7A4C9DF830005E
:20106C0020700D98A06004F138000AF042F841F2883204237449E06004F17C0007F042FA19
:20108C0000251F200621656008F042F90820ADF80A00ADF80C008DF80460ADF806503146DE
:2010AC008DF8086001AAADF80E504FF47A70ADF8100040F2053001F0C1F940F2063002210A
:2010CC000DF1060201F0BAF94FF44270152104F1500201F0B3F940F20730092104F12C0295
:2010EC0001F0ACF94FF44470314602AA01F0A6F940F2113002210DF10A0201F09FF940F249
:20110C001230022103AA01F099F940F2133002210DF10E0201F092F94FF44570022104AA43
:20112C0001F08CF9D449032007F0D4FE0620A02108F0EEF80720A02108F0EAF80820A021B4
:20114C0008F0E6F80920A02108F0E2F8A846CDF81480B1468DF818904FF481608DF8199034
:20116C0004218DF81A8005AA8DF81B9008F0B6F84FF48060314606AA08F0B0F840F202403C
:20118C0031460DF1190208F0A9F840F2034031460DF11A0208F0A2F840F2064031460DF195
:2011AC001B0208F09BF8032008F0D0F9042008F0CDF9C248C24A132107F0BAFD4FF0040A70
:2011CC000820C04EADF838003078ADF83AA080000F900EA808F04EFB00280CBF1098281CD4
:2011EC00B9498B46886038B109F028F9B74A0BF11400112107F09CFD08F0EEFDD04DE8600A
:20120C0038B308F0E9FD05F10C0739682861E8B108F0E2FD686120B9386809F069FC286925
:20122C0015E0E86809F00AF9286909F007F9686909F004F9C34A05F12000102107F078FD50
:20124C0007E0C0462005002019AE0000084609F04FFC206AA86104F1440009F04AFF0227C0
:20126C000323206152468DF81D70B7498DF81E3048468DF81F200DF122078DF81C0040469E
:20128C000A6809793A6007AA3971494603F034FF484649460DF11D0203F02EFF0220494699
:2012AC000DF11E0203F028FF032049460DF11F0203F022FF504605210DF1220203F01CFF19
:2012CC0005F1200704F11C002397B378CBF8040033BB04F1180096F801A096F8039070620B
:2012EC00182009F0BBF8071C1AD00421424609F0ABFD504608F096FF387287F80990404638
:20130C00B87206F14803FB6006F158023A6106F12001796109F0B2F88C4A394607F016FE19
:20132C000C2009F09BF8071C0BD00121042209F018FF04F12400B86009F0A0F8394608F05A
:20134C008DFD0120102108F01BF90220102108F017F97F4942F22F0008F0EEFD05F108072B
:20136C007C4E2297B01C2090083021900820ADF848000A27ADF84A704FF0FF33139312A803
:20138C0008F078FA002840F0AE80002000900827ADF850700923ADF8523014A808F06AFAA2
:2013AC00DDF858800028CDF8008040F09780BDF854004FF00109102853D120789DF856107F
:2013CC0088424ED1474638884FF6FF71814218D03878B02845D1787816280CD17888082199
:2013EC0008F0CEFC38B9484608F090FD00984FF00009606135E0397907F1080009F0B8F909
:20140C002FE0788800092CD3676957B360787B88401C607097F804B02493102009F01EF88F
:20142C0007F1080A071C1CD00221152209F099FE2498388187F80AB0C7F80CA009F01EF875
:20144C00B54A394607F082FD0746162F09D0042F07D060694088002108F092FC384608F069
:20146C0055FD0098002839D0B9F1000F36D0404609F062FB32E0C04619B40000E068074630
:20148C0009F076FE38B9384609F018FF876809F03BFB384600E000208046F8B107887F1E1D
:2014AC0016D07F1E17D187781FB1BF1E13D1022000E0002008A907F089F90CE0540F00206A
:2014CC00B8BC0000CC08002084100020C4BC0000807803F0E1F9404609F0FEFAE06809F0E7
:2014EC0047FE0028CAD06088C10810D320F00400608009F095FE02200DF1210107F066F92D
:20150C0028B9032001210DF1210203F0F5FD206909F02EFE00287FF429AF206909F0CEFE24
:20152C00804698F808106878012915D0022940F0EF80B8F80A00D8F80C1001F093FDE7E08A
:20154C00A811002040B6000046BD00001FB40000D1B30000A8170020B8F80AA0D8F80C70D1
:20156C0008280CBF4FF000094FF00409209A7978387800EB01201080B878F97800EB01202C
:20158C005080387B797B00EB0120F081B88807F10803F080F888219A308119681160B87B87
:2015AC00307403F025FF60B3307C022804D0032818BF4FF4F02001D14FF4F22010211AAA36
:2015CC0007F09AFA06F056FABDF86E00ADF85E00BDF86C00FF2808BF00201CA9ADF85C0013
:2015EC00096818A80160FF228DF86720BDF874008DF865009DF876308DF8663001128DF81F
:20160C0064104F44F978B87800EB01208010A88000236B801A462A70387A797AFB7800EB47
:20162C0001208200B978B87A01EB03218B10B3F5005F36DC002B34D0032804D0110B30D08A
:20164C00B2F5F83F2DD8B2F5805F01D0012828D0BDF85C304FF6FF71994208D03BB13F88C7
:20166C001FB1BB424FF0000200DA0122CAB1012814BF4FF400300020E861000BE8803078E5
:20168C00012802D003F0B4FE3070012804D05046022105F003FE3BE05046002105F018FF74
:2016AC0036E0E968504609F025FC40082ED350460821002209F04EF807461F9737B32398F6
:2016CC00229A102109F0F2FB08224089ADF87A20ADF878009DF85C303B70BDF85C101F9838
:2016EC00091241709DF85E108170BDF85E1018AA0912C1701168071D504639601EA909F061
:20170C0079F918B11EA81B2109F032F809F06AFB404609F0E1F9FAE637B10000C6492DE9B9
:20172C00F04F0122ADF1140D0490A1F130000260BE480768002FFCD0C348DFF8F892C02206
:20174C004438039009F1080A0260DAF80000800806D2484601904068000C40F0F00002E0F9
:20176C007220CDF80490B24AB64D002782F84C024846A5F1D0060F60C76856F8040C0296F6
:20178C00C0F3046009F0AEFC00EB2770401C162805DA10F10A0FB8BF6FF0090000E015207A
:2017AC00A64E00F01F00114640F4F850A1F864023068800828BF47F04067A149F80EA5F1DD
:2017CC003C04BE0E80F0010000F00100086086F0010000F0010088602068C0F38363C0F303
:2017EC008F26B80C22D247F3072000280BD541420020760805D15B0806BF01231E1C4FF645
:20180C00FF76491EF5D1002810DD4FF6FF71760046F00106B14207D25B0043F001030F2B05
:20182C0092BF01260F230E1C401EF0D146EA034B0022164609F0D6FC08B90122164632462A
:20184C00CD4E3368002BFCD0CC48012300F10808C8F810B033600AB109F0CAFC20682368F6
:20186C00D34CC0F3870140F2FF3203F0030041EA0021002388B200902C21A4F1400006F058
:20188C00D5FDA5F110000068C0F30D0409F0AAFC4FF0000B08B94FF0010B3368002BFCD011
:2018AC00C8F814400120BBF1000F306001D009F09FFCA5F11800D14C0068044000F07C4014
:2018CC00044309F08FFC4FF0000B08B94FF0010B3368002BFCD0C8F80C400120BBF1000F61
:2018EC00306001D009F084FCA5F11C00016801F47C0009040C0C044309F074FC4FF0000B57
:20190C0008B94FF0010B3368002BFCD0C8F808400120BBF1000F306001D009F069FCA5F1E4
:20192C0014000068DAF80020C0F30351C0F30343520814D24A46121D1268140511EB24710A
:20194C0003D41029A8BF0F2100E00021120413EB227303D4102BA8BF0F2300E00023049CDC
:20196C0043EA011300F47F4100F0FF02222C41EA034142EA010224BF00F080400243144657
:20198C0009F030FC4FF0000908B94FF001093368002BFCD0C8F804400120B9F1000F3060C4
:2019AC0001D009F025FC0498222832BF01202868C0F30070049B7E4C222B4FEA400040F026
:2019CC00200084F8090126BF2868C0F340700120DFF87092202B40F0100084F8090138BF7B
:2019EC00002107D348460168C80C00F44070C1F3845101438A4609F0F5FB4FF0000B08B9E0
:201A0C004FF0010B3368002BFCD0C8F820A00120BBF1000F306001D009F0EAFB049820285E
:201A2C0014D348460068C0F3015010E0940222430A600840A83F0050401009400000094003
:201A4C00000020438C13005044600C400020049B400040F06000222B84F80C0126BF28685E
:201A6C00C0F3C0600020222B4FEAC00040F0800084F8010126BF2868C0F345500020202BCB
:201A8C004FEA800040F47C40A4F89C0138BF6E490BD34846006801038A15920501F47C111A
:201AAC0000F00F00114341EA0031894609F09AFB4FF0000A08B94FF0010A3368002BFCD028
:201ACC00C8F800900120BAF1000F306001D009F08FFB4FF48000029E2060B06D40F20F2189
:201AEC006FF31F40814215D9304601680068C1F30366C0F3034006B1761E072805D0062891
:201B0C000EBF0720801C00F00F00554946EA001001F8080CC7F38140401E02D0401E32D034
:201B2C002EE00298D0F8D000810C29D24FF480414B4E2160D6F80210420AC0F3033302F0AC
:201B4C00800221F08F010A4343EA02013346C6F80210D3F80120061266F303021E46C3F80F
:201B6C000120316800F0E703324621F0E70143EA0100106007E0C04600800C4000A00C4011
:201B8C004FF0004020604FF4007020642868324DC0F3C14040F0300084F8C800C7F3815011
:201BAC0070B3401E06D0401E23D0022122E0C04640A00C40012008F0E9FD06460420314634
:201BCC0006F02EFB042008F0E1FD8642FAD10198066826F07F4007F0F5FE2846143000686D
:201BEC00036807214FF06022300E98474FF4806020600321042006F013FB08E0FCFCFC009D
:201C0C000420012106F00CFB104807F0DBFE02980F49104ED0F8B00047F6180700F03F00FA
:201C2C0084F8CB0F2B460F8030681868C16802208847012740210398084C016005B02760FB
:201C4C00BDE8F08F9813005000803F40BD37860070B00C402C200940A001001094046042F4
:201C6C000A6008402DE9F04F0120ADF17C0DADF816000827ADF8147005A807F0FBFD002634
:201C8C003546D44C8DF808509DF818006070A6700798E0614FF6FF70A082384608F0DEFB28
:201CAC005FEA00080CD00121122209F05AFA08F0E5FB02A90123C84A0091414607F064F923
:201CCC009DF80800DFF81483207032460123414604F1A800169006F015FC04F1CC003246B7
:201CEC0002234146149006F00DFC04F1F000324604234146139006F005FC04203146102217
:201D0C00E07004F1480004F06DFD04F158003146102204F067FD256226720720667204F16B
:201D2C004805E67204F14802A07210211895022007F0D8FB04F1580004F158021021199061
:201D4C00032007F0CFFB04F12000042104F120021C90084607F0C6FB04F18705179504F16E
:201D6C003800159004F12C031A9304F168021B9204F132011D9104F13E051E9519E0A078CB
:201D8C00B4F84050B4F84230B4F84420B4F8461006280ED1ADF84250ADF84430ADF8462063
:201DAC001498ADF8481009F07AFB012010A904F0D7FC0A20ADF82200ADF820704FF0FF35C6
:201DCC00099508A807F056FD002840F0818130460190ADF828700925ADF82A500AA807F0CB
:201DEC0049FDDDF830800028CDF8048040F07081BDF82C00102840F05F8160789DF82E10A6
:201E0C00884240F05981454628884FF6FF71814200F04A812B78A23B00F02F812E3B40F0BB
:201E2C004B81A878B146002800F0FC80801E00F0D780401E012840F2A780801E5CD0401E32
:201E4C0023D0401E03D0083800F008810BE1139809F025FB01984578002D40F00481C18868
:201E6C00E1820189218340896083149809F06AF8002840F0F880A56A002D00F0F4802B680F
:201E8C00E08A218B628B984716E1B5F804A00A2008F0E4FA5FEA00090AD00121152209F08E
:201EAC0060F9A9F808A008F0E9FA494607F0D6FF15983146062204F095FCE6822683668373
:201ECC00A8796073149809F0EAFA139809F0E7FA4FF001094FF6FF706379A0824BB9A879D4
:201EEC00082814BF04200520A070484608F09CFEB9E00320A070B6E06B78002B3ED1291D95
:201F0C0015980A680260898881800623A3706889A082E889E082288A2083688A94F83E20CF
:201F2C006083E878012A207308D11F2006F0E2FE4FF47A714143149807F0B8F895F803B061
:201F4C00B5F80AA0142008F089FA5FEA000900F08D800121142209F004F989F808B02D1D4F
:201F6C00C9F80C50A9F810A0042089F8120008F085FA7E4A494606F0E9FF77E068783128F4
:201F8C006AD1267104201FE06B78002B64D1A878638AA178032812D02079657923B901284E
:201FAC0014BF6671267106E0054304D01698194607F07CF8A1780729E4D1062004E0062923
:201FCC0006D0257915B90320A0704FE00220FBE70720F9E7CC08002061B1000035AC00005F
:201FEC006B78002B38D1EB78A078E17993B9022815D0072813D0062802D1617901290ED198
:20200C0003280CD0169808F09DFF40B9012008F00BFE04E0179A484605F04EFF68706D782E
:20202C00D5B920E06B78BBB9189A0220102107F073FA199A0320102107F06EFAED1C1A9825
:20204C002968AB8801600125838028461B9AA179A57005F031FF48B1A77007E0A888444AFA
:20206C00102107F029FBB9F1010F25D1656A1DB32D680DB3A078A8471EE0687913281BD157
:20208C002889012808D1A07B022805D1139809F006FA06F0A7F90FE0052006F02BFE0146B2
:2020AC00139807F003F807E06888C00B04D31C9A0420014607F030FA019D4DB1ADF83870D3
:2020CC000320ADF83A00CDF83C800EA807F0D2FB208A6579217942082DD320F0010055EA3B
:2020EC000103208227D06DB9207A657A8DF809001D998DF80A500A680DF10B031A6089886C
:20210C00998002E003208DF80900A07AE57A194A8DF8110006218DF812500DF1090006F08A
:20212C0099FB656A30B1A77025B12B6813B1296838468847208A810807D320F002001E9957
:20214C002082304604F00CFB208AC108FFF431AE20F00400A57B2082681E3FF410AE401E70
:20216C007FF427AE06F03EF923E6C04629B100003DB4000031B400002DE9FE43A84C0F467F
:20218C000546F80B80F02681B80880F0AD80B80F6ED2E07A00284FD138094FD30025012619
:2021AC0065706079667210B1284608F0A7F99D4808F0F4FF9C492A4604F14C0009F050F91E
:2021CC00A07901281FD1E079E8B9DFF86082266AD4F81490D8F8000070B108F0F9FDA0EBA4
:2021EC0009004346000B8619E0611868B6EBC01F28BF256208D2266204F1CC004FF0005135
:20220C0008F07EFD31E0A67140F60900208794F8450000F0F00040F0010084F845006587A2
:20222C0094F8440000F0F00084F844008049E56304F138060E6018E0380914D2B80BC0F0DE
:20224C00E68004F1280009F028F9061C08D0706830B17568F068B6F9101000222023A847CA
:20226C0027F40057D3E00020E07227F00807CEE0704904F14C00002209F0F2F8E86840F662
:20228C00C411814215D1042008F080FA88B166697EB1A06968B908F09BFDA061864226BF7F
:2022AC00801B401E801B000BE860E86800F58D70E860E07958B10220ADF80000684607F0D3
:2022CC0013FF0026E671BDF80800A4F89C000120607020790026401C20711920267208F008
:2022EC0071FE27F0005792E004F13008404609F0D4F8061C65D0B06840F6030320251A46BB
:20230C00521C02E040686D1EEDB260B15DB101888B4218BF8A42F5D1F1682CC818312CC12E
:20232C0029C881E82900326A4FF00009C6F820907068C0B196F8240042F002020023401E0A
:20234C0009D0401E04D0801E08D14FF0805304E04FF0804301E04FF000534A467568F068BF
:20236C00B6F91010A847B4F93600401C6FF31F30E086404608F01CFCF068B0F98C10B4F95D
:20238C00362091421DD1217801291AD090F88E5095B9056885B1E1680968B1F1FF3F10D09C
:2023AC00254909686830B5FBF1F109F098F8F068683008F001FD04E080F88E90484605F09C
:2023CC003FF9404609F069F827F0020708B147F002071CE008F048FF014604F12C0009F024
:2023EC005CF80646356A084609F037F8A8080CD25EB1306AA8433062706830B12A46F068E7
:20240C00B6F9101075680023A84727F4804727B104F1CC00394608F073FCBDE8FE83C04665
:20242C00380C0020D15D00009DA20000542B002000100440A541000088BD0000F8B5A0F262
:20244C00013517460E46022D40F214818A4A8B498B4B2D1F0F2D04D9143D4AD0AD1E1CD08E
:20246C0011E0DFE815F0C300BC00F400E400B300AB000701A2009A00100010009200880060
:20248C0079006F006300282880F2F480022E40F0F180398806F03CFFF8BD012E40F0EA806E
:2024AC0015462879012800F0E58051793878507181B9002800F0DE809078012800F0A98061
:2024CC00042800F0A680062800F0A380052800F0A080F8BD3878002840F0CC8090780328F4
:2024EC0000F0A280072800F09F80052800F09C80F8BD012E40F0BE803878012840F0BA80B2
:20250C00154605F1F00008F01DFD002840F0B2802C46002004F13E0104F022F9002840F0A5
:20252C00A98004F1CC0008F0BAFFF8BD022E40F0A18038880A28C0F29D80B0F5486F00F3AE
:20254C00998015E0022E40F095803888B0F5FA7F80F290800880F8BD022E40F08B80388824
:20256C000628C0F28780B0F5486F00F383801946891C0D4638E0022E7CD13888062879DBE8
:20258C00B0F5486F76DC1946F3E7012E72D1387802286FDA891F0D460EE0012E6AD13878B0
:2025AC00042867DA15460B3506E0012E62D1387808285FDA15460A352870F8BD012E59D166
:2025CC003878042856DA1546093506E0012E51D1387804284EDC154608352946DBE7022E14
:2025EC0048D13888154612352946B3E7012E41D11546687901283DD011793878107161B9C3
:20260C00002837D09078012803D0042818BF052830D1012008F008FBF8BD387850BB9078B6
:20262C00022818BF052825D108F05CFCF8BD154605F1870400211F22204604F0D3F8394683
:20264C003246204603F0D8FA0020EE710EE0154605F1680400211F22204604F0C3F83946AB
:20266C003246204603F0C8FA0120AE713146224605F022FCF8BDC046CC08002010090020A1
:20268C000C0900202DE9F04F0128ADF1140D40F0F280DFF81492D9F8DC00012840F0E9802E
:2026AC000220C9F8DC0008F0CDFC0290012005F071FF20B101210646C9F8DC10D5E008F0DD
:2026CC00A9FC03906E484FF00008C0F80080012008F05CF8012818BFCDF8008004D1404674
:2026EC0005F046FA0120009066486E4CC0F800801934D4F8FF0F112008F086FD00280CBF82
:20270C0046460126102008F07FFD08B146F002060F2008F079FD08B146F004060B2008F0A6
:20272C0073FD30B1584800685849006B0246088890470A2008F068FD0028404618BF01204C
:20274C004FF0805B0BF5DC7528B128685049006B0246088890474F48012707602868806947
:20276C00014646F0200088474B48076008F046FD00F001010191400815D2484808F0A4FCD1
:20278C008246BAF1040FF8D0BAF1010F06D1DBF8D801406802464148032190474049086834
:2027AC0020F003000860404600F080F82868D4F8FF1F806B8047019801280ED0BAF1010F1D
:2027CC0006D1DBF8D801406802463448394690473349086840F0030008602A4807602868B8
:2027EC0040690146304688470B2008F00DFD28B128682649C06A0246088890470A2008F098
:20280C0003FD28B128682249C06A024608889047204807600322C9F8DC201F4BC3F80080A9
:20282C002868406B0146304688470128F8D1042005F0B0FE124807601A48D4F8FF1F016896
:20284C008909FCD30098012802D1384605F090F908F0CEFC082005F09DFE06460398C9F859
:20286C00DC7006F0F5FE04F0BDFE029807F0A0FC02E0042600E00126304605B0BDE8F08FD9
:20288C000C40094000022243B8010010BAB60000B6B6000028200860800104430040034090
:2028AC002422084014100940C81200202DE9F84FDFF8E8B10746ABF13500DFF8D491006888
:2028CC00800880F0D68007F0FBFB064677480830D0F8008000254FEA28725FEA985002F10A
:2028EC0001020AD2C6F13E0016F10A0F4FEAE000D8BF08208242B8BF021C624BD3F87C01B2
:20290C00C0F3046008F0EEFB04461868C0F3044008F0E8FB12198246162A05DA12F10A0FE9
:20292C00B8BF6FF0090200E01522574B574802F01F0141F4F8511980006810F0030F18BFD8
:20294C000125C00828BF45F002050FB145F00405494691F90700301A052804DA8879A842FC
:20296C0008BF888865D0DFF82CE10F2EA6F10F0C25DB0CEB0610A0F1F00C4FEA2C27072F10
:20298C0088BF07273C46062C88BF06245EF82400042303EB84037446E3581B1A03F0FF045B
:2029AC00E80824BFC3F307200444A80824BFC3F307400444680828BF04EB136401E0002479
:2029CC0027465EF827E0E8080EF0FF0324BFCEF307200344A80824BFCEF3074003446808CD
:2029EC0028BF03EB1E63A4B2ACEB0727BAEB020004FB07F404F1800403EB1423D8BF012063
:202A0C00342208F0FF0742437A43B2FBF3F04FF6FF72824238BF101C802E80B2888005DA20
:202A2C0016F1800FB8BF6FF07F0600E07F26CE718D71194A12681F280A604FF0000208D32D
:202A4C0040F2FF11814206D24008521C8142FBD301E01F208880124F0F38000942EAC0027F
:202A6C0047EA0200CBF8FB0F0026CBF8FF6FBDE8F88F0D4F0B4E494608203760891D0870A6
:202A8C00BDE8F88F3C1100506E62084024220840602B00209C130050082009403500094022
:202AAC0000E7A48030100940FDFDA400AC3F00502DE9F0411C4615468C4208BF854282BFFC
:202ACC0000230022E5E0002C08BF002D0AD100290EBF00286FF000006FF0000100F0E1F83F
:202AEC00BDE8F0815FF000085FF0000E002C08BF8D429CBF2C1C0025070C47EA01470E0CD0
:202B0C00B44208BFBD429EBF5FEA044444EA15445FEA0545070A47EA01670E0AB44208BF66
:202B2C00BD429EBF5FEA042444EA15645FEA0525470847EAC1774E08B44208BFBD4200F2E6
:202B4C009380870847EA81778E08B44208BFBD427CD8C70847EA4177CE08B44208BFBD42AE
:202B6C0066D8070947EA01770E09B44208BFBD4250D8470947EAC1674E09B44208BFBD429B
:202B8C003AD8870947EA81678E09B44208BFBD4224D8C70947EA4167CE09B44208BFBD42E3
:202BAC000DD8E60146EA5566EF01B14208BFB84201D3C01BB14158EB08085EEB0E0EA601AE
:202BCC0046EA95664FEA8517B14208BFB84201D3C01BB14158EB08084EEB0E0E660146EA55
:202BEC00D5666F01B14208BFB84201D3C01BB14158EB08084EEB0E0E260146EA15762F010F
:202C0C00B14208BFB84201D3C01BB14158EB08085EEB0E0EE60046EA5576EF00B14208BF11
:202C2C00B84201D3C01BB14158EB08084EEB0E0EA60046EA9576AF00B14208BFB84201D32D
:202C4C00C01BB14158EB08084EEB0E0E660046EAD5766F00B14208BFB84201D3C01BB1414E
:202C6C0058EB08085EEB0E0EA14208BFA84201D3401BA14158EB08085EEB0E0EA34208BF87
:202C8C00AA423EBF2D0A45EA0465240A89D3734642461E4617460B46024631463846BDE8B1
:202CAC00F08170472DE9FE4F754C04F12408404608F0F3FB16460D46009008F0D5FA06F033
:202CCC000107B5F1FF3F01900CD1A06A20B9B4F93600401C05B202E0A06AB0F910500020A0
:202CEC0084F8A500A36AA81005EB507020F007002D1AE80000EB4510251805F59C75AB4277
:202D0C0000F086800098854249D000284FF003073FD04FF0000904F1A80BCA46006885428A
:202D2C001ED1584607F07AFC00980768C0F800A00198009708F091FBB0080ED297F824002F
:202D4C0040F0040087F82400684607F031FF014608F10C0006F0ACFB01E04FF001098327FE
:202D6C00B9F1010F03D00098006800900EE0009991F8240040F0040081F82400684607F080
:202D8C0017FF014608F10C0006F092FB00980028C4D1832F25D0019808F05FFB21E004F165
:202DAC00A80007F03BFCB0083ABF606A006800206062019808F051FB08F10C05009991F863
:202DCC00240040F0040081F82400684607F0F0FE0146284606F06CFB009808B1B008EDD285
:202DEC008327207A70B9274808F0D8F9022104F1CC0007F085FF607801283DD0224808F053
:202E0C00CDF939E004F1CC00022107F079FF33E0B00803D3606A00900023636295F82410D0
:202E2C000120B840084385F8240008F0F3F80446002F14BF1548164807F056F9019808F0C0
:202E4C000CFBB00814D3009890B108F10C05014691F8240040F0040081F82400684607F073
:202E6C00A7FE0146284606F023FB00980028EED1204606F0EDFB83273846BDE8FE8FC046B5
:202E8C00380C0020852100007957000001000204010001042DE9F843814608F0A3F9002172
:202EAC0000B901216B4E30680028FCD06C4D01242D1DEF6A346009B108F09AF9DFF898819C
:202ECC00C7F3072008F1BC01086008F08BF9002100B9214630680028FCD02F68346009B1B9
:202EEC0008F086F9C7F38440C8F8C00008F07AF90146002001B92046014630680028FCD08C
:202F0C00ED69346009B108F073F9C5F38120C8F8D000B9F5C061C8F8B81000F0968098F8C7
:202F2C00D80068B9C8F8D410D8F8C000C8F8C800D8F8BC70C8F8C470D8F8D060C8F8CC60F4
:202F4C00D8F8D410D8F8BC60002954BF02206FF00100454605F1C8031A6801EB41014018B3
:202F6C00411000EB917002EBA0021A60D5F8C810C5F8C46000291CDD1E293DDDD5F8CC005D
:202F8C0030B93429B4BF15391E21C5F8C81025E02A29BABFD5F8C8000B381E20C5F8C800DE
:202FAC00D5F8C4003F28B4BF401C3F20C5F8C4001FE0D5F8CC00032812D011F10B0FC6BF18
:202FCC00D5F8C8000B30201CC5F8C800D5F8C4000028CCBF401E0020C5F8C400032009E005
:202FEC0011F1150FC6BFD5F8C8001530201CC5F8C8000020C5F8CC00B5F8C400174E3021AF
:20300C004FF47F4208230090304605F00FFA009404214FF400321123304605F007FAB5F8F6
:20302C00C80004214FF4F80212230090304605F0FDF9B5F8CC0020214FF440620A230090D8
:20304C00304605F0F3F9BDE8F883002088F8D800BDE8F88300800C40C812002000A00C40A3
:20306C0000A00C402DE9F04F0C46ADF11C0D6C4E61780490207800EB0120ADF80000718881
:20308C00BDF80000884240F0BF80F06940F6FF7700EB0110074204D1000BC0B2000304F0A3
:2030AC008DF9BDF80000B179A21C000100EB0130102103F0E1FD7088401C81B20A467180FA
:2030CC00B188914240F09B805748801C028802904FF6FF770392974200F08780F088171C6B
:2030EC0000F083805FFA91F209010024C5B2871801F470435FFA87FA0594AA45A1EB030117
:20310C001FFA81FB28DBAAEB050101F10108A8420CBF04240024AA45D8BFA34516DD04EB24
:20312C00053004210DF1020205F0E6FC04270DF1020919F8011B059806F0A4FC7F1E05908A
:20314C00F7D1241DA4B2B4F5805FE4DBF0886D1CB8F10108EDB2DAD10598002106F092FC7E
:20316C00002106F08FFC039981423ED1029948800498002104F092F82B4C217C012908D07F
:20318C00022908BF042005D00020032908BF012000E002203278012940EA020030700CBF97
:2031AC004FF4F0254FF4F225284604F007F9FF201021029A6074284603F05EFDB07A3178A0
:2031CC00401EB072C0B2A0B9480805D3B3690499032000229847317811F0060F09D01149A1
:2031EC00086840F00040086003E00498012104F055F80024347007F0F5FD74800DE004986B
:20320C00114604F065F908E000207080307007F0E9FD0498032104F041F807B0BDE8F08FBC
:20322C00A811002004000940A81700202DE9F04FADF1840D00F024FF05F0B0F800260128FA
:20324C0004D107F025FC022808BF01265D490868C0F38150012806D151F80C0C0127010E2B
:20326C0007FA01F006435848584F594D00783868C0F346072F6005F091F82C46012805D184
:20328C0007F006FC022804BF7F1C27603FB1FF2204F140013846401E01F8012BFBD14D4871
:2032AC0000684FF0000900F0FF01FE2919D0DFF824C100F0FF03494601229F427FD902FABD
:2032CC0003F31E427BD100F0FF00201880F840105CF8040F43EA0909491C00F0FF03FE2B2B
:2032EC00EBD1092001F0A2FC3A48002124220823606001A807F0EEFF4FF0010804F124008C
:20330C0001AA8DF81C80414606F064FC236843B3002794354FF0040BBA4608FA07F00642F8
:20332C0019D119EA000F04BF07F0FF0141F4C04105D0E019274990F8400051F820102648A8
:20334C0002F064F9F8B24FF0FF3107F02DFA2368C5F800A001E0C5F800B07F1C2D1D9F42DF
:20336C00DBD30AA800213022082307F077FF0025FF2010210AAB1290184A009504F1080016
:20338C0005F020FE16A828220823294607F0A8FF04F1600016AA1C9511491D952B4605F096
:2033AC00F5FE104951F80D0C20F4F85040F4005041F80D0C4746C1F8FF7F0B4E376021B09C
:2033CC00BDE8F08FB43F0050D622002080120840C4280020D8B50000007FC767D1A70000CA
:2033EC00958700000D300940080009402DE9FE4F0D4681462868D9F80440D9F8087000283B
:20340C0000F0B68007F030FFD4F8881021B108F024F803202874ABE04FF0010B85F810B038
:20342C00C4F8885008F019F894F8A40038B194F88D205149D4F89C00114306F063FA6E6812
:20344C0007F012FF804694F8D80050B916F0704F02D1042006F086FA022006F083FA84F8E2
:20346C00D8B0404607F0F9FFD7F80080D8F8040040F00200C8F80400D9F80830D9F804C08C
:20348C0028681E689CF88C10009080B2B6F1804F00FA01F01FFA80FA14BF384E384EAF682E
:2034AC0038484FB99CF88C104FEA810E00EB0E018A690CF1A60109E09CF88C104FEA810E0E
:2034CC0000EB0E010A690AEB0701491EB2607160196843F6F07208310291009F31603901DA
:2034EC00B7680190103902EA010040EA0701B1601A68B2F1804F14BF234924496F682FB938
:20350C00019D7544AD6903F10E0605E0019D7544AD680AEB0706761E8D600E60029D4D609C
:20352C008D6828438860DCF8A070186959690143786800688162506A40F003005062D8F832
:20354C00140040F00100C8F81400207830B9616804F16C05284601F09FFC10B15846BDE898
:20356C00FE8F484601F010FA2846002101F094FC0020BDE8FE8FC046000006800005002016
:20358C0030040020A0B7000010050020400400202DE9F84F994692468B46064607F064FE51
:2035AC005D4CB4F93620B4F934100AAF891A40F6F8720A40082A02DB07F04FFF40E0B4F9FB
:2035CC003410491C6FF31F31A186B4F9348007F044FF4046811000EB517121F00701401A8B
:2035EC00C10001EB4011651806F1680007F016F805F59C75C5F808B085F812A0C5F80490E0
:20360C00EE604648A5F8108097E80C00202100271940104005F1180383E8030004F1240061
:20362C0085F824700368002B5AD1294605F040FF48B9B4F9340000F6FF706FF31F30A086EB
:20364C006FF0010865E0A6F88C8007F00DFE86F88E70A17A41B1617831B10121E172A77233
:20366C00E7712179491C217107F0F7FEA06A00284FD1607800282FD1207A012849D007F044
:20368C00F3FD0646607A00BBA86804F0EFFD254A2349E3681268086040B9304607F0DDFE14
:2036AC0004F1CC00042107F02BFB32E00968DB6804F1A800C91AB1FBF2F107F010FF04F12B
:2036CC00A80007F079FB304621E0304607F0C5FE1549012008701CE0192007F073FC18E09A
:2036EC0007F0C2FD0746294604F1240005F0E0FE002818BFA6F88C8008D1B4F934006FF09E
:20370C00010800F6FF706FF31F30A086384607F0A4FE4046BDE8F88F380C0020F1EFFF9FAD
:20372C00542B002088BD0000502B00202DE9F04304466668A7680D46ADF1340D07F094FDD4
:20374C003178012903D107F088FE0020A3E04FF0010886F8008007F080FE2878707068787B
:20376C00B07068687060A868B060E868F06028693061287D3075687D7075A87DB075A8692C
:20378C00B061287F3077687F7077A87FB0774FF00009C6F82090C6F830904D46756275632C
:2037AC00B562B56386F82C50102386F83C3086F82D5086F83D50786801F038FA204601F057
:2037CC005DFD204602F0B2FA70B934480068C16838688847786801F0BFF907F045FD357073
:2037EC0007F03BFE2C4655E001A829463022082307F034FD0694387BCDF80090284A09907C
:20380C00B96801AB06F1680005F0DCFB01A829462822082307F064FD05942249386901AA6F
:20382C002B46079006F1840005F0B0FC01A829462422082307F04EFD8DF81C80B07838B953
:20384C0006F1B800294601AA06F0C4F916483061707838B906F1D400294601AA06F0BAF98A
:20386C001248F06001A829462422082307F01AFD0695ADF814500E49079406F1F0000A2252
:20388C0001AB05F0B1FE0B4A06F154000421234606F03EFC20460DB0BDE8F083D001001052
:2038AC007D4A0000C9840000F9B30000D9B30000B960000061B000002DE9FC415D4C564DE7
:2038CC00564EDFF85C81594F94F8E410481E0B2800F29F80DFE800F0772C43062343062380
:2038EC0043067260042907D001220A2945F8212C14BF0220032004E02021012045F8211CE5
:20390C00024684F8E200002045F8390C0827C5F8FF7FC5F8F37F45F8392CBDE8FC810529C8
:20392C0014BF09200620002584F8E40035606CE094F8E1700120383D002FC5F81B0004BFB6
:20394C000620002102D00021F160032084F8E400032045F8010C31603068800855D294F87C
:20396C00E400012503280DD00021404660220523009104F05BFD94F8E400062814BF0A2060
:20398C000720D1E702200090002160220523404604F04CFD0420C7E72249002622480E60C1
:2039AC00012505600E2001F0D7F8022005F0C2FF84F8E45084F8E360BDE8FC810020386061
:2039CC000C2578601FE01A48006800680146202088472C3D41F61D560F2000214FF4C07273
:2039EC00072345F8010C4046C5F803600225009504F01CFD404600214FF4C072072305F09D
:203A0C00BBF80120386084F8E45004F1780007F0D3F9BDE8FC81C04639400C4038600C407D
:203A2C0000A00C402C500C4004800C4034600C40A0010010C8120020B0B5456884684F48D6
:203A4C00297BADF1180D012916D0217E627E4C4B2F7E0143009143EA02010191494937F0D0
:203A6C00010718BF081CA27E1043029095F88D000322FF2811D00DE0677E217E3843A37EDE
:203A8C00019041F00041009143F000403E49029095F88D00014304220391FE204DF822005D
:203AAC00694605F1900002F0F5F8C5F89C00002808BF00205FD0287B344951F8200001289D
:203ACC002BD02068B0F1804F14BF22220A22217ED5F89C0006F0D8F92068B0F1804F14BF0A
:203AEC0021220922617ED5F89C0006F0CDF92068B0F1804F14BF24220C22A17ED5F89C0081
:203B0C0006F0C2F995F88D10FF2933D02068B0F1804F14BF23220B2228E02068B0F1804F56
:203B2C0014BF21220922217ED5F89C0006F0ACF92068B0F1804F14BF22220A22617ED5F8AE
:203B4C009C0006F0A1F92068B0F1804F14BF24220C22A17ED5F89C0006F096F92068B0F1B8
:203B6C00804F14BF23220B2295F88D10D5F89C0006F08AF9012006B0B0BDC046000480A0AB
:203B8C00004000800004C0A000200080A0B700002DE9F04304466568A7680E46ADF1340D5C
:203BAC0007F062FB95F8D910012903D107F055FC002084E04FF0010985F8D99007F04DFCF6
:203BCC004FF00008C5F888803069286170696861307E2876307B287330782870706885F8E2
:203BEC00A480686070694146092828BF494685F88C10387B01F01AF8204603F05FFEF87ECB
:203C0C0085F88D002046FFF717FF50B9387B00F0A3FF07F029FB85F8D98007F01EFC444642
:203C2C004CE001A841463022082307F017FB06947879CDF80080234A0990397901AB05F16C
:203C4C001C0005F0BFF901A841462822082307F047FB05941C49B86801AA4346079005F1D2
:203C6C00380005F093FA287878B901A841462422082307F02FFB8DF81C9005F16C004146D1
:203C8C0001AA05F0A7FF114800E0B068A86003F003F9C5F8A000287B012808D1D5F89C001F
:203CAC0028B10B490160D5F89C0000B18460094A05F1C4000421234606F02AFA20460DB094
:203CCC00BDE8F083C55A000005800000B1B300006568000051B20000F8B5414C201D036806
:203CEC00B3F1FF3F08BF002304F058FB002876D13C4E20683468070F04F0FF04802C28BFE8
:203D0C00002404F04BFB4FF0FF3578B1401E07D0401E012802D9801E13D014E08FB112E05F
:203D2C00381C5CD0801E0ED114340BE03846401E55D0801E53D0001F51D0401E03D11634C9
:203D4C0000E00A3465B2162D49DB27482749002501270560264E0F60264C3760206800288E
:203D6C00FCD1274A161D2449244F306820F0030001433868C0080CD2106810F0030F0AD04D
:203D8C0041F003003060106800F003000328FAD101E041F001011B483160006820B11A484F
:203DAC0000681846FDF7BAFC184819490560194F0A686FF35B4247EA02000860164908681D
:203DCC00C0F30130012806D10A681448104040F400320A60086020680028FCD1F8BDFEE786
:203DEC0018130050A0100050840460425C600C40082204430C00684204000020B03F005080
:203E0C000040034080012843000120438C210840482003400000390104000940FFFFFCFCA6
:203E2C002DE9F0430746880FADF1140DC0F08680494D454B434800261C352E605C1D45F868
:203E4C001C0C207810B1012006F058FB434807F0A5F940F60A08B146194601F138024E87AC
:203E6C00BC68A2F8008091F84530C1F83C90107B668000F0F000107303F0F00040F001008D
:203E8C0081F8450000E01C46636813B118888045F9D16260607B00F0F000607301F12400F2
:203EAC0007F0FBFA806803884046C01F98421DD0401C98421AD03B8BCBB197F8240097F8C7
:203ECC002530C7F81C9000F0F00087F8240003F0F00040F0010087F8250007F11803CB639A
:203EEC00507B7E8300F0F000507300E04E611748016883680193C368406B00911022694629
:203F0C0020F0784040F0805003901148029301F073FE28680028FCD02E60012006F036FC8F
:203F2C00012808D0607B00F0F00040F001006073084807F033F9B86845F81C0C05B0BDE863
:203F4C00F083C04601010E04380C00204C13005018000021D17B0000001004408521000036
:203F6C002DE9F04F0C464549CA7AADF12C0D84460592487B09900D7900958A7A488B4B8A61
:203F8C000E7B91F805A091F802800492B1F846E008904A7A088B0392CD7807900A7AC88AB8
:203FAC0002920F6A0690CA79888A01928A79E146A9F54079B9F11D0F10D8DFE809F05B55BB
:203FCC0053514F4D4B494643413F3C3A380F34312E2B2923201E1C0F19181716BCF1280F86
:203FEC0049DA604604F086FE21E0099EB246D046CDF814801DE00898079007980690DDF827
:20400C0018E005E03831086820608888A08032E070460AE0B1F8440009E0B1F8420004E0D7
:20402C00B1F8400001E091F83E00034612E0208021E0059804900498039001E03231E2E79A
:20404C00039802900298009006E0019A87310DE068310BE01846EAE7009D0BE02C31D2E786
:20406C00276008E0583100E048311022204601F0C3FD00E025700BB0BDE8F08FCC08002052
:20408C002DE9F041434C94F8E700ADF1280D00286CD1384F387B01250021242284F8E75019
:2040AC00082384F8E60001A807F0FCF8002604F10C00069601ABADF814602F4907963246BE
:2040CC0005F092FA2D4904F1300001AB324605F08BFA2B4904F1540001AB324605F084FAC6
:2040EC00B868014628468847DFF89C8025487B7B0078D8F80410C1F381571BB1032F03D100
:20410C0084F8E150032F16D0022F14D0012F26D103201E4C009031464FF040521C23204688
:20412C0004F084F9009531464FF400720923204604F07CF913E0022005F014FC032F0CBF2F
:20414C004FF47A7142F21071114800685434B1FBF0F1204607F0C3F9204606F02DFED8F82A
:20416C000000C00802D2304605F0FCFB0AB0BDE8F081C0466CBC00006F63000029600000DC
:20418C0075660000D6220020B03F005000A00C4088BD0000C8120020F8B506F0F1FC404E98
:2041AC003E4F0446A00823D3B96A09B33D4600208B690A6AA86204EA0300104340F0020014
:2041CC0006F1080208628B6910689843106001F1180090E80C0030681A1C9043306005F1FC
:2041EC00300005F065F9022105F1CC0006F088FDB86AA10815D200F118020CCA00212240BA
:20420C000B40002B08BF002A0BD08169056A0C40F8622C434FF48041046207F1CC0006F0BE
:20422C006FFDB86A002837D107F12404204607F034F9051C30D0F868E968884226D1A86867
:20424C0004F014F817490860E0B906F10801A8690A6810430860326805F1180393E803008A
:20426C00081C1043306000233361A86846F80C0C06F1100000680028FAD0204606F098FCBD
:20428C00BD62F8BD086803F0DBF9F8BD07F1CC004FF4805106F034FDF8BDC046380C002034
:2042AC000C100440542B00202DE9F0430746ADF11C0D07F02DF805F00DFB4FF000090646E9
:2042CC00CDF8009006F0C4FF30F0010002D00098B04202D16FF0040066E078684C4658B150
:2042EC00B0F1FF3F05D001A905F0DCFA30B1804659E04FF0FF3000E02046019006F07EF9F7
:20430C00019D4FF001082D1802E00A463BE001937068019900F0C0FD00282DD003A803F0A3
:20432C00D3FBD8B99DF8100002A905F00BF888B9BB68BDF808009DF81210059A984748B17B
:20434C00BDF808009DF81250B881059BBD73C8463B6111E00599684605F054FD0198641C4E
:20436C00B0F1FF3FD4D00028D2D006F047F92B1A02D001989842CAD2009F06F048FB06F1B9
:20438C00080547B13A4652F80C1C0029BDD1296842F80C1C2F6006F0E3FC24B1706802F06D
:2043AC00EBFE641EFAD1404607B0BDE8F08370472DE9F84F0F460146D1F808A04E68384611
:2043CC00203862D0401E5CD0401E57D1307B92F80080012814BF324D324DB8F1FF0F45EAA2
:2043EC0008050AD196F88D10FF2903D0D6F89C0003F0B2FDFF2080463DE0D6F89C704FF07C
:20440C00FF34002F49D028480168EAB2914244D9834621460BF12400814600F03DFDE8B2D5
:20442C000BEB800BDBF8940070B97B68E9B2012088401E49CBF894702A46184378603846A9
:20444C0005F038FD002700E00127484602F094FE1FBBDAF80000B0F1804F14BF23220B2284
:20446C00D6F89C00414605F00FFDD6F89C0096F88D1003F071FD86F88D800DE06FF001046C
:20448C000BE0002486F8A44007E0317B0020012908BF012086F8A40000242046BDE8F88F02
:2044AC000004C0A000200080C4280020007FC7672DE9F04707467D68D7F8089090460E4623
:2044CC0006F0D2FE8246A86A002864D105F1F00006F0A4F80024EC772E6250466C6206F0EA
:2044EC00BCFF06F0C1FE2F4E3378824623B9022005F038FA01203070504606F0AEFF2A49BE
:20450C00086840F4807008603846414604F076FEA862C0B93846414603F096FDA878D0B96F
:20452C00A96805F1B80000F0B7FCE8B9AC621020E8774946284601F01BFA06F095FE82467B
:20454C00307840B323E0D9F80010886B40F020008863A87810B12046BDE8F087A96805F138
:20456C00B80000F099FC10B1686ABDE8F0873846414603F069FD1020AC624946E87728464B
:20458C0001F0F6F906F070FE8246307818B1022005F0D0F93470504606F05FFF4FF0FF30B6
:2045AC00BDE8F087D5220020301000403D4A10B501469068046806F04BFE2070086A206183
:2045CC00486A6061886AA061C86AE06108682062486860628868A062C868E062086920633A
:2045EC00486960638869A063C869E063086B206401F140006064486BA064886BE064C86BC5
:20460C0020652078B8B1401E12D0401E06D0401E1CBF0023181C16D1002011E006F078FEA0
:20462C00606006F075FE036A06F072FEC0690AE006F062FE04E0206D00F0FF0006F0BAFCFD
:20464C00606090695369E060D168A360096851B1401EB0F1FF3F06D0401C13F8012B401EE6
:20466C0001F8012BF9D10E49D1F8040D91F8283DA365606591F8292DE265B1F82A3D236694
:20468C00D1F82C2D6266D1F8303DA366D1F8342DE266D1F8383D2367D1F83C2D626710BDE3
:2046AC0000E000E0FC150020F0B5ADF1340DFFF7E7FC334908682822082340F002000860A5
:2046CC0001A8002106F00CFE2E4E2F490524002301AA079406F1CC0004F058FD00213022FF
:2046EC00082301A806F0BAFD0025FF271921274AADF81C5001AB099706F14C00009504F00E
:20470C0061FC2822082301A8294606F0E9FD2049079406F5807001AA2B4604F037FD01A8EB
:20472C0029463022082306F099FD0124ADF81C40099706F168001A2101AB164A009504F000
:20474C0041FC15492A4606F1A800134604F04CFF124806F023FD03F021FE2B46012808BF28
:20476C00231C86F8A550B57135727572B572F572F47173714FF6FF70A6F89C000DB0F0BD98
:20478C0000200940380C00207DAC00009DA2000045530000257C000041A8000079570000E6
:2047AC002DE9F84F00298346009106DD024600980021401E42F8041BFBD10098DFF8C880EF
:2047CC00DFF8CC900028C8F800B012DD2F48009C0768002537F8020B38B1D9F80000AE00C8
:2047EC003158002088474BF80600641E05F10105F0D1284F41460120D7F80080C880B8F14E
:20480C00000F22DD4FF0000A00980127002817DDABF104060446002556F8040FB0F1FF3F04
:20482C0004D0D9F800106958884730600021B0F1FF3F08BF01212D1D641E01EA0707EBD12D
:20484C0037B90AF1010AC245DEDB04A006F0C4F80D4900200860BDE8F88FC0467864632EC3
:20486C0072756E74696D652E537461727475703A20276D617850617373657327206578634A
:20488C00656564656400C046BC180020D8BD0000DCBD0000D4BD000010B5401EADF1300D5E
:2048AC003FD0C01E36D0401E37D0401E61D106F0B7FC00208DF80400082005F0CFFD041CA9
:2048CC000CD00121182206F04CFC05F0D7FD01A90123294A0091214604F056FB102005F0EA
:2048EC00BDFD041C10D00121192206F03AFC9DF80400401E208102AAE26005F0BFFD1F4AC9
:20490C00214604F023FBA0B307A940F21530FFF727FB2EE01A4806F0C2FD142005F0F6FA42
:20492C0027E04FF4417009A9FFF71AFB9DF825408DF809409DF826308DF80A3000228DF89A
:20494C000C209DF829108DF80B209DF824008DF80F109DF828408DF808009DF827308DF849
:20496C000E4008498DF80D3002AC22680A60606848600CB010BDC04653B1000045B100002F
:20498C009C050020BF0E00202DE9F84307467C68BE6806F069FCD4F8881000295FD006F0A8
:2049AC005CFD3168486820F0020048603168486A20F003004862D4F8A0507069316908430D
:2049CC0069680968C1F804053168486920F001004861306801250562384605F0ADFBD4F8B7
:2049EC008800D0F8048006F03FFC814694F8D80058B118F0704F02D1042004F09BFF022004
:204A0C0004F098FF002084F8D800484606F025FDD4F88810087C042803D003200874D4F893
:204A2C00881032697069D4F8A0301043854058680068C5623068B0F1804F14BF0A480B48DB
:204A4C000E68806800258204A6EB9250401E08603846A268C4F888509047BDE8F88306F0FF
:204A6C00FCFCBDE8F883C04600050020300400202DE9F8430746D7F80880D8F800007D68E9
:204A8C00066C16F4F06F466425D1F00911D2700951D395F83C00AC6B401E844288BF041CAB
:204AAC003846214604F034FAA86B001BA8630DD041E0A96B384604F02BFA95F82D10A8632C
:204ACC0011B9002837D101E00020A86305F1840003F048FF2FE0F00A0ED3D8F80000002135
:204AEC0044684160A96B04F00F04202988BF2021384604F00DFA1AE04FF000094C4602E042
:204B0C00A86B401EA863A86B88B13846012104F0FFF9D8F80000446814F00F04C0F8049056
:204B2C00EED0286B401E2863686B401E6863EC77384602F07BF9B0090BD3A96A49B10E46F4
:204B4C00384604F05BFBA86218B93846311D03F07BFABDE8F88370472DE9F843044606F00A
:204B6C0083FB81462D48021992F8ED10491ECFB2002F82F8ED704BD12B4D05EB84052E782C
:204B8C00698836F07F0788461AD1F10911D24FF08054D4F8B801806901464046884704F5C0
:204BAC00DC742068406B0146404688470228F8D121E000EB8800D0F80011002088471AE0A1
:204BCC004FF08054D4F8B801006A014640468847D4F8B801806A014640468847D4F8B8019B
:204BEC00006B01464046884701210D4A0D48116001688908FCD306F03F003F2801D0FFF737
:204C0C00ABFF687800F03F003F2801D0FFF7A4FF484606F022FCBDE8F883C046C81200203C
:204C2C0028200860282008408CB600002DE9F041064606F019FB2D4D8046A91991F8ED00D1
:204C4C00421C002881F8ED204AD1294C04EB8604277807F03F003F2801D0FFF7E7FF607872
:204C6C0000F03F003F2801D0FFF7E0FF668837F07F001AD1F80911D24FF08054D4F8B801F1
:204C8C00406901463046884704F5DC742068406B0146304688470128F8D121E005EB86055D
:204CAC00D5F80011012088471AE04FF08054D4F8B801C069014630468847D4F8B801406AA4
:204CCC00014630468847D4F8B801C06A0146304688470121074A0848116001688908FCD304
:204CEC00404606F0BAFBBDE8F081C046C81200208CB6000028200860282008401EF0040FBE
:204D0C0014BFEFF3098169468869EFF3118102B400B5DFF8A4E0F047DFF8A8E0DEF80010F2
:204D2C0001EA0000CEF800005DF804EB1EF0080F03D101BC80F31188704704BC1EF0040F18
:204D4C0014BFEFF309816946A1F1200114BF81F309888D461B4B1868086040F201101860F2
:204D6C004A604FF08070C86117488861704702B401B4EFF3148100291CBF002282F314880D
:204D8C0002B402B4DFF834E0F04701BC01BC00281CBF022181F3148801BCDFF824E0F047FA
:204DAC0004484FF08051016001BC80F3118800BF00BFC04604ED00E0C97D0000E1B3000032
:204DCC0061B400001C1600207B4D00002DE9F0412C482B490860FEF729FA04F04BF92D4C38
:204DEC000025032004F1180141F80C5F401E8D60FAD1241F062004F14C010A46401E22F824
:204E0C000C5BFBD10820204F204E0880204A8F60311D21F00303D71A6762E3612362E66936
:204E2C0004F120089446184601E026F8025BB242FBD8BA104FF6FC7700F1E80600EB82021E
:204E4C00394022F8045CACEB01016661E8221A8007EA0103EC3BA0F8E830284601F082FAA8
:204E6C00A061D8F80000606101F03EFF03F064FE03F0D6FF06F096F82846BDE8F081C0463B
:204E8C00E418002051870000C9A40000682B002068410020D81300202DE9F0410D46064638
:204EAC00B5F1FF3FADF1380D09D045B12B496B4605A82A4605F068F905A9022001E00021E6
:204ECC0003200391264F8DF8100038682024EFF31188371884F31188708980BB002D04BF23
:204EEC0088F31188002036D006F0ACF8064606F00FFA0290C0F818D004F0C4FB3846694675
:204F0C0006F0E2F99DF810000025022802D1039802F096F888F31188304605F049F9EFF32F
:204F2C00118384F31188039810B106F0D6FA03950298856183F311889DF810000BE07089EF
:204F4C00401E7081039818B106F0C7FA0020039088F3118801200EB0BDE8F08121A000005E
:204F6C0094BD00002DE9F04115460446A869A060686A98460E4608B92A4800686062286AE4
:204F8C00002806BF28480768071C06F079F9EB69A3B9002808BF391C03D03F1841427F1E70
:204FAC0039400246E161606AE169434601F0AAFF2062206AB8B90120BDE8F081002804BF0C
:204FCC002362391C0BD01B1841425B1E01EA030020623F1AE869C019E061E0690140E161E1
:204FEC004FF0FF306062A6622869E06268692063A86A6063A88DA087A08F012803D10B4995
:20500C00C868401CC8602046414601F06FFA0346404605F0A9FC002814BFD81C0020BDE86C
:20502C00F081C046A8BD0000ACBD0000B815002070B5304C0646A078002859D0B4F93600F9
:20504C00B4F93410884207D0B6F98C10304602224FF0E04300F0E2FB06F006F9E178002927
:20506C0037D0491EC9B2E17099BB06F0F6F90025A570607840B1284602F0E2FA06F130004B
:20508C004FF0FF31FFF708FF06F1300006F02FFA06F1680006F01DFA04F1CC0006F029FA0C
:2050AC0004F14C0006F007FA04F5807006F021FA04F1680006F0FFF904F1A80006F009FAD1
:2050CC00E5602570307C012812D10E20FFF744FD70BD06F0C2F9E068864204BF0020E060BC
:2050EC0006F1300006F003FA06F1680006F0F1F970BDC046380C00202DE9F84F2E4B0028B6
:20510C0052D0401E4BD0401E44D0401E0BD0401E4FD105294DD1106819460C310860177967
:20512C000F71BDE8F88F012943D1194610788F68002FC8703DD0214802780024984682467A
:20514C00A24236DDA00037F800904FF6FF763D184E451AD0AE78C6B108F1140008F10302B9
:20516C00112105F0A3FE5FEA000B0ED0700804D3484601215A4601F0E7FBA878800804D338
:20518C00288802215A4601F0DFFB9AF80020641CE4B2D5E701290CD11946891C07E0012925
:2051AC0007D11946491C02E0012902D1194610780870BDE8F88FC04684100020CC0800202F
:2051CC00F8B506F00FF806F019F8044604F00C000C2845D0E0081ED204F0F0FE234E3768B5
:2051EC0005460120014605F087FA31686943884211D21F4C8220B0FBF7F0291A204606F04A
:20520C006EF9204605F0D8FD0120FDF73BFA204605F004FA25E0200922D21648610939BF66
:20522C00016821F00101016841F0010102460160D2F898004FF0805440F00300C2F89800A7
:20524C00D4F8B8018069014620208847D4F8B801094C806B2168804701202060206800E060
:20526C0030BF05F0C5FF01F083FEF8BD88BD0000D41200208C2108402C200940F0B52B4D61
:20528C0005F12C0158C9ADF11C0D02AA58C20AC94FF0805682E80A0047688468D6F8D0019B
:2052AC00C16820688847216821488A6B10408863206840F2F271416497F83C0097F83D10D7
:2052CC00C0100DEB80008068084321684863684605F058FED6F8D001397F466805EB8101A3
:2052EC00BA698B68797F206855F821101943BB7F05EB8305AB690B430199B0470D490A1F0E
:20530C00106840F010001060086840F001000860A07D0027FF2802D0E07DFF2800D11FB1EE
:20532C00086840F44040086007B0F0BD24B700000DF8FFFF301000402DE9F04105F094FF44
:20534C00DFF8A8800646D8F8A00010F4602F2AD0400CC4B2600807D2A00803D2E00828BFAA
:20536C00022402E0012400E00024651D68B202F0A7FCD8F8A07004F111010120884027EADE
:20538C0000013046C8F8A01006F067F808EB8400D0F88C7057B1D8F88800294600224FF05A
:2053AC000063B84702E0304606F057F8D8F8A00020B108F58070002105F0A2FC98F8A500CB
:2053CC00800810D3D8F898703FB1D8F888006FF0010100224FF00043B84798F8A50000F00D
:2053EC00FD0088F8A500BDE8F081C046380C0020F8B52A4C04F1180004F1100100F04AFC93
:20540C000028606008BF002047D004F12406304605F0F2FC002584F824502148606331466A
:20542C0084F83050284604F0B5FA2F46E06000B10127002830D0AB208DF8000005F092FDC9
:20544C006846012104F0EEFA2F4600B9012705F081FD1FB101F0E0FF00B12F46C7B103F09A
:20546C002BFC002808BF2F1C14D004F1440000E0083007683FB1017922789142F8D14179C1
:20548C0062789142F4D1A060006800B101252F46012F01D002F0EEFA3846F8BD6814002030
:2054AC0000093D002DE9F0412A4C0546A0781F4616468846ADF1300D012803D0FFF7F4F832
:2054CC000120A070B8F1000F09D0C5F8048036B1AE6005F0C9FEE17819B105F0BEFF002017
:2054EC0033E0491CC9B2E17005F0B7FF01241FB9684605F01FFD6F46386828607868E860F0
:20550C00387A00217822287405F1180001F06AF903A800212422082305F0DCFE8DF824401F
:20552C0005F13000002103AA04F054FB03A800212422082305F0B6FE0549099505F16800F8
:20554C00002203AB04F050F828460CB0BDE8F0810DB40000380C00202DE9F04145688768EB
:20556C0014460E4605F080FEA96B29B105F075FF4FF0FF30BDE8F081AC632E630024EC77FC
:20558C006C6305F06AFF05F06FFE1E4E8046307820B9022004F0E6F901203070404605F08C
:2055AC005CFF1949086840F4007008603968886B40F4FA6088636878002818BF201C1ED18F
:2055CC00696805F1D400FFF767FCB8B9AC633968886B20F4FA60886305F046FE0746307830
:2055EC0018B1022004F0A6F93470384605F035FF1027696B286BEF77401A2863686BBDE875
:20560C00F081C046D422002030100040F8B50D46EEB2290824BF25494D40254AB300D15877
:20562C0085EA01040440C4F3006C224C00EA050781433C4000F4E0272143B7F5E02F01D1F3
:20564C004C0E15D300F4E0245CEA040710D001F4E027B7F5A02707D0B7F5803704BF21F452
:20566C00003141F4A02103E021F4803141F4C021114CD150C10D04D3A4F18001C5F3805275
:20568C008A55000E11D305F0EFFD290E03D201210022B14002E00121B1400A4650342368B7
:2056AC008B431A43226005F0D8FEF8BD006000A000100840FF7F077F802002402DE9F0412C
:2056CC000E46294990461C4606AF8C4672680878BB8851783F881278002502EB012242F615
:2056EC002321521A29D0521E052A18D9921F0CD0263A34D1072F30D8C7F10700984298BF45
:20570C0083B2674407F1080121E0B84225DBC01B9842D8BF83B22380DCF804000BE0F06862
:20572C0005F088FB80B2B84217DBC01B9842D8BF83B22380F06839180AE0082F0DD8C7F13C
:20574C000800984298BF83B207EB0C010F31238040461A4600F050FA03E0072501E0258038
:20576C000A252846BDE8F081B00E0020042998B545D1294C04F1240005F08FFE40B994F867
:20578C00A500400838BFE06804D3D4F8880000E0C068E06041681A4A09781160406811683E
:2057AC00007888422AD1022004F0DCF81120FFF73DFA01202072E168087C10B1A0790128D5
:2057CC0003D00E20FFF732FAE16849680D488F680FB9CF681FB10021C1610B4F07600B4A2C
:2057EC0040F2FF7111600027876109494161094805F0D4FC192003F093F898BDFEE798BD2B
:20580C00D021084000100440510007060000046002000040A9760000380C0020F8B51F4656
:20582C0016460C46054605F0F5FB2549B1F93420121B04D4B1F93620A24204DA0CE0B1F9B5
:20584C003620A24205DAB1F93620B1F934309A4202DC03F0FDFE30E0A21004EB527222F0E6
:20586C000702A41AE20002EB4412891801F59C74214691F8242012F0070F17D1114A4B6847
:20588C009A4202D04B68AB654A6005F1500181E8C00003F0DDFE05F130004FF0FF31FFF718
:2058AC00FBFA05F1600494E80300F8BD03F0D0FE94F8240010F0070FFAD102200021F8BD0F
:2058CC00380C0020A58000002DE9F84F804608781C4616460AAF022831D02348DFF88C9090
:2058EC00D1F804B08569102282464946584604F0E1FC002740B9002D33D08AF80140012005
:20590C0041463246A8472CE009F110015846102204F0D0FC10B925B30220F1E709F1200130
:20592C005846102204F0C6FC90B9012C05D13078002818BF8AF80A0013D1802711E048682A
:20594C004278007842F6021500EB0220854201D00A2706E0388832460090404601F03EFC85
:20596C0007463846BDE8F88FA81100204CB6000070B50D4629680646886B20F020008863E6
:20598C0023482C7D0168A14213D900EB8400F36CD0F894108B420CD105F066FC1D4AD0320B
:2059AC0013680121A1408B431943116005F055FD2C7DF06C2146012203F046FDF06C297DB4
:2059CC00002204F061FAF06CA97D002204F05CFAB078012806D006F1B8004FF0FF31FFF721
:2059EC005BFA03E0296888690009FCD2F06C297D102204F049FAA97D0020FF2902D0EA7DF8
:205A0C00FF2A00D118B1F06C112204F03DFA70BDC4280020002002402DE9F843254C074653
:205A2C00E06890460E46B84218BF03203BD102F01DF9051C36D405F017FC1C4B814605F08A
:205A4C000F0046EA002626F0030143EA0100C4F8840004F049FB00F0FF0001281AD1700B97
:205A6C000FD305F10C010120114A84F8A450884094F8A56011688143116046F0040084F88C
:205A8C00A500C4F8887004EB8500C0F878800127277004E0284602F013F96FF0010548467B
:205AAC0005F0DBFC2846BDE8F883C0460100030608100440380C0020B0B501468B681C688D
:205ACC00E26948682262520824D2D0F8A01049680A685D69D2F80415294206D01C68616A17
:205AEC0021F002016162C2F80455D2F8042519690A4230D01A68516A21F001015162D0F824
:205B0C00A0205268196912683830C2F8041502F029FFB0BD1C68626922F001026261D0F852
:205B2C008870AFB9626822F0020262601C68626A22F003026262D0F8A0005A6940681C69D4
:205B4C0000682243C0F80425084604F0F5FAB0BD0846FEF719FFB0BDF0B520480127F842B6
:205B6C0001D002F0A9FB204D204F214EBD4206D203CD0478A4003459401CA047F6E71D488E
:205B8C00002800D08047164D164FBD4202D210CDA047FAE7F0BD03251BE0416808300A1C23
:205BAC002A400BD11A1C2A40AB4305D0046804300C600431043BF9D1131C05D00478013035
:205BCC000C700131013BF9D1021C2A4001D0A84304300368002BE0D17047C046FFFFFFFF8D
:205BEC000000000000000000A0C20000D8C2000060C2000045810000002A4AD05FEA000C1C
:205C0C008B071CD1830722D1102A08D370B4103A78C978C0103AFBD270BC103238D0042AC5
:205C2C002CD3082A05D30C2A24BF08C908C008C908C008C908C092072AD0920F22E00B78B2
:205C4C000370491C401C521E22D08B07F7D1C30714D18307D8D0121F12D308C903801B0CD6
:205C6C004380001D121FF8D20AE008C903701B0A43701B0A83701B0AC370001D121FF4D2B3
:205C8C00121D05D00B780370491C401C521EF9D1604670472DE9F843224D884606464FF08D
:205CAC00FF3105F124008146FFF7F6F800200CE0FF2909D02A688A4204D905EB8101D1F860
:205CCC0094700FB1002627E0401CB8F1000F03D018F82010FE29EBD1002434607460012709
:205CEC00B46011E0FF280ED005EB80000B787268C0F8946007FA03F0104370600A680A4939
:205D0C00304604F0D7F8641CB8F1000F04D008EB84010878FE28E5D1484601F02DFA304642
:205D2C00BDE8F883C4280020007FC767B0B5456884682349607DA27DADF1180D40F00040E5
:205D4C000090207D0027FF2A41EA000001904FF0020002D0E27DFF2A00D13FB1E37DA07D25
:205D6C001943039140F0004002900420FE214DF8201005F140006946FFF78CFFE864002893
:205D8C0008BF381C1AD0617D0F2204F07DF8E86C217D102204F078F8A17D3846FF2902D05C
:205DAC00E27DFF2A00D140B1E86C112204F06CF8E86CE17D122204F067F8012006B0B0BD31
:205DCC000000C0A0F8B50546880F3CD31E4E30681E4F20F0020040F400703060032147F89F
:205DEC00041C41F23004BC60012139605022BA6039604FF4CA63BB603960154847F80C1C2C
:205E0C0005F0CCF9134FB81C0078012803D005F1300001F0B1F900240220346003F08AFDFD
:205E2C001120FEF799FE287C10B90E20FEF794FE3846094A44721178847221B11470CC301F
:205E4C00042104F05DFFF8BD000004600C41044079570000380C0020502B00202DE9F843F7
:205E6C002020EFF3118780F31188214CA068012105F029FB4FF001094FF0000865692168B9
:205E8C00A4F81C906A1A2168A4F81E80461B401A904227D387F3118840464519361A48460B
:205EAC00294600F015FDB042F7D92021EFF3118781F31188E18B012903D14046294600F08C
:205ECC0007FDB0F1FF3F06D0A169801B814238BF081C411901E0A069291804F0FFFCA4F86A
:205EEC0020902560A4F81C8087F31188BDE8F883C0160020B0B50446A768ADF1280D5FBB55
:205F0C000C2000F02FFA071C1DD0684600212422082305F0C7F9002306976A466168ADF84D
:205F2C0010301848059303F015F9386070B90820ADF824000C25ADF8265009A803F09AFCE4
:205F4C00384603F033FF6FF0030018E0E06878602069B860A7600AE004F059FD0546386851
:205F6C0004F05CFB2069B860284604F0F9FE3868616805F0B4FA386804F01EFF00200AB039
:205F8C00B0BDC046B5B10000FEB5044622481646089FC069618250F821201C4800681D46EE
:205FAC0090420DD01B480068009000220191184E029231888F23384604F0E4FC0120FEBD84
:205FCC00084602F08BFCA66068696060286AB0F1FF3F08BFFF2020740026E660288B002825
:205FEC000EBF301C0120E0600146A88C10B141F00200E060204601F0B9FC0346384604F0A5
:20600C00B3FC002814BFD81C301CFEBD74BD000016BE000054BD0000FC1500202DE9984397
:20602C0005F022F91F4CDFF87880814604F1E000007850B94446A0680146022088470746D6
:20604C00102002F0A7FA2FB320E001F06FFA002820460FD1144909683222B2FBF1F101B95C
:20606C00012100F13004204605F039FA204604F0A3FE0FE044460022A16880F8E020022006
:20608C0088470746102002F085FA1FB1A068014603208847484605F0E0F9BDE89883C04604
:2060AC006CBC0000C812002088BD00002DE9F04107467868BE680446F03004F0AFFA306834
:2060CC001B4980690968C0F3C00008BB05F0CCF8184D8046287820B1022003F02BFC00200F
:2060EC002870404605F0B9F93168134D886B20F020008863286820F480702860606A216A57
:20610C00091A21622369626A38469847BDE8F0814FF4FA70B0FBF1F1012998BF0121F03401
:20612C00204605F0DCF9204604F046FEBDE8F08188BD0000D5220020301000402DE9F0414C
:20614C0006467568B46805F08FF8A96A39B921688969090903D205F080F9BDE8F081002760
:20616C00AF6205F07AF9A17D3846FF2902D0E17DFF2900D118B128462146FFF7F9FB21689C
:20618C00886B20F0200088630D49086820F48070086005F069F80B4C8046207818B10220BD
:2061AC0003F0C8FB2770404605F057F9686A296A091A29622B696A6A30469847BDE8F081D5
:2061CC0030100040D52200202DE9FC41844608AF0878DFF87C803F88FF24022829D14E6831
:2061EC007578307842F6021600EB0520801B1AD04DF2EF65401B18BFB0F1020011D177B99F
:20620C00012B0AD11078CA681070C968474600258F4214BF02242C1C0EE00D250AE00B2502
:20622C0008E00A2506E00097604600F0D7FF054600E00125FF2C07D04046001D006818B12B
:20624C00016809B1204688472846BDE8FC81C0468410002070B51E4DAC68064604F084FC2C
:20626C004FF47A71001B4843030C03F029FF2969401A48BF404240F6B8319B19994210D30E
:20628C0006280EDAE9688C420BD8286848B1114A091B51438A0C02EB1141884288BF011C3B
:2062AC0008E00D49486840080ED208687D2100F0FF004143C82905D3B1F57A6F88BF4FF459
:2062CC007A6103E0C82101E04FF4FA61084670BD3C2B002040420F00AC3F00502DE9F04177
:2062EC0045688768D5F8A00006684468307888B1207904F089FF012809D120684FF00008A7
:20630C00C0F80480301D05F0D6F8404630702079FEF722FCD5F89C0004F0DFF939684868CD
:20632C0020F00200486005F11C0005F0C4F805F1380005F0DEF8387BFEF70EFC2878002465
:20634C0018B905F16C0005F0D2F805F1C40004F0C5F804F089FF85F8D94005F07EF8BDE8B2
:20636C00F0817047F8B5001D84B214F0030002D0241A241DA4B204F04AFB1A4A102C01461B
:20638C0057691161C8BF9769388800221646C30BDD0319D126B984420ADD3A46012617E038
:2063AC001388C3189BB29C42138011DC174618469FB1001B80B20428B4BF3C88385344F432
:2063CC0000443C803F1D08E080F40040002680B2C71938880028DAD10027084604F0C0FCC9
:2063EC003846F8BDD413002030B51A4C0546606801210180A1680868ADF1840D08B903A842
:20640C0008602846FEF7D2F8032004F0C3FD12480068016811B1A068006888470F48104C25
:20642C00104B0068218800F0FF0218680F2A04D30D48006840F2913301E040F28E3300904C
:20644C000192A86B02900020024604F09BFA21B030BDC046FC15002070BD000004ED00E014
:20646C0016BE000058BD00005CBD0000B0B51D481D4AC1691548C2F8081D07681448D2F8E2
:20648C00083D98420ED06FB1124B1B6800240F2C2CBF1D1C0568001D641C0D607F1E01F16A
:2064AC000401F4D10D48D2F80C7D0B4D0168202427F47F4000EB01202918C2F80C1D084BFC
:2064CC0082F8224D1868C2F8140DB0BD60BD00001010000074BD00000000FA0578BD00005D
:2064EC0068BD0000FC15002000E000E070B50D461B4A1A4904462B4603F02AFC2061284677
:20650C0004F032FA40BB184801220021A568036822751448A161002D18D4A1688A4080696E
:20652C00A168E26004F0C4FE206404F08BFDEFF311850646202080F31188204604F0ECFBFD
:20654C0085F31188304603F033FE05E0E160C0182146206404F0DEF9002070BD59A9000081
:20656C000D900000B81500209CBD0000F8B50E4605461446A969EA691F462046FFF73CFB29
:20658C0064602FB1EA6920463946082302F092F8E468D6B9E8686969AA68079B04F0CAFEFF
:2065AC00071C08BF002020D004F0B8FE69683960696849687960696849680F6069684F60F5
:2065CC0004F050FD07F1080605E06A6930460021083A00F007F92868B0F1FF3F18BF306011
:2065EC00286908B1616831503046F8BD70B50C461C49CA68824218BF03202DD191F8A500D8
:20660C00C2080AD391F8A420A24206D100F0FB0081F8A500002681F8A46004F025FE0646B0
:20662C00204601F04DFB0D48210201F47F41084303F05AFD0A4A1168054604F10C030120B0
:20664C00984081433046116004F007FF05F0FF05012D0CBF8120022070BDC04601000804BC
:20666C0008100440380C00201CB5042004F08EF8022818D0032816D016480068C0F3815072
:20668C00032814BF41F288324FF47A721248144C016854342046B2FBF1F104F020FF2046BB
:2066AC0004F08AFB1CBD03200C4C009000214FF040521C23204601F0B9FE012000214FF4AD
:2066CC00007209230090204601F0B0FE022003F031F91CBDB43F005088BD000000A00C40EF
:2066EC00C81200201D4910B51822ADF1400D0AA8FFF782FA01A804F07FFA4FF416510791C8
:20670C0000208DF81A008DF819008DF818008DF81B0001A903F09EF9041C02D109A004F00F
:20672C005BF920460AA9182204F029FE20680369694601222046984720466946012204F054
:20674C001EFEF3E74572726F72206F70656E696E6720746865205541525400C0CCBB000019
:20676C002DE9FF410E4605461A4C7188E08A81420CDCB188814209DBF088218B884205D100
:20678C003089618B884208BF18271FD0052002F0B1FA77888046F188B388ADF80270A08A0D
:2067AC00ADF806100C4AADF800003789ADF8043011216846ADF8087002F097FF071C05D100
:2067CC00A57304F1F000414602F070FC38460090BDE8FF81CC0800204FB400000022134626
:2067EC000A46194671B510F0030F0BD0002A82BF00F8011BB2F1010210F0030FF6D1002AA3
:20680C0008BF71BD11F0FF0141EA0121042A18D341EA0141082A0FD30E46102A08D30C46D4
:20682C000D46B2F10F0312F00F0272C0103BFCD812F0080F18BF42C012F0040F18BF40F8CA
:20684C00041B12F0020F18BF20F8021B12F0010F18BF017071BDFEE7F8B5866875681749A9
:20686C0095F88D3051F8232015491140154AA2F150073F684FF0010C43EA01040CFA03F11F
:20688C00394218BF44F48004126861469940114218BF44F4000495F88D1003F033F80B48E3
:2068AC00094920430840814206D1D5F88810042008743046FEF768F8F8BDC0460010084052
:2068CC00007F077FD0200240000006800000F8FF2DE9F04780461A481A4C00682418204613
:2068EC0004F001FE0E464FF0FF374FF0000A814621E04D46284604F0F8FD8146A88A0128B3
:20690C0019D1B8F1010F0ED1E86886420BD12869002808BFA5F814A002D0E9684018E86061
:20692C00A969E8698847A88A012804D1E868801B874288BF071C4C45DBD13846BDE8F087F4
:20694C0084BD0000C01600202DE9F0410E46154680464FF6FF71ADF1180D03AA03F0FAFE28
:20696C000246059232B300200090BDF80C00FF270DF11203294601904046029700F0BCFED4
:20698C00041C12D16889ADF81000700804D3404604A904F02FF806E01D20009004A93B46C4
:2069AC00404601F0D3FD041C05D004A81B2103F0DFFE00E01524204606B0BDE8F0817047D5
:2069CC0038B5054601201A4C68712879B0B904F01EF82178002904BF6FF00704051C15D00A
:2069EC00491EC9B2217039B904F0BAF9606803F081F90020687118E0054613E004F007F828
:206A0C0005462078FF2805D16FF00604284604F0A7F90BE0401CC0B20128207002D1606812
:206A2C0003F07FF9284604F09BF90024204638BD5418002070B50646B079F4680628A4F125
:206A4C000C042CDA3079062829DA03F0E0FF154DB27991000C3501EBC20169184968E1B196
:206A6C0004F07EF930792071B0796071307AA071B179880000EBC1002818F16840680830D9
:206A8C0003F0C0F9B179880000EBC1002D186868406800F071FB002070BD04F061F96FF0CD
:206AAC00020070BD1414002038B519491A4C00204822C1F8F30F94F8E200C1F8FF2F20B331
:206ACC00012817D0022807D003281ED151F8310C00F05EF80B2016E051F8315C2846FCF75B
:206AEC00D9F940F2FF50A84202D8801CA842F1D2082008E051F8310C00F030FC05480078B3
:206B0C000028E7D0052084F8E400FCF7D5FE38BD39400C407ABC0000C812002038B54468BC
:206B2C008568E06C03F0D9FD296817488A6B1040886316480068C168286888476868FEF714
:206B4C000BF804F1680004F0B6FC04F1840004F0D0FCA07818B904F1B80004F0C8FC6078C4
:206B6C0018B904F1D40004F0C2FC04F1F00004F0B0FC04F079FB0021217004F06EFC04F1CB
:206B8C00540003F0ABFC38BD0DF8FFFFD001001038B51A4CA0F5C060D4F8B810C4F8D400F6
:206BAC000029B8BF49420028B8BF4042814220DAB4F8BC00124D30214FF47F4208230090E9
:206BCC00284601F033FCB4F8C00004214FF4F80212230090284601F029FCB4F8D000202147
:206BEC004FF440620A230090284601F01FFC012000E0002084F8D80038BDC046C812002003
:206C0C0000A00C402DE9F8438146EFF31188202080F31188174D154C134F012605F11C003D
:206C2C000660A4F114000660F86A016A14208847D9F81000810C14BF000C04202060386872
:206C4C0002682321002090470948066054F8180C20F4C02040F4803044F8180C2E6088F31B
:206C6C001188BDE8F883C046840100101820094080022443000024432DE9FC4117460E46DF
:206C8C0005464FF0020800F0C7FB50BB02F0AAFD38BB05F0FF04C4F58074B44288BF341CD9
:206CAC008DF800808DF80350280C8DF80100280A8DF8020004F056F96846042102F0B2FEC0
:206CCC00361B651920B93846214602F0ABFE18B104F040F9BDE8FC8104F03CF9E719002E11
:206CEC00D1D1BDE8FC817047B0B5ADF1400D04F0A9F9044600213C220823684604F002FB94
:206D0C001148416806918168006804900F480068002205900E480891694601F067FE071C5C
:206D2C000DD003F074FE0546384601F02DFA30B1284604F015F8204603F03AFA01E000F076
:206D4C00EBFF10B0B0BDC04618B50000D813002031AF000030B5401E4FF00004ADF12C0DF5
:206D6C000AD0401E04D0401E21D1FCF7A5FD1EE000F04CFD04461AE001A82146242208231A
:206D8C0004F090FA06940D4DADF8144009490794012201ABE63D05F1780002F025FC2346B3
:206DAC002C2105F19C00044A009302F00BF920460BB030BD95750000B56A0000AE130020F9
:206DCC00F8B5054604F050FA174CB5F98C10012607460C3CB4F93400E671401A06D4B4F9EF
:206DEC003600B5F98C1088420CD110E0B4F93600B5F98C1088420ADAB4F93600B4F93410C1
:206E0C00884204DD85F88E600020207007E005F1680003F003FC002000F012FCA6723846B5
:206E2C0004F01BFBF8BDC046440C00202DE9F04106467568B46804F017FAA96B21B3002771
:206E4C00AF6304F00AFB2168886B20F4FA6088630F49086820F40070086004F005FA0D4C46
:206E6C008046207818B1022002F064FD2770404604F0F3FA686B296BEB68091A29636A6B2E
:206E8C0030469847BDE8F08104F0E7FABDE8F08130100040D42200202DE9F041164D6C687C
:206EAC002079ADF1380DFDF7C1FE04F0DDF92F6880463878C8B901A800213022082304F004
:206ECC00CDF90695A079002609900C4A0096617901AB381D02F076F8012038702168084AA2
:206EEC00CE6221688A6021684860404604F0B5FA28460EB0BDE8F0817CBC000095B30000C7
:206F0C00000400202DE9FF41984607460C461346404603F029FD054613B904F011FA034617
:206F2C00002F12BF381C0F4800681A462146434604F02FFA061C10D11DB9404603F014FD62
:206F4C0058B90A48006800900197074D0294298800223423404603F015FD30460090BDE8E8
:206F6C00FF81C046CCBD00001CBE0000B4BD0000164880B507683FB315498B6803EA530026
:206F8C00C00E21D2134A106880081DD2486880081AD21068096810F0050F4FEA114101F03B
:206FAC00F00101F5E0710AD1B9420DD2190F38BF40F00100D90E38BF40F0040003E0B94298
:206FCC0002D920F00500106080BDC04628500940AC3F005000000940D0B51E46034617482C
:206FEC00082706600446037111F8013B7F1E637104F10104F8D136B112F8011B761E417364
:20700C0000F10100F8D100BFD0BD84460B48E0B50D460827014606680A797F1E01F1010160
:20702C000CF8012BF8D13DB136B1017B761E00F1010005F8011BF8D1E0BDC0469026002019
:20704C00B0B5184C0546208C002701281BD1A08BC8B9A068012104F036FA2168421A2368BE
:20706C006169C91A91420ED30127A968AA68AF824118E9606169091A914211D9E968104634
:20708C0003F02CFCB0BD5FB903F0B8FAA78BA968012F0844E8604FF00100A88208BFE08304
:2070AC00B0BDC046C0160020F8B570BB174C606848B3002080F31188202080F3118860681D
:2070CC0063692669F825B0FA80F0A5EBC0001B1805E06369B0FA80F0A5EBC0001B189E4261
:2070EC0011D2184604F0EAF80746184604F040F818B1B969606888436060384600F08EFC60
:20710C0060680028E5D100202080F8BD74170020F8B540F6FF7C10F8014B00231DE0122F8A
:20712C0000F1010008D110F8015B2E0A24BF10F8016B66F3DF15EF198A1A521E12F8015BB6
:20714C007F1E01F8015BF9D103E010F8012B01F8012B5B1C6408082BDDDA6208F5D210F825
:20716C00012B057805F00F071201FF1C42EA25129445D4D1F8BD7047034670B52020EFF344
:20718C00118580F31188144800681C18181803F0EFFFB0B903F056FF0646204604F08EF85B
:2071AC00044601202074E06808B103F037FAA068294602F045FF85F31188304602F0F8FF82
:2071CC0070BD187A40083ABF5889401C0120588185F3118870BDC04694BD0000F8B506AF75
:2071EC003F880E4605463FBB022B23D15078147804EB002434F001001AD1F1680968284653
:20720C0003F078FE844211D0F06806683146284603F084F948B94FF6FF70314603F07EF9A1
:20722C00002808BF112008D0058084700020F8BD8020F8BD0D20F8BD0B20F8BDD0B5044616
:20724C0004F066F800F0A0FF071C08BF6FF002041FD003F0DCFB0146A2880F4800232430FA
:20726C0030F80C6F5EB902804760A26882602373786820610024084603F072FD09E09642A7
:20728C0008BF6FF00204F6D05B1C062BE8D300F043FD2046D0BDC046F01300202DE9FC41EE
:2072AC00154E0D4606F114042168804603F022FE093C4008F5721DD340460121002203F0FA
:2072CC0049FA07460197AFB1304610212246203003F0ECFD40890126ADF800006946ADF8F6
:2072EC00026040463D7003F085FB18B168461B2103F03EFABDE8FC81A81100202DE9F0415A
:20730C00154D0C46E9689846814218BF032020D16260C5F888000A21218005F184063460E9
:20732C0000F0A4FC071C13D4A770204601F0B4FD022808D0012806D006EB870646F80C8C33
:20734C000120287004E0384600F0BAFC6FF001073846BDE8F081C046380C0020134910B5DA
:20736C000A684BF2F5214843040AC2F38140012806D102F0A5FE01F017FD604304EB90541D
:20738C000C4901F1E500007830B90948006820F07F402418640802E0002081F8E500064876
:2073AC000460210C41600123836010BDB43F005010200940C81200203C600C4098B5044686
:2073CC0020208DF8000004F6FF706FF30B04001B00F6FF70000B1ED0074600F01DF8D0B9AE
:2073EC0002F000FAB8B9200C8DF801008DF80340200A8DF8020003F0B5FD6846042102F08F
:20740C0011FB10B103F0A6FD98BD03F0A3FD04F580547F1EE1D198BD14481CB500788DF87A
:20742C00010003F09FFD12480830006880680168C8684009FCD203F08DFD03F093FD0DF120
:20744C000100012102F0EEFA6846012102F0D2FA044603F07FFD002C18BF6FF0010004D1A4
:20746C009DF800004008E8D200201CBDF0BC00006C140020B0B5044603F0EAFE30F0010079
:20748C0008BF6FF004041ED003F042FF054603F0BEFA01460D480622403030F80C7F6FB193
:2074AC00A388BB4208D1406800680022854208BF0122A260002403E0521EEED14FF0FF3432
:2074CC00084603F04DFC2046B0BDC046D4130020FEB5154C0D462169064603F00BFD4008B6
:2074EC0021D330460221002203F034F907460197CFB1224602F120001021093203F0D6FCA0
:20750C0002244089ADF80240ADF800003D7001992A1230464A70694603F06CFA18B16846B2
:20752C001B2103F025F9FEBDA811002008B5012003F02CF901281DD00F4834210122002360
:20754C0001F01AFB002808BF002014D00B48006802F006FE03F008FB0A4A93681168D06087
:20756C00C01A074BA1EB91014343180C884228BF011C1160012008BD00A00C40800000106A
:20758C0040420F003C2B00201548134A1349E4300078801E0A281CD8DFE800F018130E1B56
:2075AC00130E1B130E1B06C010688008FCD250688008FCD2FCF780B908688008FCD3FCF7BF
:2075CC007BB908688008FCD2FCF776B910688008FCD3FCF771B9C04634600C4038600C40CD
:2075EC00C812002098B5154B1B1D18680004070C21D002F065FD104991F90720824205DD14
:20760C0010F1800FB8BF6FF07F00C8718C88BC4210D80A68D3F8D40F801A801C1F2888BF62
:20762C001F203F1B4008C7404FF6FF70E719B84238BF071C8F8098BD602B002030100940F6
:20764C00F8B5074603F010FE124C06462079E0B1401EC0B22071C0B904F1CC00082103F098
:20766C004FFB97B1E068683002F0D8FFE0680A4DC0683F1A286804F1A805B7FBF0F1284670
:20768C0003F02DFF284603F097FB304603F0E5FEF8BDC046380C002088BD000098B5044685
:2076AC00880F1FD36168486808B180476168886808B9CF6877B10C4A1768002FFCD0002370
:2076CC00136008B180476168C86800B18047074802F00AFD064803F061FD06484FF0005175
:2076EC0003F00EFB98BDC0461C100440010007062D3E0000040D0020B0B504AF3F88002FFF
:20770C0018BF0B2025D1087802281FD14D686C782F7800204FF6F17507EB04277F1B012FD9
:20772C000ED9FF1E0CD07F1E1CBF011C0A200FD105241C80C9680B68136009791171B0BD71
:20774C0001241C80C96809781170B0BD002101201980B0BDB0B503F0B0FE002808BF00205F
:20776C001FD010480468002C0ADD00250020294603F060FC0021FEF7B9FE6D1C641EF5D196
:20778C000948006858B1094D07460024286B50F824000021FEF7AAFE641C7F1EF6D14FF074
:2077AC00FF30B0BDA0BD0000B0BD0000B815002030B52025ADF1540D85F31188124C01E0F1
:2077CC0001F0F2F860680028FAD06068A369F821B0FA80F0A1EBC0015818606103F083FE0F
:2077EC00206100232381022003F0D4FB83F3118885F3118803F03CFB216904A8103103F09D
:20780C00F1FB15B030BDC046B815002038B5134D95F8E100002410B91148007860B103F04E
:20782C0023FD95F8E310002906BF012185F8E310012403F012FE0CB1002038BD022002F00E
:20784C0091F80E20FDF7F2F902F010FD01280EBF0120002085F8E20038BDC046C8120020FC
:20786C007ABC000010B503F0FFFC124C611C097829B10F490C6803F0F0FD204610BD03F00B
:20788C00ECFD03F0A5FA0C4A002303F0E5F9A26C002314001B184FF07A024FF0905044EB96
:2078AC000104C11842EB04021046001C10BDC04604300440380C002000093D007FB5866822
:2078CC0031684568486820F0020048603168486920F00F00486130680321016202A803F01E
:2078EC0051FB0B4800680468286900906869074B0190297E03EB81010A6A297B306853F822
:20790C0021300399A04700907FBDC046A0B70000C40100100246F8B5084611464C682038E3
